:020000040800F2
:1000000000000520DD310008E12F0008E52F000881
:10001000E92F0008ED2F0008F12F00080000000074
:10002000000000000000000000000000F52F0008A4
:10003000F92F000800000000FD2F00080130000823
:100040002D3200082D3200082D3200082D32000814
:100050002D3200082D3200082D3200082D32000804
:100060002D3200082D3200082D3200082D320008F4
:100070002D3200082D3200082D3200082D320008E4
:100080002D3200082D3200082D3200082D320008D4
:100090002D3200082D3200082D3200082D320008C4
:1000A0002D3200082D3200082D3200082D320008B4
:1000B0002D3200082D3200082D3200082D320008A4
:1000C0002D3200082D3200082D3200082D32000894
:1000D0002D3200082D3200082D3200082D32000884
:1000E0002D3200082D3200082D3200082D32000874
:1000F0002D3200082D3200082D3200082D32000864
:100100002D3200082D3200082D3200082D32000853
:100110002D3200082D3200082D3200082D32000843
:10012000053000082D3200082D3200082D3200085D
:100130002D3200082D3200082D3200082D32000823
:100140002D3200082D3200082D3200082D32000813
:100150002D3200082D3200082D3200082D32000803
:100160002D3200082D3200082D3200082D320008F3
:100170002D3200082D3200080000000000000000B1
:100180002D3200082D3200082D3200082D320008D3
:100190002D3200082D320008000000002D3200082A
:1001A0002D3200082D320008000000000000000081
:1001B0002D32000800000000000000002D32000871
:1001C0002D3200082D3200082D3200082D32000893
:0801D0002D3200082D32000859
:1001E00010B5054C237833B9044B13B10448AFF371
:1001F00000800123237010BDDC01002000000000FE
:10020000445A000808B5034B1BB103490348AFF338
:10021000008008BD00000000E0010020445A0008F2
:10022000034613F8012B002AFBD1181A0138704736
:1002300001F0FF01102A2BDB10F0070F08D010F897
:10024000013B013A8B422DD010F0070F42B3F6D19B
:10025000F0B441EA012141EA014122F007047FF0B4
:1002600000070023F0E80256083C85EA010586EA0B
:10027000010685FA47F5A3FA87F586FA47F6A5FA47
:1002800087F68EB9EED1F0BC01F0FF0102F0070253
:1002900032B110F8013B013A83EA010313B1F8D1FE
:1002A0000020704701387047002D06BF35460338DF
:1002B000073815F0010F07D1013015F4807F02BF18
:1002C000013015F4C03F0130F0BC0138704700BF69
:1002D00081F0004102E000BF83F0004330B54FEAF7
:1002E00041044FEA430594EA050F08BF90EA020F64
:1002F0001FBF54EA000C55EA020C7FEA645C7FEAF7
:10030000655C00F0E2804FEA5454D4EB5555B8BF19
:100310006D420CDD2C4480EA020281EA030382EA8A
:10032000000083EA010180EA020281EA0303362D1C
:1003300088BF30BD11F0004F4FEA01314FF4801CEF
:100340004CEA113102D0404261EB410113F0004F01
:100350004FEA03334CEA133302D0524263EB4303B8
:1003600094EA050F00F0A780A4F10104D5F1200E56
:100370000DDB02FA0EFC22FA05F2801841F10001B1
:1003800003FA0EF2801843FA05F359410EE0A5F185
:1003900020050EF1200E012A03FA0EFC28BF4CF0B6
:1003A000020C43FA05F3C01851EBE37101F000456C
:1003B00007D54FF0000EDCF1000C7EEB00006EEB79
:1003C0000101B1F5801F1BD3B1F5001F0CD3490803
:1003D0005FEA30004FEA3C0C04F101044FEA44525A
:1003E00012F5800F80F09A80BCF1004F08BF5FEAE1
:1003F000500C50F1000041EB045141EA050130BDC1
:100400005FEA4C0C404141EB010111F4801FA4F163
:100410000104E9D191F0000F04BF01460020B1FAB8
:1004200081F308BF2033A3F10B03B3F120020CDAF0
:100430000C3208DD02F1140CC2F10C0201FA0CF0CE
:1004400021FA02F10CE002F11402D8BFC2F1200C33
:1004500001FA02F120FA0CFCDCBF41EA0C019040E9
:10046000E41AA2BF01EB0451294330BD6FEA040432
:100470001F3C1CDA0C340EDC04F11404C4F120021D
:1004800020FA04F001FA02F340EA030021FA04F32F
:1004900045EA030130BDC4F10C04C4F1200220FA86
:1004A00002F001FA04F340EA0300294630BD21FAC4
:1004B00004F0294630BD94F0000F83F4801306BF8A
:1004C00081F480110134013D4EE77FEA645C18BF7E
:1004D0007FEA655C29D094EA050F08BF90EA020F15
:1004E00005D054EA000C04BF1946104630BD91EA0D
:1004F000030F1EBF0021002030BD5FEA545C05D110
:100500004000494128BF41F0004130BD14F580044E
:100510003CBF01F5801130BD01F0004545F0FE41C2
:1005200041F470014FF0000030BD7FEA645C1ABFF7
:10053000194610467FEA655C1CBF0B46024650EA2E
:10054000013406BF52EA033591EA030F41F400215A
:1005500030BD00BF90F0000F04BF0021704730B5E0
:100560004FF4806404F132044FF000054FF00001B5
:1005700050E700BF90F0000F04BF0021704730B576
:100580004FF4806404F1320410F0004548BF40424B
:100590004FF000013EE700BF42004FEAE2014FEAA0
:1005A00031014FEA02701FBF12F07F4393F07F4F7B
:1005B00081F06051704732F07F4208BF704793F07E
:1005C0007F4F04BF41F40021704730B54FF4607491
:1005D00001F0004521F000411CE700BF50EA010294
:1005E00008BF704730B54FF000050AE050EA01023D
:1005F00008BF704730B511F0004502D5404261EBAD
:1006000041014FF4806404F132045FEA915C3FF4ED
:10061000D8AE4FF003025FEADC0C18BF03325FEA8A
:10062000DC0C18BF033202EBDC02C2F1200300FA3B
:1006300003FC20FA02F001FA03FE40EA0E0021FA60
:1006400002F11444BDE600BF70B54FF0FF0C4CF44E
:10065000E06C1CEA11541DBF1CEA135594EA0C0F00
:1006600095EA0C0F00F0DEF82C4481EA030621EA3B
:100670004C5123EA4C5350EA013518BF52EA033576
:1006800041F4801143F4801338D0A0FB02CE4FF028
:100690000005E1FB02E506F00042E0FB03E54FF058
:1006A0000006E1FB03569CF0000F18BF4EF0010E50
:1006B000A4F1FF04B6F5007F64F5407404D25FEA4C
:1006C0004E0E6D4146EB060642EAC62141EA5551FF
:1006D0004FEAC52040EA5E504FEACE2EB4F1FD0C41
:1006E00088BFBCF5E06F1ED8BEF1004F08BF5FEABF
:1006F000500E50F1000041EB045170BD06F0004671
:1007000046EA010140EA020081EA0301B4EB5C041D
:10071000C2BFD4EB0C0541EA045170BD41F4801115
:100720004FF0000E013C00F3AB8014F1360FDEBF3A
:10073000002001F0004170BDC4F10004203C35DA16
:100740000C341BDC04F11404C4F1200500FA05F399
:1007500020FA04F001FA05F240EA020001F000423A
:1007600021F0004110EBD37021FA04F642EB0601B0
:100770005EEA430E08BF20EAD37070BDC4F10C04DA
:10078000C4F1200500FA04F320FA05F001FA04F29E
:1007900040EA020001F0004110EBD37041F100018A
:1007A0005EEA430E08BF20EAD37070BDC4F1200595
:1007B00000FA05F24EEA020E20FA04F301FA05F2FD
:1007C00043EA020321FA04F001F0004121FA04F2A5
:1007D00020EA020000EBD3705EEA430E08BF20EA75
:1007E000D37070BD94F0000F0FD101F000464000AF
:1007F00041EB010111F4801F08BF013CF7D041EA31
:10080000060195F0000F18BF704703F00046520034
:1008100043EB030313F4801F08BF013DF7D043EA05
:100820000603704794EA0C0F0CEA135518BF95EABB
:100830000C0F0CD050EA410618BF52EA4306D1D142
:1008400081EA030101F000414FF0000070BD50EA61
:10085000410606BF1046194652EA430619D094EAEB
:100860000C0F02D150EA013613D195EA0C0F05D1D5
:1008700052EA03361CBF104619460AD181EA030129
:1008800001F0004141F0FE4141F470014FF00000E1
:1008900070BD41F0FE4141F4780170BD70B54FF07C
:1008A000FF0C4CF4E06C1CEA11541DBF1CEA1355FC
:1008B00094EA0C0F95EA0C0F00F0A7F8A4EB0504DE
:1008C00081EA030E52EA03354FEA013100F08880D5
:1008D0004FEA03334FF0805545EA131343EA12639E
:1008E0004FEA022245EA111545EA10654FEA002653
:1008F0000EF000419D4208BF964244F1FD0404F50C
:10090000407402D25B084FEA3202B61A65EB030567
:100910005B084FEA32024FF480104FF4002CB6EB24
:10092000020E75EB030E22BFB61A754640EA0C00A4
:100930005B084FEA3202B6EB020E75EB030E22BFE4
:10094000B61A754640EA5C005B084FEA3202B6EB25
:10095000020E75EB030E22BFB61A754640EA9C00E4
:100960005B084FEA3202B6EB020E75EB030E22BFB4
:10097000B61A754640EADC0055EA060E18D04FEA72
:10098000051545EA16754FEA06164FEAC30343EA12
:1009900052734FEAC2025FEA1C1CC0D111F4801FDF
:1009A0000BD141EA00014FF000004FF0004CB6E7D8
:1009B00011F4801F04BF01430020B4F1FD0C88BF77
:1009C000BCF5E06F3FF6AFAEB5EB030C04BFB6EB82
:1009D000020C5FEA500C50F1000041EB045170BD75
:1009E0000EF0004E4EEA113114EB5C04C2BFD4EBA2
:1009F0000C0541EA045170BD41F480114FF0000E26
:100A0000013C90E645EA060E8DE60CEA135594EAA1
:100A10000C0F08BF95EA0C0F3FF43BAF94EA0C0FA4
:100A20000AD150EA01347FF434AF95EA0C0F7FF419
:100A300025AF104619462CE795EA0C0F06D152EA6D
:100A400003353FF4FDAE1046194622E750EA410651
:100A500018BF52EA43067FF4C5AE50EA41047FF462
:100A60000DAF52EA43057FF4EBAE12E74FF0FF3CC7
:100A700006E000BF4FF0010C02E000BF4FF0010C98
:100A80004DF804CD4FEA410C7FEA6C5C4FEA430C11
:100A900018BF7FEA6C5C1BD001B050EA410C0CBF60
:100AA00052EA430C91EA030F02BF90EA020F0020C2
:100AB000704710F1000F91EA030F58BF994208BF29
:100AC00090422CBFD8176FEAE37040F001007047E6
:100AD0004FEA410C7FEA6C5C02D150EA013C07D13D
:100AE0004FEA430C7FEA6C5CD6D152EA033CD3D088
:100AF0005DF8040B704700BF8446104662468C4682
:100B00001946634600E000BF01B5FFF7B7FF0028B4
:100B100048BF10F1000F01BD4DF808EDFFF7F4FFDD
:100B20000CBF012000205DF808FB00BF4DF808ED68
:100B3000FFF7EAFF34BF012000205DF808FB00BF8B
:100B40004DF808EDFFF7E0FF94BF012000205DF8AD
:100B500008FB00BF4DF808EDFFF7CEFF94BF012062
:100B600000205DF808FB00BF4DF808EDFFF7C4FF5B
:100B700034BF012000205DF808FB00BF4FEA410CA4
:100B80007FEA6C5C02D150EA013C0AD14FEA430C87
:100B90007FEA6C5C02D152EA033C02D14FF00000C4
:100BA00070474FF0010070474FEA410212F5001202
:100BB00015D211D56FF47873B3EB625212D94FEAA4
:100BC000C12343F0004343EA505311F0004F23FA8E
:100BD00002F018BF404270474FF00000704750EAE3
:100BE000013005D111F0004008BF6FF000407047A0
:100BF0004FF00000704700BF53B94AB9002908BF41
:100C000000281CBF4FF0FF314FF0FF3000F072B9E9
:100C1000ADF1080C6DE904CE00F006F8DDF804E053
:100C2000DDE9022304B070472DE9F047089E044631
:100C30008846002B4BD18A42154667D9B2FA82F218
:100C40004AB1C2F1200701FA02F320FA07F79540F2
:100C500047EA030894404FEA154E230CB8FBFEF711
:100C60001FFA85FC0EFB178843EA084307FB0CF1CB
:100C7000994209D9EB1807F1FF3080F01B819942A6
:100C800040F21881023F2B445B1AA4B2B3FBFEF082
:100C90000EFB103344EA034400FB0CFCA44509D9C5
:100CA0002C1900F1FF3380F00781A44540F2048144
:100CB00002382C4440EA0740A4EB0C0400271EB184
:100CC000D4400023C6E900433946BDE8F0878B4293
:100CD00009D9002E00F0EB800027C6E90001384654
:100CE0003946BDE8F087B3FA83F7002F47D18B422E
:100CF00002D3824200F2FA80841A61EB03030120DE
:100D00009846002EE0D0C6E90048DDE702B9FFDED4
:100D1000B2FA82F2002A40F08F80491B4FEA154E4A
:100D20001FFA85F80127B1FBFEFC230C0EFB1C11FA
:100D300043EA014308FB0CF1994207D9EB180CF187
:100D4000FF3002D2994200F2CD808446591AA3B2F4
:100D5000B1FBFEF00EFB101443EA044408FB00F85C
:100D6000A04507D92C1900F1FF3302D2A04500F2AB
:100D7000B6801846A4EB080440EA0C409FE7C7F190
:100D8000200CBB4022FA0CFE4EEA030E01FA07F4D7
:100D900020FA0CF521FA0CF34FEA1E482543B3FB69
:100DA000F8F92C0C08FB19331FFA8EFA44EA0343B6
:100DB00009FB0AF49C4202FA07F200FA07F10BD988
:100DC0001EEB030309F1FF3080F087809C4240F264
:100DD0008480A9F1020973441B1BADB2B3FBF8F088
:100DE00008FB103345EA034400FB0AFAA24508D980
:100DF0001EEB040400F1FF336BD2A24569D902381F
:100E0000744440EA0940A0FB0289A4EB0A044C4563
:100E1000C2464B4654D351D0002E69D0B1EB0A05DF
:100E200064EB030404FA0CFCFD40FC404CEA0505AD
:100E3000C6E90054002747E7C2F1200320FA03F770
:100E4000954001FA02F021FA03F34FEA154E3843B8
:100E5000010CB3FBFEF71FFA85F80EFB173341EACE
:100E6000034107FB08F38B4204FA02F407D969181F
:100E700007F1FF3C2FD28B422DD9023F2944CB1AD8
:100E800081B2B3FBFEF00EFB103341EA034100FBDD
:100E900008F38B4207D9691800F1FF3C17D28B4247
:100EA00015D902382944C91A40EA07473BE73746B3
:100EB000304609E70746E7E61846FBE64145ABD270
:100EC000B8EB020A69EB0E0201381346A4E760464C
:100ED000E9E7184695E76746D1E781467CE702389F
:100EE0002C4447E7ACF1020C2B442FE7384608E7C7
:100EF0003746E9E6704700BF00283BD090F8512004
:100F0000002370B502F0FF010446836262B3184605
:100F1000D4E90135D4E903212B4313436269E56920
:100F2000266A0B431343A26921682B43022584F8E8
:100F30005150334302F400750E682B43120C656A5E
:100F400002F0040203432A4326F040060E600B60C1
:100F50004A60CB69002223F400630125CB6110466F
:100F6000626584F8515070BD80F8501001F07CFE2D
:100F7000A06ACDE701207047174908B58B6803F0D8
:100F80000C03042B1BD0082B17D14A684B6813F4B1
:100F9000800302F03F0214D149681048C1F3881160
:100FA000A1FB0001FFF728FE0B4B5B68C3F3014375
:100FB00001335B00B0FBF3F008BD084808BD0848EA
:100FC00008BD4B680648C3F38813A3FB0001002348
:100FD000FFF712FEE8E700BF003802400024F400EB
:100FE00040787D0160B1484A136803F00F038B42DB
:100FF00008D2CBB21370136803F00F038B4201D0F9
:101000000120704703682DE9F0419D0714D55C0766
:1010100004D53E4CA26842F4E052A2601A0704D5FF
:101020003A4CA26842F46042A260384C8568A268DB
:1010300022F0F0022A43A260DF0704460D4622D5C3
:101040004268012A56D0931E012B304B1B6858D999
:10105000990725D52D4EB36823F003031343B360DE
:1010600000F034F941F28837804605E000F02EF9AF
:10107000A0EB0800B84242D8B368626803F00C03E2
:10108000B3EB820FF2D1204A136803F00F03AB4297
:1010900009D9EBB21370136803F00F03AB4202D00F
:1010A0000120BDE8F08123685A0706D51749E0689A
:1010B0008A6822F4E05202438A601B0711D4FFF7CA
:1010C0005BFF124B12499B68124AC3F30313CB5CBC
:1010D00020FA03F30020136000F0AEF80020BDE812
:1010E000F0810A4A2169936823F4604343EAC1030B
:1010F0009360E4E7054B1B689E03ABD4D0E7032065
:10110000EDE79801A6D4CBE7003C0240003802404E
:10111000745A000808000020044B054A9B680549E2
:10112000C3F382230868D35CD8407047003802407C
:10113000845A000808000020044B054A9B680549B2
:10114000C3F342330868D35CD8407047003802408C
:10115000845A000808000020074AD3684FF6FF01B0
:101160000B40000243F0BF6300F4E06043F400333F
:101170000343D360704700BF00ED00E0184BDB680D
:10118000C3F3022330B4C3F10705042D03F10404B3
:1011900028BF0425062C19D9033B4FF0FF349C408F
:1011A00022EA04044FF0FF32AA4021EA020101FAC8
:1011B00003F2224312010028D2B20ADB00F16040A0
:1011C00000F5614080F8002330BC704700242346BE
:1011D000E8E7044B00F00F0003441A7630BC704778
:1011E00000ED00E0FCEC00E0002807DB00F01F0150
:1011F00001234009024A8B4042F82030704700BF6B
:1012000000E100E00138B0F1807F0ED2084B10B44D
:10121000084C5860F02084F8230000220721104673
:101220009A6019605DF8044B70470120704700BF59
:1012300010E000E000ED00E038B50E4A0E4B1278E9
:101240001B6805464FF47A70B0FBF2F0B3FBF0F088
:10125000FFF7D8FF08B90F2D01D9012038BD04468A
:10126000024629464FF0FF30FFF788FF034B204628
:101270001D6038BD00000020080000200400002090
:1012800008B50B4B1A6842F400721A601A6842F4EF
:1012900080621A601A6842F480721A600320FFF7B5
:1012A0005BFF0020FFF7C8FF01F0B2FE002008BD81
:1012B000003C0240034A044B11681B780B44136046
:1012C000704700BF0402002000000020014B186896
:1012D000704700BF0402002038B50446FFF7F6FF50
:1012E000631C054602D0044B1B781C44FFF7EEFF3D
:1012F000401BA042FAD338BD0000002000285CD07B
:10130000F8B590F83D30044603F0FF02BBB3226805
:101310003A4EA569E0686168022384F83D30B24224
:1013200013684CD0B2F1804F58D0A6F57C46B2423B
:101330002AD006F58066B24226D006F58066B24213
:1013400022D006F57846B2421ED006F57056B2425B
:1013500013D006F58066B2420FD006F58066B24221
:101360000BD0A6F59836B24207D006F58066B24299
:1013700003D006F58066B24238D1266933E080F8A2
:101380003C2001F0BFFDC2E7A6681D4F23F07003AB
:101390003343266923F44073334323F080032B4304
:1013A000BA421360D062916201D163691363012371
:1013B0005361002084F83D30F8BD01207047A768D4
:1013C000266923F070033B4323F44073334323F037
:1013D00080032B431360D0629162E6E7A768266919
:1013E00023F070033B4323F44073334323F0800323
:1013F0002B431360D0629162D9E700BF0000014027
:101400000004014000285CD0F8B590F83D30044657
:1014100003F0FF02BBB322683A4EA569E068616839
:10142000022384F83D30B24213684CD0B2F1804FB1
:1014300058D0A6F57C46B2422AD006F58066B24264
:1014400026D006F58066B24222D006F57846B24232
:101450001ED006F57056B24213D006F58066B24231
:101460000FD006F58066B2420BD0A6F59836B24290
:1014700007D006F58066B24203D006F58066B24218
:1014800038D1266933E080F83C2001F023FDC2E723
:10149000A6681D4F23F070033343266923F440737D
:1014A000334323F080032B43BA421360D06291622E
:1014B00001D16369136301235361002084F83D3037
:1014C000F8BD01207047A768266923F070033B43ED
:1014D00023F44073334323F080032B431360D06223
:1014E0009162E6E7A768266923F070033B4323F483
:1014F0004073334323F080032B431360D062916227
:10150000D9E700BF00000140000401400368012248
:10151000186A01F01F0102FA01F120EA010010B47B
:1015200018621A6A0C4C1143A34219620FD00B4A7D
:1015300093420CD09A6802F00702062A03D01A6878
:1015400042F001021A6000205DF8044B70475A6CAB
:1015500042F400425A64EDE70000014000040140FB
:10156000036830B41A6A194C01F01F050121A94023
:1015700022EA010119621A6A1A62A34216D0144AB9
:10158000934213D0196A41F21112114208D1196A1B
:1015900040F24442114203D11A6822F001021A605B
:1015A000012380F83D3030BC00207047196A41F2B9
:1015B00011121142E6D1196A40F244421142E1D1BE
:1015C0005A6C22F400425A64DCE700BF000001407C
:1015D0000004014090F83C30012B00F0CC80F0B4C6
:1015E0000223012480F83C4080F83D300C2A35D895
:1015F000DFE802F0073434346A3434349634343457
:101600003D000368D1F808C01D6A0F68744E25F0CC
:1016100001051D621A6A5D689C6922F0020224F0CD
:101620007304B34242EA0C0244EA070400F0BB80B0
:1016300006F58066B34200F0B6804E685D609C613E
:101640005E631A629C690D6944F008049C619969A3
:1016500021F0040199619A692A439A6100230122C9
:1016600080F83D2080F83C30F0BC18467047036895
:10167000D1F808C01D6A0F68594E25F480551D62C7
:101680001A6A5D68DC6922F4005224F4E644B3422D
:1016900042EA0C3244EA07246FD006F58066B34272
:1016A0006BD04E685D60DC611E641A62DC690D6996
:1016B00044F40064DC61D96921F48061D961DA699C
:1016C00042EA0522DA61C9E703688F681D6A0E687D
:1016D000DFF80CC125F010051D621A6A5D689C696F
:1016E00022F0200224F4E644634542EA071244EA69
:1016F000062465D03B4FBB4262D04E685D609C6162
:101700009E631A629C690D6944F400649C61996946
:1017100021F4806199619A6942EA05229A619DE704
:1017200003688F681D6A0E68DFF8B4C025F4807501
:101730001D621A6A5D68DC6922F4007224F0730489
:10174000634542EA072244EA06041CD0254FBB4207
:1017500019D04E685D60DC61DE631A62DC690D6978
:1017600044F00804DC61D96921F00401D961DA6927
:101770002A43DA6172E7022070474E6925F48045FA
:1017800045EA86158DE7CE6822F4006242EA062219
:10179000D1E9056725F4405C46EA070522F480623A
:1017A0004CEA0515D5E7CE6822F008023243D1E9AC
:1017B000056725F440753E4322F0040235433CE7BB
:1017C000CE6822F0800242EA0612D1E9056725F4CC
:1017D000406C46EA070522F040024CEA85058CE79A
:1017E000000001400004014090F83C20012A1AD07A
:1017F00070B40222046880F83D20D1E900650346F8
:101800006068A26820F0700122F0800231432A4310
:101810000126002561602846A26083F83D6083F8B8
:101820003C5070BC70470220704700BFF8B50446BA
:10183000FFF74CFD002C54D00222236884F8352099
:101840001A68002122F0010284F8341005461A605B
:1018500005E0FFF73BFD401B05283BD823681A68CD
:10186000D107F6D4D4E90126D4E9035132436069A3
:101870001F682A43D4E906650A430243216A3548B2
:1018800032432A430A43616A3840042942EA00028B
:1018900029D01A605A6922F007021143DAB22E48A1
:1018A0005961103AA0FB021212092C4923F47F73EC
:1018B000895CE16523F00303032A88BF04333F22D8
:1018C0008A4001250021A36508469A60616584F875
:1018D0003550F8BD032320226265184684F8353060
:1018E000F8BD0120F8BDD4E90B0101430A43A56A04
:1018F0001A605A6945F0040122F0070211430028DA
:10190000CCD07EB1B6F5005F16D0022D03D9032DE1
:10191000C4D1C201C2D5012340226265184684F8B1
:101920003530F8BD012D03D0F3D3022DB6D1F0E749
:10193000B0F1C07FB2D1EEE7032DAFD801A252F8CB
:1019400025F000BF1719000813190008171900081F
:10195000311900083F8010E0ABAAAAAA605A00081B
:10196000F0B583B00023876D0193C36D3D68654971
:1019700008229A402A4204460E6803D0016808688B
:10198000400759D401229A402A4203D0216849696C
:10199000080674D404229A402A4203D021680968B8
:1019A000890766D410229A402A4203D02168086829
:1019B00000074BD420229A402A4214D0216808689C
:1019C000C00610D5BA6094F83520052A63D00B689C
:1019D00013F4802F0B687ED0190340F18980E36BEC
:1019E0000BB120469847636D23B3636DDA071AD5B0
:1019F0000523226884F835301368434923F0010336
:101A0000A1FB06161360B60A02E01368DB0704D5D3
:101A1000019B0133B3420193F7D90022012384F8DB
:101A2000342084F83530E36C23B1204603B0BDE8A0
:101A3000F040184703B0F0BD086820F004000860CB
:101A4000BA60626D42F0010262659BE7BA600A68A3
:101A500012F4802F0A6818D1D20503D40A6822F044
:101A600008020A60226C002AA4D020469047E36D49
:101A7000A0E7BA60626D42F00402626592E7BA6064
:101A8000626D42F00202626584E71103EAD5A26C3E
:101A9000002AEAD18EE70A68206C22F016020A605A
:101AA0004A6922F080024A6138B30A6822F00802CB
:101AB0000A603F22216D02FA03F300200122BB607D
:101AC00084F8340084F835200029B3D0204603B0D0
:101AD000BDE8F040084713F4807380D10A68012004
:101AE00022F010020A6084F8343084F8350076E77A
:101AF000636C002B7FF475AF75E7A26C002AD4D11C
:101B0000D7E700BF08000020B5814E1B002800F079
:101B100004812DE9F84390F83930044603F0FF02C0
:101B2000002B00F0F58023682669242284F83920F0
:101B3000D86820F40050D4E90225D8601969E0691A
:101B400021F4405129431961D9686569324321F470
:101B500016412A4321F00C0102430A43DA605A6914
:101B6000A16922F440720A43B0F5004F5A61AA4AB3
:101B700071D0934200F0D38002F58062934200F06E
:101B8000CE80FFF7C9FAA54F636800EB800000EB39
:101B900080009B00B0FBF3F3A7FB03235B091D014F
:101BA000FFF7BAFA666800EB800000EB8000B60031
:101BB000B0FBF6F6FFF7B0FA636800EB800000EBCD
:101BC00080009B00B0FBF3F3A7FB03235B094FF0FE
:101BD000640909FB13631B013233A7FB03235B0971
:101BE00003F0F006FFF798FA626800EB800000EB64
:101BF00080009300B0FBF3F8FFF78EFAD4E90021E0
:101C000000EB80008B0000EB8000B0FBF3F3A7FB40
:101C100003135B0909FB13831B013233A7FB031377
:101C2000C3F3431333432B449360136923F490436A
:101C30001361536923F02A035361D36800252021DF
:101C400043F40053D3602846E56384F8391084F8E0
:101C50003A10BDE8F883934200F09F8002F580625D
:101C6000934200F09A80FFF757FA6C4F636800EBDD
:101C7000800000EB80005B00B0FBF3F3A7FB0323C5
:101C80005B091E01FFF748FA656800EB800000EB76
:101C900080006D00B0FBF5F5FFF73EFA636800EBDE
:101CA000800000EB80005B00B0FBF3F3A7FB032395
:101CB0005B094FF0640909FB1353DB003233A7FBC8
:101CC00003231B0903F4F875FFF726FA626800EB9B
:101CD000800000EB80005300B0FBF3F8FFF71CFA24
:101CE000D4E9002100EB80004B0000EB8000B0FB4A
:101CF000F3F3A7FB03135B0909FB1383DB00323308
:101D0000A7FB0313C3F3421333442B4493608CE7C4
:101D100080F8382001F02AF905E701207047FFF725
:101D20000BFA3E4F636800EB800000EB80009B00E5
:101D3000B0FBF3F3A7FB03235B091D01FFF7FCF9DD
:101D4000666800EB800000EB8000B600B0FBF6F6A2
:101D5000FFF7F2F9636800EB800000EB80009B0066
:101D6000B0FBF3F3A7FB03234FF064095B0909FB06
:101D700013631B013233A7FB03235B0903F0F00657
:101D8000FFF7DAF9626800EB8000930000EB800057
:101D9000B0FBF3F8FFF7D0F930E7FFF7CDF91F4FAD
:101DA000636800EB800000EB80005B00B0FBF3F3A6
:101DB000A7FB03235B091E01FFF7BEF9656800EB73
:101DC000800000EB80006D00B0FBF5F5FFF7B4F983
:101DD000636800EB800000EB80005B00B0FBF3F376
:101DE000A7FB03234FF064095B0909FB1353DB00D6
:101DF0003233A7FB03231B0903F4F875FFF79CF9A3
:101E0000626800EB8000530000EB8000B0FBF3F849
:101E1000FFF792F964E700BF001001401F85EB5106
:101E2000F0B50E4690F83910202983B02DD1002E40
:101E30002ED0019262B31F4690F83830012B044631
:101E400023D00023C3630121212380F8381080F8B8
:101E50003930FFF73BFA019AA284E28422680546F2
:101E6000E38C9BB2002B39D0E08CA168013880B2A2
:101E7000B1F5805FE08419D0781C3BD11068010671
:101E8000FCD5337853600136EAE7022003B0F0BD99
:101E9000012003B0F0BD13681B060CD4002F33D013
:101EA000FFF714FA401B874222682DD3781CF2D129
:101EB00010680106FCD533882169C3F30803536019
:101EC0000029E0D10236CBE713685B060BD4DFB103
:101ED000FFF7FCF9401B8742226815D3781CF3D129
:101EE00013685906FCD52023002084F8393084F883
:101EF0003800CBE713681B06C3D42FB1FFF7E6F910
:101F0000401B87422268B7D2D36823F4D073D360D2
:101F10005369202123F0010300250320536184F835
:101F2000391084F8385084F83A1003B0F0BD00BF7F
:101F30002DE9F0410368DD0782B004462FD5AE4994
:101F40008A6802F00C02042A00F0C3808A6802F05A
:101F50000C02082A00F0B9806368B3F5803F00F0F6
:101F6000F980B3F5A02F00F05181A34D2A6822F427
:101F700080322A602A6822F480222A60002B40F0F6
:101F8000EE80FFF7A3F9064605E0FFF79FF9801BF7
:101F9000642800F202812B689B03F6D423689F0714
:101FA00028D5954A916811F00C0F00F0A080916837
:101FB00001F00C01082900F09680E368002B00F086
:101FC00009818E4B8C4D01221A60FFF77FF906467E
:101FD00005E0FFF77BF9801B022800F2DE802B680A
:101FE0009807F6D52B68226923F0F80343EAC20369
:101FF0002B6023681A0715D56369002B00F08280D7
:102000007F4B7D4D01221A60FFF760F9064605E01F
:10201000FFF75CF9801B022800F2BF806B6F9B0703
:10202000F6D52368580730D5734A136C13F08053E4
:1020300078D00026734D2A68D10540F19E80A368B0
:10204000012B00F0AE80052B00F0F0806A4D2A6F66
:1020500022F001022A672A6F22F004022A67002B6D
:1020600040F0A480FFF732F941F28837804606E05D
:10207000FFF72CF9A0EB0800B84200F28E802B6F1E
:102080009807F5D4002E40F0CB80A269CAB15A4D12
:10209000A96801F00C01082930D0022A5A4A4FF0F1
:1020A0000001116000F0CC80FFF710F92C460546C6
:1020B00004E0FFF70BF9401B02286ED823689B0150
:1020C000F7D4002002B0BDE8F0814A6850027FF5E5
:1020D00043AF494A126891037FF561AF6268002AF5
:1020E0007FF45DAF0AE0526856023FF566AF424AA0
:1020F0001268950722D5E268012A1FD0012002B09C
:10210000BDE8F0813E4A3C4D1360FFF7DFF806461C
:1021100004E0FFF7DBF8801B02283ED86B6F9F07B7
:10212000F7D47EE70193136C43F080531364136C70
:1021300003F080530193019B01267BE72E49206920
:102140000A6822F0F80242EAC0020A601A077FF524
:1021500069AF51E7284A136843F480331360FFF7EF
:10216000B5F8254D064604E0FFF7B0F8801B64285B
:1021700013D82B689A03F7D510E72A6842F48072C7
:102180002A60FFF7A3F807462B68DA053FF557AF3B
:10219000FFF79CF8C01B0228F6D9032002B0BDE867
:1021A000F081154A136F43F001031367FFF78EF8B0
:1021B000114D804641F2883705E0FFF787F8A0EB24
:1021C0000800B842E9D82B6F9B07F6D5002E3FF4E4
:1021D0005CAF25E0094A084D1360FFF777F8064623
:1021E00004E0FFF773F8801B0228D6D82B68990704
:1021F000F7D42368FEE600BF0038024000004742E3
:10220000800E47420070004060004742244B1A682D
:1022100042F480221A601A6842F480321A609EE703
:102220001F4A136C23F0805313642EE71C4B1A6F64
:1022300042F004021A671A6F42F001021A67B5E70A
:10224000FFF744F8064604E0FFF740F8801B022839
:10225000A3D82B689901F7D4D4E90732666AE06AFB
:10226000216B1343A26A0E4C43EA861343EA0063D0
:10227000520843EA0173013A0A4943EA0243012240
:102280006B600A60FFF722F8054604E0FFF71EF8CE
:10229000401B022881D823689A01F7D511E700BFB7
:1022A00000380240600047422DE9F04FDFF814C2C9
:1022B000DFF81482D1F800E083B0002503E0013597
:1022C000102D00F094800123AB400EEA0304A342DA
:1022D000F5D14E6826F0100ABAF1020F00F08A809C
:1022E0004FEA45090322D0F800B002FA09F2D243BE
:1022F00006F0030702EA0B0B07FA09F70AF1FF3AA7
:1023000047EA0B07BAF1010F076040F29980C768EE
:102310008B683A4003FA09F31343C360F300CED548
:1023200000230193D8F8443043F48043C8F8443084
:10233000D8F8443025F0030202F1804203F48043D0
:1023400002F59C32019305F00307019BD2F8089037
:10235000BF000F23BB4029EA030A544B98421ED00A
:1023600003F5806398427ED0514B984200F0828002
:10237000504B984200F085804F4B984200F0888087
:102380004E4B984200F08B804D4B98420CBF4FF063
:1023900006094FF0070909FA07F74AEA070AC2F8DF
:1023A00008A0DCF80030E243F70354BF1340234396
:1023B000CCF80030DCF80430B70354BF134023439B
:1023C000CCF80430DCF80830F70254BF1340234344
:1023D000CCF80830DCF80C30B60205F1010554BF2A
:1023E00013402343102DCCF80C307FF46CAF03B0B6
:1023F000BDE8F08F4FEAD50900EB890905F0070722
:10240000D9F82020BF004FF00F0B0BFA07FB22EA90
:102410000B0A0A69BA4042EA0A02C9F820204FEAC8
:1024200045090322D0F800A002FA09F2D24306F0CF
:10243000030702EA0A0A07FA09F747EA0A070760E8
:10244000876807EA020ACF6807FA09F747EA0A0726
:102450008760D0F804A0C6F300172AEA0303AF4050
:102460001F43476053E74FF0010909FA07F74AEAAB
:10247000070A94E74FF0020909FA07F74AEA070A40
:102480008DE74FF0030909FA07F74AEA070A86E7DA
:102490004FF0040909FA07F74AEA070A7FE74FF005
:1024A000050909FA07F74AEA070A78E70000024037
:1024B00000080240000C02400010024000140240DC
:1024C00000180240003C01400038024002B90904F3
:1024D00081617047002800F09180F8B5056C0446D2
:1024E000002D00F08180236CDB0604D50023012041
:1024F00084F83C30F8BD226C4D4923684D4D22F4E0
:10250000885222F0020242F0020222644A6822F457
:1025100040324A604A68606802434A6058682169EC
:10252000A768E66820F4807058605A6842EA012281
:102530005A60586820F0407058605968A06A394362
:102540005960996821F4006199609A68A84242EA4A
:1025500006029A6054D09968E56A21F0706199602A
:102560009A6810439860996821F0405199609A6880
:102570002A439A609968257E94F8200021F0020190
:1025800099609A6842EA45029A605A68002840D1E8
:1025900022F400625A60DA6AE56994F8307066697C
:1025A00022F47002DA62D86A013D40EA0550D8622E
:1025B000986820F400709860996841EA4721996012
:1025C000996821F4806199609A68002042EA862225
:1025D0009A606064236C23F0030343F001032364D7
:1025E000002384F83C30F8BD00F098FA6564236C51
:1025F00084F83C50DB063FF579AF7CE7012070475B
:102600009A6822F070629A609A6822F040529A604A
:10261000B0E742F40062616A5A605A6822F460428C
:102620005A605A68013942EA41325A60B3E700BF42
:10263000002301400100000FF0B490F83C3082B05C
:102640000022012B019200F094800D688A680368D3
:102650000124092DAFB280F83C4029D81C6905EB54
:1026600045064FF0070C0CFA06FC24EA0C041C612A
:102670001C6902FA06F626431E614E68062E06EB1A
:1026800086022AD8596B053A1F24944021EA040196
:102690005963596B07FA02F20A435A633D4A93425F
:1026A0002DD0002380F83C30184602B0F0BC7047B3
:1026B00007EB4706DC681E3E4FF0070C0CFA06FCE1
:1026C00024EA0C04DC60DC6802FA06F62643DE60CD
:1026D0004E68062E06EB8602D4D90C2E31D8A2F114
:1026E00023041F211A6BA14022EA01021A63196B0D
:1026F00007FA04F20A431A63264A9342D1D1122DF3
:102700002DD0254B9D4238D1244A254B5168254C6C
:1027100021F480015160516841F4000151601B684F
:10272000A4FB03239B0C03EB83035B000193019B3E
:10273000002BB6D0019B013B0193019B002BF9D1EB
:10274000AFE7A2F141011F24DA6A8C4022EA0402B9
:10275000DA62DC6A07FA01F22243DA629EE70F4B83
:102760005A6822F400025A605A6842F480025A60A1
:1027700097E7022002B0F0BC7047112D91D1074BB2
:102780005A6822F480025A605A6842F400025A6081
:1027900087E700BF00200140120000100023014025
:1027A0000800002083DE1B4300B583B002A901238B
:1027B00001F8010D1A460348FFF732FB03B05DF83C
:1027C00004FB00BF8803002030B5002395B0CDE99D
:1027D0000A33CDE90833CDE90333CDE905331E498A
:1027E00000930C930293086C1C4A40F080500864DC
:1027F000096C01F08051009100990193116841F436
:102800004041116012680E9302F4404201200224FC
:1028100001920A9010210822642307A8019D0794C1
:102820000D94CDE9114413940B91CDE90F23FFF7DB
:102830007FFB00B1FEE703460F254FF4805202A84C
:102840000321CDE90343069302950592FEF7CAFBE7
:1028500000B1FEE715B030BD003802400070004006
:1028600008B5FEF70DFDFFF7AFFF00F05FF800F0D1
:10287000BFF900F0EBF800F0D5F900F02BFA00F00A
:10288000B1FA00F057FB264B1B680021986801F055
:102890006FF921A3D3E90023224801F051F900F098
:1028A0003BFC40F2174000F045FC6420FEF714FDAD
:1028B00040F62D0000F03EFC4FF4FA70FEF70CFDE0
:1028C00000F046FC0221084600F0E6FB4FF4FA70E7
:1028D000FEF702FD0021084600F0DEFB3220FEF785
:1028E000FBFC0221084600F0D7FB3220FEF7F4FC87
:1028F0000021084600F0D0FB3220FEF7EDFC02215B
:10290000084600F0C9FB4FF4FA70FEF7E5FC002121
:10291000084600F0C1FBFEE79A9999999999B93F49
:102920000C000020685A0008FEE700BF2DE9F043C4
:1029300000248BB0CDE90544CDE907443E4B01941A
:1029400009941A6B3D4FDFF8FC90DFF8FC803C4E99
:1029500042F004021A631A6B02F004020192019A17
:1029600002941A6B42F080021A631A6B02F0800222
:102970000292029A03941A6B42F001021A631A6BD4
:1029800002F001020392039A04941A6B42F00202CD
:102990001A631B6B03F002030493224638464FF47C
:1029A0000051049BFFF792FD384601224FF440414D
:1029B000FFF78CFD012248461146FFF787FD2246AE
:1029C00040464EF20401FFF781FD224630464FF4A7
:1029D0008851FFF77BFD012230464FF46041FFF73D
:1029E00075FD01254FF46043384605A9CDE905354D
:1029F000CDE90744FFF758FC484605A9CDE9055540
:102A0000CDE90744FFF750FC404605A94EF2040308
:102A10000593CDE906540894FFF746FC4FF4714343
:102A200005A93046CDE9065408940593FFF73CFC10
:102A30000BB0BDE8F08300BF003802400008024040
:102A400000040240001C02400000024010B5304B60
:102A5000304A31491A6084B04FF4803205245A60FC
:102A60009962002201211846DC619A6000921A7670
:102A700083F82020DA62DA6083F83020CDE9012281
:102A80000392C3E90411FFF725FD00283DD101237E
:102A9000062269461E480293CDE90023FFF7CCFDCC
:102AA00080BB0722022369461948CDE90023FFF7BE
:102AB000C3FD20BB0822032369461548CDE9002346
:102AC000FFF7BAFDC0B90922042369461048CDE9D1
:102AD0000023FFF7B1FD60B90322052369460C48C6
:102AE000CDE90023FFF7A8FD08B1FFF71DFF04B0F3
:102AF00010BDFFF719FFEFE7FFF716FFE3E7FFF75A
:102B000013FFD7E7FFF710FFCBE7FFF70DFFBEE797
:102B100008020020002001400100000FF0B502680B
:102B20002E4B89B000249A42CDE90344CDE90544F7
:102B3000079401D009B0F0BD03F58C3300945A6CB2
:102B4000274D42F480725A645A6C02F480720092EB
:102B5000009A01941A6B42F001021A631A6B02F098
:102B600001020192019A02941A6B42F002021A6366
:102B70001B6B03F0020302930327C82303A9064635
:102B80001848029A03930497FFF78EFB03A916488F
:102B90000594CDE90377FFF787FB144B2B604FF4C7
:102BA00080604FF400674FF400514FF480724FF48F
:102BB0000033286128466C60C5E902446C62C5E9AF
:102BC0000571C5E90723FEF731FE18B9B563AE6399
:102BD00009B0F0BDFFF7A8FEF8E700BF00200140F4
:102BE0005002002000000240000402401064024035
:102BF00000B583B000220A4B0192196B41F48001A9
:102C000019631B6B03F48003019302213820019B9D
:102C1000FEF7B4FA382003B05DF804EBFEF7E4BA2F
:102C20000038024038B50E4B0E4A1A604FF48275D8
:102C300000224FF400740A2118465D609C61D9623D
:102C4000C3E90222C3E90422C3E90722C3E9092236
:102C5000FEF752F900B938BDBDE83840FFF764BE51
:102C6000B00200200030014070B50168174A88B0FA
:102C700000239142CDE90333CDE90533079301D019
:102C800008B070BD02F584320193516C104841F4D4
:102C900080515164516C01F480510191019902936A
:102CA000136B43F002031363136B03F002030293ED
:102CB0000322052303A938250224029ECDE90354EB
:102CC000CDE90623FFF7F0FA08B070BD00300140EF
:102CD0000004024030B53E4C3E4B236091B01323BC
:102CE0006322636020460023C4E902320293099301
:102CF0002361A3610393CDE90A33CDE90C33CDE918
:102D00000E33FEF77FFB80BB002302A93048CDE9DC
:102D10000233FEF769FD28BB002360251A4609A986
:102D20002B480D93CDE90A330995FEF753FCB0B952
:102D300009A904222648FEF74DFC08B1FFF7F4FD6F
:102D40002268244900238A42CDE90433CDE90633C1
:102D5000089326D020498A420AD011B030BDFFF72F
:102D6000E3FDE5E7FFF7E0FDD6E7FFF7DDFDCBE7A5
:102D70001A4A0193136B1A4843F002031363136B4F
:102D800003F0020301930322022304A94FF4007409
:102D9000019D0693CDE904430892FFF785FA11B02F
:102DA00030BD0E4A0093136B0D4843F002031363CA
:102DB000136B03F002030093C022022304A9009CBA
:102DC0000893CDE90423FFF76FFA11B030BD00BFBF
:102DD000080300200008004000480140003802407D
:102DE0000004024030B5364C364B23608FB00023D0
:102DF0006321312220466160C4E9023207932361D6
:102E0000A361CDE90833CDE90A33CDE90C33FEF7F0
:102E100075FA18BB2A48FEF7F5FAE0B900236025D9
:102E200007A91A4626480B93CDE908330795FEF704
:102E3000D1FB08B1FFF778FD2268234900238A42BD
:102E4000CDE90233CDE90433069323D01D498A42EC
:102E500007D00FB030BDFFF767FDDFE7FFF764FD78
:102E6000D8E71A4A0193136B194843F0020313631E
:102E7000136B03F0020301930322022302A94FF410
:102E80000074019D0493CDE902430692FFF70CFA0A
:102E90000FB030BD0D4A0093136B0D4843F0020391
:102EA0001363136B03F002030093C022022302A9F1
:102EB000009C0693CDE90223FFF7F6F90FB030BD71
:102EC000480300200048014000080040003802404C
:102ED0000004024002680A4B9A4200D0704782B058
:102EE00003F50C33002201921A6C42F004021A64BA
:102EF0001B6C03F004030193019B02B0704700BFF9
:102F00000008004002680A4B9A4200D0704782B025
:102F100003F57043002201925A6C42F480225A64F5
:102F20005B6C03F480230193019B02B0704700BFE8
:102F3000004801400B4B0C4A10B50C211A604FF4AD
:102F4000E134002218465C605961C3E902221A612B
:102F5000C3E90622FEF7DAFD00B910BDBDE8104056
:102F6000FFF7E2BC880300200010014070B5016843
:102F7000194A88B000239142CDE90333CDE90533E6
:102F8000079301D008B070BD02F594320193516CE3
:102F9000124841F010015164516C01F0100101918F
:102FA00001990293136B43F001031363136B03F056
:102FB000010302934FF4C0630322039303A9072381
:102FC00002250124029ECDE90454CDE90623FFF732
:102FD0006BF908B070BD00BF001001400000024056
:102FE000704700BFFEE700BFFEE700BFFEE700BF7F
:102FF000FEE700BF704700BF704700BF704700BFCB
:10300000FEF758B90148FEF7ABBC00BF50020020E4
:1030100082B00C4B002100915A6C42F480425A64F9
:103020005A6C02F480420092009A01911A6C42F0AC
:1030300080521A641B6C03F080530193019B02B011
:10304000704700BF003802401049114BD1F888206A
:1030500042F4700210B4C1F888201A680D4C0020A8
:1030600042F001021A6098601A6822F0847222F419
:1030700080321A605C601A684FF0006422F480228B
:103080001A60D8608C605DF8044B704700ED00E07A
:103090000038024010300024F8B51C4F1C4EC243CB
:1030A0000C46054602F0010238464FF48041FFF716
:1030B0000DFA85F002023846C2F340024FF4004197
:1030C000FFF704FA85F00402C2F3800201211148DF
:1030D000FFF7FCF9E243304602F001024FF40051E1
:1030E000FFF7F4F984F002023046C2F340024FF4D5
:1030F0008041FFF7EBF984F004023046C2F380020E
:103100004FF40041BDE8F840FFF7E0B90008024085
:1031100000040240001C024008B500210448FEF7EC
:10312000F5F900B908BDBDE80840FFF7FDBB00BFD9
:1031300048030020044A054B126893FBF0F0172364
:1031400090625363704700BF4803002040420F0065
:1031500008B500210448FEF703FA00B908BDBDE830
:103160000840FFF7E1BB00BF4803002070B5161E02
:1031700007DD0C468D1914F8010BFFF715FBAC4267
:10318000F9D1304670BD00BF094A13686BB11844CD
:103190006946884202D8106018467047054B0C22D9
:1031A0001A604FF0FF3318467047034B1360EEE789
:1031B000F8010020C8030020D00300204FF0FF30AA
:1031C000704700BF4FF400534B600020704700BFB2
:1031D000012070470020704700207047DFF834D08E
:1031E000002103E00C4B5B58435004310B480C4B5F
:1031F00042189A42F6D30B4A02E0002342F8043BFD
:10320000094B9A42F9D3FFF71FFF00F011F8FFF7BF
:1032100027FB704700000520605D000800000020CB
:10322000DC010020DC010020CC030020FEE70000D0
:1032300070B50D4E0D4CA41BA4100025A54209D15C
:103240000B4E0C4C02F0FEFBA41BA4100025A54263
:1032500005D170BD56F8253098470135EEE756F890
:10326000253098470135F2E7585D0008585D0008A1
:10327000585D00085C5D000802440346934200D19B
:10328000704703F8011BF9E72DE9FF4755EC104B98
:103290000D9FDDF830A0002D0E4691461946B8BFAF
:1032A00022462B4627F02007BBBF05F100431D46F1
:1032B00000232D23B8BF1446462F0B7004D0452F92
:1032C00000D10136022100E0032103AB019302ABE0
:1032D00000933246534645EC104B00F08DFD472FCE
:1032E000804602D119F0010F26D0462F08EB0609BF
:1032F00011D198F80030302B0AD10022002320464B
:103300002946FDF709FC18B9C6F10106CAF80060A4
:10331000DAF8003099440022002320462946FDF7C0
:10332000FBFB38B93022039B4B4505D2591C039156
:103330001A70F8E7CDF80C90039B0E9AA3EB0803E4
:103340004046136004B0BDE8F087F7B50029044695
:10335000BABF49422D232B23092904F8022B4370BD
:1033600020DD0DF107031F460A2691FBF6F506FB4B
:1033700015113031092D03F8011C03F1FF322946E4
:1033800009DC3031023B02F8011CBB42224604D367
:10339000101A03B0F0BD1346E7E713F8012B04F849
:1033A000012BF2E7302319448370021DC170EFE74F
:1033B0002DE9F04F8DB00C46DDF8588016461F46BB
:1033C000054601F04BFC036804931846FCF728FF00
:1033D00000230A93D8F800300590073323F0070341
:1033E00003F1080294F818A0D4F800B0C8F800203F
:1033F000D3E90023C4E91223D4E9128929F0004358
:103400000793CDF818804FF0FF32A74BDDE9060196
:10341000FDF7B4FB70BB4FF0FF32A34BDDE90601B3
:10342000FDF78EFB30BB0022002340464946FDF7E6
:103430007DFB10B12D2384F843309C4A9C4BBAF19C
:10344000470F8CBF9046984603232BF0040223615C
:1034500022604FF00009009733460BAA2146284608
:1034600000F0E6F9013040F08D804FF0FF300DB0F4
:10347000BDE8F08F42464B4640464946FDF77EFB8D
:1034800010B18C4A8C4BDAE761684B1C4BF48062BC
:103490000AA83ED1062363600023CDE9020309ABED
:1034A000009349EC108B0DF123032260CDF804A0AA
:1034B00061682846FFF7E8FE0AF0DF03472B8046E5
:1034C00009D1099BD81C02DB6268934247DDAAF14F
:1034D000020A5FFA8AFABAF1650F099924D801390C
:1034E000524604F150000991FFF72FFF0A9A131872
:1034F000012A8146236102DC2268D10701D501330C
:1035000023619DF82330002BA5D02D2384F8433070
:10351000A1E7BAF1670F00F07781BAF1470FBBD18D
:103520000029B9D10123B6E7BAF1660F19D10029F4
:1035300063680CDD216113B92268D20702D501331B
:103540000B442361099BA3654FF00009D9E713B928
:103550002268D00701D50233F3E70123F1E74FF0EA
:10356000670ADDE90932934205DB22682361D1074E
:10357000E8D50133E5E7002BD4BFC3F102030123F3
:103580001344DEE723685A0507D4236942463146CF
:103590002846B84701302BD167E7BAF1650F40F2F2
:1035A000DC8000220023D4E91201FDF7B5FA0028DF
:1035B00033D00123414A31462846B84701303FF411
:1035C00054AFDDE909239A4202DB2368D8070FD5FF
:1035D000DDE9042331462846B84701303FF445AFC2
:1035E0004FF0000804F11A090A9B013B434509DC2E
:1035F00023689B0700F10381E0680B9B9842B8BFEA
:10360000184634E701234A4631462846B847013078
:103610003FF42BAF08F10108E6E7099B002B2BDCF8
:103620000123264A31462846B84701303FF41DAFF2
:10363000099B23B90A9B13B92368D907D8D5DDE9BB
:10364000042331462846B84701303FF40EAF4FF00F
:10365000000904F11A0A099B5B424B4501DC0A9BF5
:1036600094E70123524631462846B84701303FF4DB
:10367000FCAE09F10109EEE70A9AA36D9A42A8BFD0
:103680001A46002A914607DD13463146424628462F
:10369000B84701303FF4E9AE04F11A034FF0000BD4
:1036A00029EAE979069315E0FFFFEF7F945A0008B5
:1036B000905A00089C5A0008985A0008A05A00081E
:1036C0000123069A31462846B84701303FF4CDAE73
:1036D0000BF1010BD4F858A0AAEB09035B45EFDC12
:1036E000DDE909239A42D04415DB2368DA0712D4B6
:1036F0000A9B0999A3EB0A02A3EB010A9245A8BF12
:103700009246BAF1000F0EDC4FF000082AEAEA7A7E
:1037100004F11A0919E0DDE9042331462846B847C7
:103720000130E5D1A1E65346424631462846B84726
:103730000130E9D199E601234A4631462846B84787
:1037400001303FF492AE08F10108DDE909239B1A2C
:10375000A3EB0A034345EEDC4AE70A9A012A01DC9F
:10376000DB073AD50123424631462846B8470130A7
:103770003FF47BAEDDE9042331462846B8470130EB
:1037800008F101083FF471AE0A9B002203F1FF3AF1
:10379000D4E912010023FDF7BFF9C8B953464246E8
:1037A00031462846B84701300ED15EE60123524625
:1037B00031462846B84701303FF457AE08F10108BA
:1037C0000A9B013B4345F1DC4B4604F15002DEE627
:1037D0004FF0000804F11A0AF2E70123DFE70123A2
:1037E0004A4631462846B84701303FF43EAE08F11C
:1037F0000108E3680B9A9B1A4345F0DCFCE64FF0A6
:10380000000804F11909F4E700293FF48BAE002306
:10381000CDE9020309AB009349EC108B2260CDF88F
:1038200004A00DF123032846FFF72EFD804648E64D
:103830002DE9F04791461F468A680B69DDF8208024
:103840009342B8BF1346C9F8003091F843200646AA
:103850000C4612B10133C9F800302368990642BF03
:10386000D9F800300233C9F80030256815F0060594
:1038700007D104F1190AE368D9F800209B1AAB427A
:1038800028DC94F843302268003318BF01239206E5
:103890002DD404F1430239463046C047013020D0D0
:1038A0002368E568D9F8002003F00603042B08BF5D
:1038B000AD1AA36822690CBF25EAE575002593427D
:1038C000C4BF9B1AED184FF000091A344D451AD1A8
:1038D000002008E00123524639463046C0470130F7
:1038E00003D14FF0FF30BDE8F0870135C3E7E118A1
:1038F0005A1C302081F84300224494F8451082F885
:1039000043100233C5E70123224639463046C047FB
:103910000130E6D009F10109D8E700002DE9F043B4
:1039200001F1430C0C46097E85B06E291746064608
:1039300098460C9A00F0B38022D8632936D00AD872
:10394000002900F0B980582900F0838004F1420575
:1039500084F8421032E0642901D06929F6D1206848
:103960001368050603F104012AD51B681160002BBA
:1039700003DA2D225B4284F843206F480A2239E0A3
:10398000732900F09D8008D86F2920D07029DDD1DF
:10399000236843F02003236003E0752917D07829BA
:1039A000D4D1782384F84530644855E01368191D54
:1039B0001B68116004F1420584F8423001238CE059
:1039C0001B68116010F0400F18BF1BB2CFE71368DF
:1039D0002568181D1060280601D51B6802E06806DE
:1039E000FBD51B8854486F2914BF0A2208220021E6
:1039F00084F843106568A560002DC0F295802168A9
:103A000021F004012160002B3DD1002D40F08E807B
:103A10006546082A0BD12368DB0708D5236962684D
:103A20009A42DEBF302305F8013C05F1FF35ACEBCF
:103A300005032361CDF800803B4603AA21463046AA
:103A4000FFF7F6FE01304DD14FF0FF3005B0BDE875
:103A5000F083394884F84510136821681D1D1B68E0
:103A600015600A060BD5CA0744BF41F0200121604A
:103A70001BB9226822F0200222601022B7E74D060F
:103A800048BF9BB2EFE76546B3FBF2F102FB11338F
:103A9000C35C05F8013D0B460029F5D1B9E7136871
:103AA00025686169181D106028061B6801D519601A
:103AB00002E06A06FBD51980002323616546B9E759
:103AC0001368191D11601D68626800212846FCF703
:103AD000AFFB08B1401B606063682361002384F87A
:103AE0004330A7E723692A4639463046C0470130AC
:103AF000AAD023689B0713D4E068039B9842B8BF01
:103B00001846A3E701234A4639463046C0470130EC
:103B10009AD00135E368039A9B1AAB42F2DCEBE7DB
:103B2000002504F11909F5E7002BACD1037884F8DE
:103B3000423004F142056CE7A25A0008B35A00086B
:103B40000FB40A4B13B51C6824B1A36913B92046FE
:103B500000F0FAFF05AB049AA1680193204601F03A
:103B6000BDFC02B0BDE8104004B070470C0000205E
:103B700000294FF480630CBF0222002200F000B83D
:103B80002DE9F7431D46514B1E6804460F469046EB
:103B900026B1B36913B9304600F0D6FF4C4B9C42B6
:103BA00052D17468B8F1020F06D0B8F1010F00F2DB
:103BB0008980002DC0F286802146304600F05AFFF1
:103BC000616B41B104F14403994202D0304601F0E7
:103BD000B3FB002363630023A3616360A3891B0617
:103BE00003D52169304601F0A7FBA38923F44A637A
:103BF00023F00303B8F1020FA3815DD001AB6A4645
:103C00002146304601F038F8A3891843A0812DBB26
:103C1000009D284601F094F8074600284ED1DDF8B3
:103C20000090A9453CD14FF0FF30A38943F0020337
:103C3000A3810023A36004F14703236023610123D0
:103C4000636103B0BDE8F083224B9C4201D1B468AC
:103C5000A8E7214B9C4208BFF468A3E7002FD8D007
:103C6000B36913B9304600F06FFFB8F1010F08BF18
:103C7000A389276004BF43F00103A381A38913F044
:103C80000800C4E904751BD013F0010018BF6D4291
:103C90004FF000031DBFA360A5611846A560D0E7E3
:103CA000484601F04DF807460028BCD0A38943F0F0
:103CB0008003A3814D46D3E70020B6E7A946F5E788
:103CC000A060BEE74FF0FF30BBE700BF0C00002054
:103CD000F45A0008145B0008D45A00082DE9F74F85
:103CE00003690C69A3428046C0F28280013C01F165
:103CF00014074FEA840C00F1140657F8245056F8C4
:103D0000240006EB0C03013507EB0C090193B0FB13
:103D1000F5F595B34FF0000A3846B646D34650F84D
:103D2000042B93B205FB03A34FEA134A9BB2ABEB00
:103D30000303120CDEF800B005FB02A213FA8BF3AA
:103D40004FEA124A1FFA82FBDEF80020CBEB124248
:103D500002EB23429BB243EA024381454FEA224BE6
:103D60004EF8043BDBD256F80C3033B9019B043BD0
:103D70009E421A4630D3C8F81040404601F008FA77
:103D8000002825DB013530464FF0000C57F8042B96
:103D9000D0F800E093B2ACEB0303120C13FA8EF3ED
:103DA000C2EB1E4202EB23429BB243EA0243B945F7
:103DB0004FEA224C40F8043BE8D256F8242006EBA8
:103DC00084032AB9043B9E421A460BD3C8F810401C
:103DD000284603B0BDE8F08F1268043B002ACAD120
:103DE000013CC5E71268043B002AEFD1013CEAE739
:103DF0000020EEE7000000002DE9F04F57EC106BBB
:103E000097B0456A069104460B921293DDF88080C4
:103E1000CDE900673DB9102000F092FF6062C0E973
:103E200001550560C560636A196851B15A684A60F6
:103E3000012393408B60204600F0C9FF636A002293
:103E40001A603B1EBBBF23F00043019300230122F5
:103E5000ACBFC8F80030C8F80020AF4BDDF80480D4
:103E600033EA080314D1129A42F20F731360009BD5
:103E700023B9C8F31300002800F04285219BDFF826
:103E8000ACB2002B00F044850BF1030300F03EBD03
:103E9000DDE900670022002330463946FCF73CFE8E
:103EA000814668B1129A01231360219B002B00F018
:103EB00024859A4B219A03F1FF3B136000F028BD43
:103EC00014AA15A947EC106B204601F0D8F9C8F3E5
:103ED0000A550490002D7CD0C7F3130343F07F5B99
:103EE000B2464BF4401BA5F2FF35CDF84C900022B2
:103EF0008B4B50465946FCF7EFF981A3D3E90023D9
:103F0000FCF7A2FB80A3D3E90023FCF7E7F9064600
:103F100028460F46FCF72EFB7DA3D3E90023FCF7D0
:103F200093FB02460B4630463946FCF7D7F9064666
:103F30000F46FCF739FE0022824600233046394600
:103F4000FCF7F4FD48B15046FCF714FB32463B4603
:103F5000FCF7E2FD08B90AF1FF3ABAF1160F59D899
:103F6000704901EBCA01DDE90023D1E90001FCF74A
:103F7000FBFD002850D00AF1FF3A00230F93149B59
:103F80005D1BB5F1010849BFC5F10103002305938D
:103F90004FF0000858BF0593BAF1000F3EDB002335
:103FA000D044CDF838A00793069B092B00F29080EF
:103FB000052BC4BF043B0693069BA3F10203CCBFB1
:103FC00000250125032B00F28F80DFE803F07D7FC1
:103FD0003171DDE914531D4405F23240202813DD10
:103FE000C0F14000009B08FA00F805F2124023FAE5
:103FF00000F048EA0000FCF7ADFA01238246A1F187
:10400000F87B013D139372E7009BC0F1200003FA97
:1040100000F0F0E70123B1E70F90B0E7059BA3EBB9
:104020000A030593CAF10003079300230E93BBE72D
:1040300001230A930B9B002B59DD02939946666A74
:1040400000227260042202F114009842716853D970
:10405000204600F088FE636A3060B9F10E0FD3F895
:1040600000B000F2E680002D00F0E3809DED007BC3
:10407000BAF1000F8DED107B74DD2A4A0AF00F03B0
:1040800002EBC30393ED007B4FEA2A16F0068DED99
:10409000087B65D5244BDDE91001D3E90823FCF743
:1040A000FDFBCDE9000106F00F0603251E4F4CE095
:1040B00001230A930B9B534403F1010902934B46DE
:1040C000012BB8BF0123BAE70023B2E70023F0E7D2
:1040D0000125002306930A954FF0FF33029399467A
:1040E000002212230B92AAE701230A93F4E701238B
:1040F000029399461A46F5E7013171605200A2E732
:1041000061436F63A787D23FB3C8608B288AC63FDD
:10411000FB799F501344D33F0000F07FA15A000861
:104120000000F83F605B0008385B0008CD5A0008CB
:10413000F10708D5DDE90801D7E90023FCF784FA87
:10414000CDE90801013576100837002EF0D1DDE900
:104150000823DDE90001FCF7A1FBCDE900011AE02D
:104160000225A3E700F0A080CAF100069F4BA04FF4
:1041700006F00F0203EBC203D3E90023DDE91001CF
:10418000FCF762FACDE90001361100230225002E6A
:104190007FD1002BE1D10F9B002B00F08780DDE960
:1041A00000670022934B30463946FCF7BFFC0028DD
:1041B0007CD0B9F1000F79D0029B002B35DD0AF1DC
:1041C000FF330893394600228B4B3046FCF73CFA0C
:1041D000CDE90001029F01352846FCF7CBF9DDE966
:1041E0000023FCF731FA0022844BFCF777F80546F0
:1041F000A1F15076002F5DD10022814BDDE9000155
:10420000FCF76AF82A463346CDE90001FCF7ACFC1E
:10421000002840F088822A4606F10043DDE90001CB
:10422000FCF784FC002840F07C82DDE91023CDE916
:104230000023159B002BC0F25081BAF10E0F00F342
:104240004C816A4B03EBCA0393ED007B0B9B002B65
:104250008DED027B80F2D880B9F1000F00F3D4809D
:1042600040F05E820022664B51EC170BFCF7ECF934
:10427000DDE90023FCF76EFC4F464E46002840F077
:10428000348231230BF101058BF800300AF1010A69
:104290002FE2F20705D5D7E90023FCF7D5F9013560
:1042A00001237610083772E7022574E7CDF820A0C5
:1042B0004F4691E74D4B03EBC70353E902010A9BBD
:1042C000002B47D002460B4600204E49FCF7E6FA89
:1042D0002A463346FCF700F8CDE90C015D46DDE9DE
:1042E0000001FCF761FC0646FCF744F902460B4668
:1042F000DDE90001FBF7F0FF303605F8016BDDE981
:104300000C23CDE90001FCF711FC002863D1DDE9A5
:10431000002300203749FBF7DFFFDDE90C23FCF722
:1043200005FC002840F0B780A5EB0B039F427FF708
:104330007CAF0022304BDDE90C01FCF785F900224F
:10434000CDE90C012C4BDDE90001FCF77DF9CDE94D
:104350000001C4E72A463346FCF776F9CDE90C01A3
:104360000BEB07055E46DDE90001FCF71DFC074687
:10437000FCF700F9303702460B46DDE90001FBF798
:10438000ABFF06F8017BAE42CDE900014FF0000221
:1043900026D11C4BDDE90C01FBF7A0FF02460B46C2
:1043A000DDE90001FCF7E0FB002874D1DDE90C2316
:1043B00000201449FBF790FF02460B46DDE900019F
:1043C000FCF7B4FB00283FF430AF15F8013C302B6C
:1043D00005F1FF3202D0DDF820A04AE01546F4E7EF
:1043E000054BFCF731F9CDE90001BCE7605B000843
:1043F000385B00080000F03F0000244000001C4033
:10440000000014400000E03FDDE900675D46DDE9A3
:10441000022330463946FCF741FAFCF7C5FB8046DB
:10442000FCF7A8F8DDE90223FCF70EF902460B467B
:104430003046394608F13006FBF74EFF05F8016BB0
:10444000A5EB0B06B14502460B4639D1FBF746FFFB
:10445000DDE9022306460F46FCF786FBC8B9DDE915
:10446000022330463946FCF757FB10B118F0010F14
:104470000FD10499204600F0AAFC0023129A2B7059
:104480000AF101031360219B002B00F041821D60A3
:104490003EE2CDF820A015F8012C392A05F1FF33B2
:1044A00008D19B450AD1089B0133089330238BF830
:1044B00000305B461A7801321A708CE71D46EAE735
:1044C00000229B4BFCF7C0F80022002306460F4653
:1044D000FCF722FB00289AD0CBE70A9A002A00F0CA
:1044E0008B80069A012A6EDC139A002A67D003F2A9
:1044F0003343079F059D059A01211A4420460592E2
:10450000984400F004FD0646002D0CDDB8F1000FC4
:1045100009DD4545059A2B46A8BF4346D21A0592A8
:10452000ED1AA8EB0308079BEBB10A9B002B67D0A1
:104530008FB131463A46204600F088FD049A014684
:104540000646204600F0ECFC04990890204600F056
:104550003EFC089B0493079BDA1B04D00499204679
:1045600000F074FD04900121204600F0D0FC0E9B69
:104570000746002B00F0D0811A460146204600F085
:1045800065FD069B012B074640DC009B002B39D1C3
:10459000019BC3F31303002B36D1019B23F000438F
:1045A0001B0D1B052BB1059B0133059308F1010879
:1045B000012307930E9B002B2AD1012030E0149B8E
:1045C000C3F1360395E7079B09F1FF37BB42BFBF35
:1045D000079B0797FA1A0E9BBBBF9B180E93DF1B16
:1045E0000027B9F1000FB5BF059B059DA3EB090599
:1045F0004B46B8BF00237EE7079F059D0A9E83E7D1
:10460000079AABE70023D4E7009BD2E70023079388
:104610003B6907EB8303186900F02BFCC0F1200015
:10462000404410F01F0047D0C0F12003042B3BDDB5
:10463000059BC0F11C000344059305448044059B81
:10464000002B05DD1A460499204600F04DFD04902C
:10465000B8F1000F05DD39464246204600F044FD22
:1046600007460F9B53B33946049800F091FD00288C
:1046700024DA00230A220499204600F0BFFB0A9B9B
:1046800004900AF1FF3A002B00F04D8100233146DF
:104690000A22204600F0B2FB029B002B06464FDCAC
:1046A000069B022B4CDD11E0C9D0059A1C331A443D
:1046B00005921D449844C2E70346F6E7B9F1000F9E
:1046C00038DC069B022B35DDCDF80890029B63B9E0
:1046D00039460522204600F091FB01460746049822
:1046E00000F056FD00283FF7CCAD0B9B5D466FEA0E
:1046F000030A4FF000093946204600F068FB002EFF
:104700003FF4B7AEB9F1000F05D0B14503D049462B
:10471000204600F05CFB3146204600F058FBA8E63E
:1047200000273E46E1E7DDF820A03E46A9E500BFB0
:10473000000024400A9BCDF80890002B00F0FA807E
:10474000002D05DD31462A46204600F0CDFC064608
:10475000079B002B4CD07168204600F004FB3269A7
:1047600002320546920006F10C010C3000F0F0FA1E
:1047700001222946204600F0B7FC009BCDF814B07A
:1047800003F00103B1460793064639460498FFF744
:10479000A5FA4946054600F13008049800F0F8FCF7
:1047A000324600903946204600F00CFDC3680246B0
:1047B00003BB01460890049800F0EAFC089A0346FF
:1047C00011462046089300F002FB089BA3B9069A05
:1047D00092B9079A82B9B8F1390F29D0009B002B02
:1047E00001DD05F13108059B5D1C83F8008082E73F
:1047F0003046C2E70123E3E7009A002A04DB25D113
:10480000069A1ABB079A0ABB002BECDD0122049919
:10481000204600F069FC3946049000F0B9FC0028FD
:1048200003DCE0D118F0010FDDD0B8F1390FD8D199
:10483000059B059A5D1C3923137015F8013C392B33
:1048400005F1FF324FD00133137054E7059A002B66
:1048500002F1010506DDB8F1390FE9D008F10108D0
:10486000059BC2E7029A05F8018CA5EB0B03934266
:1048700021D000230A220499204600F0BFFAB14556
:1048800004904FF000034FF00A024946204605D13C
:1048900000F0B4FA81460646059576E700F0AEFAD8
:1048A0003146814600230A22204600F0A7FA064638
:1048B000F2E74FF0000901220499204600F014FCB1
:1048C0003946049000F064FC0028B6DC02D118F0F0
:1048D000010FB2D115F8013C302B05F1FF327FF406
:1048E0000AAF1546F6E7934505D131230AF1010ACF
:1048F0008BF80030FFE615469FE7DFF864B007E06D
:10490000219BDFF860B01BB10BF10803219A136003
:10491000584617B0BDE8F08F069B012B7FF735AEE8
:104920000E9B079349E6029B002B03DC069B022BA0
:104930003FF7CCAE5D4639460498FFF7CFF900F15A
:10494000300805F8018B029AA5EB0B039A42B0DD03
:1049500000230A220499204600F050FA0490EAE766
:10496000A05A0008C45A00088A892DE9F04105467A
:1049700010070C4658D44B68002B05DC0B6C002B41
:1049800002DC0020BDE8F081E66A002EF9D00023A9
:1049900012F480522F68216A2B6032D0606DA38997
:1049A0005A0705D56368C01A636B0BB1236CC01A34
:1049B00000230246E66A216A2846B047431CA389C1
:1049C00006D129681D2948D8294ACA40D60744D5A6
:1049D00000226260D9042269226004D5421C01D100
:1049E0002B6803B96065616B2F600029C9D004F1A1
:1049F0004403994202D0284600F09EFC00206063E8
:104A0000C0E701232846B047411CC8D12B68002BC2
:104A1000C5D01D2B01D0162B01D12F60B1E7A38982
:104A200043F04003A381ADE70F69002FA9D093079E
:104A30000E6808BF4B690F6018BF0023A6EB07087C
:104A40008B60B8F1000F9CDD43463A46216AA66AA6
:104A50002846B047002806DCA38943F04003A38121
:104A60004FF0FF308EE70744A8EB0008E9E700BFEE
:104A70000100402038B50B6905460C46DBB118B182
:104A800083690BB900F060F80C4B9C4209D16C684B
:104A9000B4F90C307BB121462846BDE83840FFF719
:104AA00063BF074B9C4201D1AC68F1E7054B9C42C8
:104AB00008BFEC68ECE7002038BD00BFF45A0008DE
:104AC000145B0008D45A0008002310B50446C0E95E
:104AD0000033836081814366C281C0E9043383610E
:104AE000194608225C30FEF7C7FB054B6362054B95
:104AF000A362054BE362054B2462236310BD00BF34
:104B0000295700084B57000883570008A75700088B
:104B1000014900F085B800BF754A000870B54A1E0B
:104B2000682555430E4605F1740100F053FC044618
:104B300040B10021C0E900160C30A06005F1680208
:104B4000FEF79AFB204670BD836910B5044633BB5F
:104B5000C0E912330365124B124A1B688262984205
:104B600004BF0123836100F01FF86060204600F05D
:104B70001BF8A060204600F017F80022E060042136
:104B80006068FFF7A1FF01220921A068FFF79CFFE1
:104B900002221221E068FFF797FF0123A36110BDF5
:104BA0008C5A0008114B0008F8B51B4B1E68B369FE
:104BB000074613B93046FFF7C7FF4836D6E9013438
:104BC000013B03D5336833B13668F7E7B4F90C50CD
:104BD0006DB16834F4E704213846FFF79FFF306079
:104BE0000028F1D10C233B6004462046F8BD0B4B56
:104BF0006566C4E90055A560C4E90335C4E90555F7
:104C00000822294604F15C00FEF736FBC4E90D5585
:104C1000C4E91255E9E700BF8C5A00080100FFFF04
:104C20002DE9F8438046894600F14804002614B96E
:104C30003046BDE8F883D4E90175013F01D5246809
:104C4000F5E7AB89012B07D9B5F90E30013303D055
:104C500029464046C84706436835EEE7044B1B68C3
:104C6000186A044B002808BF1846F030704700BF90
:104C70000C0000207000002070B50E46B1F90E1037
:104C8000002996B014461D4607DA00232B60B3892D
:104C90001A0610D44FF480630EE06A4600F06AFEF4
:104CA0000028F2DB019A02F47042A2F500535A4246
:104CB0005A412A60EEE740230020236016B070BD01
:104CC0008B8973B59D0706460C4607D504F147034B
:104CD000236023610123636102B070BD01AB6A46AA
:104CE000FFF7CAFF00990546304600F073FB48B94C
:104CF000B4F90C309A05EFD423F0030343F0020318
:104D0000A381E3E70D4BB362A389206043F08003E6
:104D1000A381009B6361019B20615BB1B4F90E101C
:104D2000304600F039FE28B1A38923F0030343F095
:104D30000103A381A3891D43A581CDE7114B000881
:104D4000024B0146186800F045BB00BF0C00002074
:104D500010B5431E0A44914200D110BD11F8014B19
:104D600003F8014FF7E770B5456A04460E463DB9B2
:104D70001020FFF7E5FF6062C0E901550560C560DE
:104D8000656AEB6883B1636ADB6853F82600B8B9DB
:104D9000012101FA06F56A1D9200204600F0BEFAD4
:104DA00060B1C0E901650EE021220421204600F037
:104DB000B5FA636AE860DB68002BE4D1002070BDBF
:104DC000026843F826200023C0E90333F7E770B5F3
:104DD000446A06460D463CB91020FFF7B1FF7062E9
:104DE000C0E901440460C4603DB1736A6A68DB686D
:104DF00053F82210296043F8225070BD2DE9F0418C
:104E00000D691F4606460C4601F1140C0023DCF820
:104E1000000081B202FB01710F0C000C02FB00705C
:104E200089B2013301EB00419D424FEA10474CF833
:104E3000041BECDCD7B1A368AB4212DC61683046DE
:104E40000131FFF790FF2269023204F10C01804624
:104E500092000C30FFF77CFF21463046FFF7B7FF8A
:104E6000444604EB850301355F6125612046BDE8BA
:104E7000F081020C12040346B2B90304102013F0AF
:104E80007F4F04BF1B02083013F0704F04BF1B019B
:104E9000043013F0404F04BF9B000230002B06DBB0
:104EA0005B0003D5013070470020E8E72020704701
:104EB000036813F0070201460BD0DA0723D49807E2
:104EC00049BF5B089B0801200B605CBF0B600220A0
:104ED000704798B2A8B91B0C102013F0FF0F04BF45
:104EE0001B0A08301A0704BF1B0904309A0704BFC5
:104EF0009B080230DA0702D45B0806D001300B6051
:104F000070471046E9E7002070472020704710B531
:104F10000C460121FFF727FF01224461026110BD09
:104F20002DE9F74F14460A6923699A42B8BF0B4628
:104F30008846BCBFA0461C46D8F81070D4F8109024
:104F4000D8F80830D8F8041007EB0906B342B8BF08
:104F50000131FFF708FF00F1140505EB860E2B4623
:104F60000022734516D304F1140208F1140102EB78
:104F7000890301EB87070093009B019293420CD8B1
:104F8000002E03DD5EF8043D002B5DD0066103B00A
:104F9000BDE8F08F43F8042BE3E7B2F800B0BBF1B3
:104FA000000F23D08946AC464FF0000859F8044B57
:104FB000DCF800A0A3B21FFA8AFA0BFB03A34FEAA6
:104FC000144ADCF8004043444FEA14480BFB0A84BF
:104FD00004EB1344E2469BB243EA04434F454FEAD5
:104FE00014484AF8043B2BD8CCF80480019BB3F852
:104FF00002A00432BAF1000F20D02B688946A846DF
:105000004FF0000BB9F800C0B8F802400AFB0C449E
:105010005C44C4469BB243EA04434CF8043B59F851
:10502000043BB8F804B01B0C0AFB03B303EB1443B6
:105030004F454FEA134B05D8C8F8043004359BE7B9
:10504000D446B3E7E046DDE7013E99E72DE9F843B2
:10505000154612F0030206460F4607D0013A214CCE
:10506000002354F82220FFF7C9FE0746AD1035D0C3
:10507000746A3CB91020FFF763FE7062C0E9014416
:105080000460C460D6F82480D8F808404CB940F2D7
:1050900071213046FFF73BFF0023C8F808000446A3
:1050A00003604FF00008EB070AD539462246304628
:1050B000FFF736FF394681463046FFF788FE4F46F8
:1050C0006D100BD0206838B9224621463046FFF7D4
:1050D00027FF2060C0F800800446E4E73846BDE8BA
:1050E000F88300BF285C00082DE9F0470C464FEA22
:1050F000621A236949680AEB0309A3680746164642
:1051000009F10105AB4232DB3846FFF72CFE0023E4
:10511000804600F114011A4653452BDB20692AEA28
:10512000EA7A04F1140316F01F0201EB8A0103EB83
:10513000800C25D0C2F1200E00201E688A469640C1
:1051400030434AF8040B53F8040B9C4520FA0EF048
:1051500014D8486008B109F10205013D3846C8F885
:1051600010502146FFF733FE4046BDE8F08701317D
:105170005B00C7E741F823200133CDE75146DCE768
:10518000043953F8042B41F8042F9C45F9D8E4E77F
:1051900003690A699B1A30B50CD19200143014319E
:1051A0008418114454F8045D51F8042D954203D03D
:1051B00005D30123184630BDA042F3D3FAE74FF0E0
:1051C000FF33F7E72DE9F0470D460746114628461D
:1051D0001446FFF7DDFF061E08D131463846FFF7BB
:1051E000C2FD0123C0E90436BDE8F087A4BF234611
:1051F0002C4638466168A6BF1D4600260126FFF7EB
:10520000B2FD2B69C660266905F1140904F1140288
:1052100002EB860709EB830800F114054FF0000E3E
:1052200052F804AB59F8044B1EFA8AF1A3B2C91A1A
:10523000230CC3EB1A4303EB214389B24FEA234EFD
:10524000C84541EA0343944645F8043BE8D8BC45C9
:1052500004D355F8043D83B10661C5E75CF8041B2F
:105260001EFA81F31A1402EB11429BB243EA024385
:105270004FEA224E45F8043BE9E7013EE9E72DE914
:10528000F7430E46012159EC108B1546FFF76BFDD5
:10529000C9F30A540746C9F3130334BB0193B8F1A9
:1052A000000327D002A840F8083DFFF701FE00994F
:1052B000F0B1019AC0F1200302FA03F30B43C2409C
:1052C0007B610192019BBB61002B14BF0221012174
:1052D0003961C4B1A4F2334404443460C0F13500F0
:1052E0002860384603B0BDE8F08343F48013D5E767
:1052F0007961E7E701A8FFF7DBFD019B7B610121F5
:1053000039612030E5E707EB8103A0F232403060DD
:105310001869FFF7AEFDC0EB4110E1E738B502FBBD
:1053200001F4214600F056F8054618B12246002146
:10533000FDF7A2FF284638BD38B50546002945D0FF
:1053400051F8043C0C1F002BB8BFE41800F058FBC8
:105350001F4A1368104633B9636014602846BDE8DD
:10536000384000F04EBBA3420CD92168621893422A
:1053700004BF1A685B68636004BF5218226004604F
:10538000ECE713465A680AB1A242FAD919685818CC
:10539000A0420BD120680144581882421960DDD127
:1053A000106852685A6001441960D7E702D90C238B
:1053B0002B60D3E7206821188A4204BF1168526825
:1053C000626004BF091821605C60C7E738BD00BF98
:1053D000FC01002070B5CD1C25F0030508350C2D0F
:1053E00038BF0C25002D064601DBA94203D90C234A
:1053F0003360002070BD00F003FB214A1468214691
:1054000091B9204C23681BB9304600F07DF920602B
:105410002946304600F078F9431C24D10C23336030
:10542000304600F0EEFAE4E70B685B1B18D40B2B58
:105430000FD90B60CD50CC18304600F0E2FA04F1E1
:105440000B00231D20F00700C31AD3D05A42E250AC
:10545000D0E78C424B6816BF636013600C46EBE7E5
:105460000C464968CCE7C41C24F00304A04205D0D4
:10547000211A304600F048F90130CFD02560DBE733
:10548000FC010020000200209368013B002B10B4B7
:10549000936008DA9469A34201DB0A2903D15DF81D
:1054A000044B00F085B91368581C10601970084649
:1054B0005DF8044B7047F8B506460F461446D518FC
:1054C000AC4201D1002007E03A4614F8011B3046F7
:1054D000FFF7DAFF431CF3D1F8BD00002DE9F04FD0
:1054E0000C469DB017461D46064618B183690BB998
:1054F000FFF72AFB7C4B9C4258D17468A38918079C
:105500005ED52369002B5BD00023099320238DF8FF
:10551000293030238DF82A3003954FF0010BB8461F
:10552000454615F8013B0BB1252B54D1B8EB070AC2
:105530000BD053463A4621463046FFF7BCFF0130B8
:1055400000F0C280099B5344099398F80030002B67
:1055500000F0BA8000234FF0FF32CDE90523049319
:1055600007938DF853301A93A846052218F8011BAB
:105570005E48FAF75DFE049B78BBD90644BF202243
:105580008DF853201A0744BF2B228DF853202A7818
:105590002A2A2AD0079AA84600200A25414611F84F
:1055A000013B303B092B69D960B324E0504B9C424E
:1055B00001D1B468A2E74F4B9C4208BFF4689DE755
:1055C0002146304600F058F900289DD04FF0FF30BA
:1055D0001DB0BDE8F08FA846A2E7444A801A0BFA36
:1055E00000F0184304904546BEE7039A111D126867
:1055F0000391002A01DB079204E0524243F00203C8
:105600000792049398F800302E2B0ED198F80130B1
:105610002A2B38D1039B1A1D1B680392002BB8BF9D
:105620004FF0FF3308F102080593334D98F800104E
:1056300003222846FAF7FCFD40B14023401B03FA41
:1056400000F0049B034308F10108049398F800104C
:105650002A488DF82810062208F10107FAF7E8FD1C
:10566000002837D0264B1BBB039B073323F00703CF
:1056700008330393099B4B44099350E705FB02321F
:10568000012088468AE7002308F10108059319469E
:105690000A25404610F8012B303A092A03D9002B7D
:1056A000C3D00591C1E705FB012101238046F0E746
:1056B00003AB00932246134B04A93046FDF778FE56
:1056C000B0F1FF3F8146D5D1A3895B063FF57EAFA0
:1056D00009987DE703AB009322460A4B04A93046A4
:1056E000FEF71CF9ECE700BFF45A0008345C000830
:1056F000145B0008D45A00083A5C00083E5C0008BD
:10570000B1330008B754000838B5064C00230546ED
:1057100008462360FDF738FD431C02D1236803B11E
:105720002B6038BDC803002010B50C46B1F90E102F
:1057300000F068F90028ABBF636DA3891B1823F440
:105740008053ACBF6365A38110BD2DE9F0411F46B6
:105750008B89DB0505460C46164605D5022300223B
:10576000B1F90E1000F028F9A389B4F90E1023F452
:105770008053A38132463B462846BDE8F04100F005
:1057800069B810B50C46B1F90E1000F015F9431CBC
:10579000A38915BF606523F4805343F48053A3812C
:1057A00018BFA38110BDB1F90E1000F0D3B80000EE
:1057B000F8B50E461446054618B183690BB9FFF7D4
:1057C000C3F9214B9C422AD16C68A369A360A389C9
:1057D0001A072ED5236963B323692068C01A636949
:1057E000F6B28342374604DC21462846FFF742F9E9
:1057F00028BBA368013BA36023685A1C22601E706B
:1058000063690130834204D0A389DB0719D50A2ECE
:1058100017D121462846FFF72DF990B10FE00B4B29
:105820009C4201D1AC68D0E7094B9C4208BFEC68B0
:10583000CBE72146284600F01FF80028CCD04FF0D7
:10584000FF373846F8BD00BFF45A0008145B000863
:10585000D45A000838B5074C0546084611460022C0
:1058600022601A46FDF782FC431C02D1236803B173
:105870002B6038BDC8030020324B70B51D6806464A
:105880000C4625B1AB6913B92846FFF75DF92E4BDD
:105890009C420FD16C68B4F90C309AB215072CD425
:1058A000D00611D40922326043F04003A3814FF0A7
:1058B000FF303EE0254B9C4201D1AC68EBE7244B26
:1058C0009C4208BFEC68E6E7510712D5616B41B115
:1058D00004F14403994202D03046FFF72DFD002326
:1058E0006363A38923F02403A381002363602369F6
:1058F0002360A38943F00803A38123694BB9A389DB
:1059000003F42073B3F5007F03D021463046FFF740
:10591000D7F9A28912F001030CD00023A3606369B8
:105920005B42A361236953B9B4F90C3013F08000D2
:10593000BAD170BD920758BF6369A360F2E7002037
:10594000F7E700BF0C000020F45A0008145B0008C1
:10595000D45A000838B5064C002305460846236093
:10596000FDF72CFC431C02D1236803B12B6038BD2A
:10597000C803002038B5074C0023054608461146E9
:105980002360FDF71FFC431C02D1236803B12B6089
:1059900038BD00BFC803002038B5064C00230546BB
:1059A00008462360FDF714FC431C02D1236803B1B1
:1059B0002B6038BDC803002038B5074C05460846A3
:1059C0001146002222601A46FDF704FC431C02D156
:1059D000236803B12B6038BDC803002082B001B931
:1059E00001A942B14BB113780B601278101C18BF9B
:1059F000012002B070471046FBE76FF00100F8E7A6
:105A00007047704738B5074C0546084611460022D6
:105A100022601A46FDF7E0FB431C02D1236803B164
:105A20002B6038BDC803002049B1FF2A85BF8A23F7
:105A300003600A704FF0FF3098BF0120704708469E
:105A400070470000F8B500BFF8BC08BC9E46704720
:0C5A5000F8B500BFF8BC08BC9E467047CB
:105A6000000610160006101668656C6C6F21202564
:105A7000660A0000000000000000000001020304AC
:105A800006070809000000000102030410000020BE
:105A9000494E4600696E66004E414E006E616E00D2
:105AA00030003031323334353637383941424344AF
:105AB0004546003031323334353637383961626328
:105AC00064656600496E66696E697479004E614E60
:105AD00000000000000000000000000000000000C6
