:020000040800F2
:100000000000052075400008D5380008D9380008E0
:10001000DD380008E1380008E5380008000000007D
:10002000000000000000000000000000E9380008A7
:10003000ED38000800000000F1380008F53800082D
:10004000C5400008C5400008C5400008C54000087C
:10005000C5400008C5400008C5400008C54000086C
:10006000C5400008C5400008C5400008C54000085C
:10007000C5400008C5400008C5400008C54000084C
:10008000C5400008C5400008C5400008C54000083C
:10009000C5400008C5400008C5400008C54000082C
:1000A000C5400008C5400008C5400008C54000081C
:1000B000C5400008C5400008C5400008C54000080C
:1000C000C5400008C5400008C5400008C5400008FC
:1000D000C5400008C5400008C5400008C5400008EC
:1000E000C5400008C5400008C5400008C5400008DC
:1000F000C5400008C5400008C5400008C5400008CC
:10010000C5400008C5400008C5400008C5400008BB
:10011000C5400008C5400008F9380008C54000087F
:1001200005390008C5400008C5400008C540000862
:10013000C5400008C5400008C5400008C54000088B
:10014000C5400008C5400008C5400008C54000087B
:10015000C5400008C5400008C5400008C54000086B
:10016000C5400008C5400008C5400008C54000085B
:10017000C5400008C5400008000000000000000065
:10018000C5400008C5400008C5400008C54000083B
:10019000C5400008C540000800000000C540000838
:1001A000C5400008C5400008000000000000000035
:1001B000C54000080000000000000000C540000825
:1001C000C5400008C5400008C5400008C5400008FB
:0801D000C5400008C54000080D
:1001E00010B5054C237833B9044B13B10448AFF371
:1001F00000800123237010BDDC01002000000000FE
:10020000DC68000808B5034B1BB103490348AFF392
:10021000008008BD00000000E0010020DC6800084C
:10022000034613F8012B002AFBD1181A0138704736
:1002300001F0FF01102A2BDB10F0070F08D010F897
:10024000013B013A8B422DD010F0070F42B3F6D19B
:10025000F0B441EA012141EA014122F007047FF0B4
:1002600000070023F0E80256083C85EA010586EA0B
:10027000010685FA47F5A3FA87F586FA47F6A5FA47
:1002800087F68EB9EED1F0BC01F0FF0102F0070253
:1002900032B110F8013B013A83EA010313B1F8D1FE
:1002A0000020704701387047002D06BF35460338DF
:1002B000073815F0010F07D1013015F4807F02BF18
:1002C000013015F4C03F0130F0BC0138704700BF69
:1002D00081F0004102E000BF83F0004330B54FEAF7
:1002E00041044FEA430594EA050F08BF90EA020F64
:1002F0001FBF54EA000C55EA020C7FEA645C7FEAF7
:10030000655C00F0E2804FEA5454D4EB5555B8BF19
:100310006D420CDD2C4480EA020281EA030382EA8A
:10032000000083EA010180EA020281EA0303362D1C
:1003300088BF30BD11F0004F4FEA01314FF4801CEF
:100340004CEA113102D0404261EB410113F0004F01
:100350004FEA03334CEA133302D0524263EB4303B8
:1003600094EA050F00F0A780A4F10104D5F1200E56
:100370000DDB02FA0EFC22FA05F2801841F10001B1
:1003800003FA0EF2801843FA05F359410EE0A5F185
:1003900020050EF1200E012A03FA0EFC28BF4CF0B6
:1003A000020C43FA05F3C01851EBE37101F000456C
:1003B00007D54FF0000EDCF1000C7EEB00006EEB79
:1003C0000101B1F5801F1BD3B1F5001F0CD3490803
:1003D0005FEA30004FEA3C0C04F101044FEA44525A
:1003E00012F5800F80F09A80BCF1004F08BF5FEAE1
:1003F000500C50F1000041EB045141EA050130BDC1
:100400005FEA4C0C404141EB010111F4801FA4F163
:100410000104E9D191F0000F04BF01460020B1FAB8
:1004200081F308BF2033A3F10B03B3F120020CDAF0
:100430000C3208DD02F1140CC2F10C0201FA0CF0CE
:1004400021FA02F10CE002F11402D8BFC2F1200C33
:1004500001FA02F120FA0CFCDCBF41EA0C019040E9
:10046000E41AA2BF01EB0451294330BD6FEA040432
:100470001F3C1CDA0C340EDC04F11404C4F120021D
:1004800020FA04F001FA02F340EA030021FA04F32F
:1004900045EA030130BDC4F10C04C4F1200220FA86
:1004A00002F001FA04F340EA0300294630BD21FAC4
:1004B00004F0294630BD94F0000F83F4801306BF8A
:1004C00081F480110134013D4EE77FEA645C18BF7E
:1004D0007FEA655C29D094EA050F08BF90EA020F15
:1004E00005D054EA000C04BF1946104630BD91EA0D
:1004F000030F1EBF0021002030BD5FEA545C05D110
:100500004000494128BF41F0004130BD14F580044E
:100510003CBF01F5801130BD01F0004545F0FE41C2
:1005200041F470014FF0000030BD7FEA645C1ABFF7
:10053000194610467FEA655C1CBF0B46024650EA2E
:10054000013406BF52EA033591EA030F41F400215A
:1005500030BD00BF90F0000F04BF0021704730B5E0
:100560004FF4806404F132044FF000054FF00001B5
:1005700050E700BF90F0000F04BF0021704730B576
:100580004FF4806404F1320410F0004548BF40424B
:100590004FF000013EE700BF42004FEAE2014FEAA0
:1005A00031014FEA02701FBF12F07F4393F07F4F7B
:1005B00081F06051704732F07F4208BF704793F07E
:1005C0007F4F04BF41F40021704730B54FF4607491
:1005D00001F0004521F000411CE700BF50EA010294
:1005E00008BF704730B54FF000050AE050EA01023D
:1005F00008BF704730B511F0004502D5404261EBAD
:1006000041014FF4806404F132045FEA915C3FF4ED
:10061000D8AE4FF003025FEADC0C18BF03325FEA8A
:10062000DC0C18BF033202EBDC02C2F1200300FA3B
:1006300003FC20FA02F001FA03FE40EA0E0021FA60
:1006400002F11444BDE600BF70B54FF0FF0C4CF44E
:10065000E06C1CEA11541DBF1CEA135594EA0C0F00
:1006600095EA0C0F00F0DEF82C4481EA030621EA3B
:100670004C5123EA4C5350EA013518BF52EA033576
:1006800041F4801143F4801338D0A0FB02CE4FF028
:100690000005E1FB02E506F00042E0FB03E54FF058
:1006A0000006E1FB03569CF0000F18BF4EF0010E50
:1006B000A4F1FF04B6F5007F64F5407404D25FEA4C
:1006C0004E0E6D4146EB060642EAC62141EA5551FF
:1006D0004FEAC52040EA5E504FEACE2EB4F1FD0C41
:1006E00088BFBCF5E06F1ED8BEF1004F08BF5FEABF
:1006F000500E50F1000041EB045170BD06F0004671
:1007000046EA010140EA020081EA0301B4EB5C041D
:10071000C2BFD4EB0C0541EA045170BD41F4801115
:100720004FF0000E013C00F3AB8014F1360FDEBF3A
:10073000002001F0004170BDC4F10004203C35DA16
:100740000C341BDC04F11404C4F1200500FA05F399
:1007500020FA04F001FA05F240EA020001F000423A
:1007600021F0004110EBD37021FA04F642EB0601B0
:100770005EEA430E08BF20EAD37070BDC4F10C04DA
:10078000C4F1200500FA04F320FA05F001FA04F29E
:1007900040EA020001F0004110EBD37041F100018A
:1007A0005EEA430E08BF20EAD37070BDC4F1200595
:1007B00000FA05F24EEA020E20FA04F301FA05F2FD
:1007C00043EA020321FA04F001F0004121FA04F2A5
:1007D00020EA020000EBD3705EEA430E08BF20EA75
:1007E000D37070BD94F0000F0FD101F000464000AF
:1007F00041EB010111F4801F08BF013CF7D041EA31
:10080000060195F0000F18BF704703F00046520034
:1008100043EB030313F4801F08BF013DF7D043EA05
:100820000603704794EA0C0F0CEA135518BF95EABB
:100830000C0F0CD050EA410618BF52EA4306D1D142
:1008400081EA030101F000414FF0000070BD50EA61
:10085000410606BF1046194652EA430619D094EAEB
:100860000C0F02D150EA013613D195EA0C0F05D1D5
:1008700052EA03361CBF104619460AD181EA030129
:1008800001F0004141F0FE4141F470014FF00000E1
:1008900070BD41F0FE4141F4780170BD70B54FF07C
:1008A000FF0C4CF4E06C1CEA11541DBF1CEA1355FC
:1008B00094EA0C0F95EA0C0F00F0A7F8A4EB0504DE
:1008C00081EA030E52EA03354FEA013100F08880D5
:1008D0004FEA03334FF0805545EA131343EA12639E
:1008E0004FEA022245EA111545EA10654FEA002653
:1008F0000EF000419D4208BF964244F1FD0404F50C
:10090000407402D25B084FEA3202B61A65EB030567
:100910005B084FEA32024FF480104FF4002CB6EB24
:10092000020E75EB030E22BFB61A754640EA0C00A4
:100930005B084FEA3202B6EB020E75EB030E22BFE4
:10094000B61A754640EA5C005B084FEA3202B6EB25
:10095000020E75EB030E22BFB61A754640EA9C00E4
:100960005B084FEA3202B6EB020E75EB030E22BFB4
:10097000B61A754640EADC0055EA060E18D04FEA72
:10098000051545EA16754FEA06164FEAC30343EA12
:1009900052734FEAC2025FEA1C1CC0D111F4801FDF
:1009A0000BD141EA00014FF000004FF0004CB6E7D8
:1009B00011F4801F04BF01430020B4F1FD0C88BF77
:1009C000BCF5E06F3FF6AFAEB5EB030C04BFB6EB82
:1009D000020C5FEA500C50F1000041EB045170BD75
:1009E0000EF0004E4EEA113114EB5C04C2BFD4EBA2
:1009F0000C0541EA045170BD41F480114FF0000E26
:100A0000013C90E645EA060E8DE60CEA135594EAA1
:100A10000C0F08BF95EA0C0F3FF43BAF94EA0C0FA4
:100A20000AD150EA01347FF434AF95EA0C0F7FF419
:100A300025AF104619462CE795EA0C0F06D152EA6D
:100A400003353FF4FDAE1046194622E750EA410651
:100A500018BF52EA43067FF4C5AE50EA41047FF462
:100A60000DAF52EA43057FF4EBAE12E74FF0FF3CC7
:100A700006E000BF4FF0010C02E000BF4FF0010C98
:100A80004DF804CD4FEA410C7FEA6C5C4FEA430C11
:100A900018BF7FEA6C5C1BD001B050EA410C0CBF60
:100AA00052EA430C91EA030F02BF90EA020F0020C2
:100AB000704710F1000F91EA030F58BF994208BF29
:100AC00090422CBFD8176FEAE37040F001007047E6
:100AD0004FEA410C7FEA6C5C02D150EA013C07D13D
:100AE0004FEA430C7FEA6C5CD6D152EA033CD3D088
:100AF0005DF8040B704700BF8446104662468C4682
:100B00001946634600E000BF01B5FFF7B7FF0028B4
:100B100048BF10F1000F01BD4DF808EDFFF7F4FFDD
:100B20000CBF012000205DF808FB00BF4DF808ED68
:100B3000FFF7EAFF34BF012000205DF808FB00BF8B
:100B40004DF808EDFFF7E0FF94BF012000205DF8AD
:100B500008FB00BF4DF808EDFFF7CEFF94BF012062
:100B600000205DF808FB00BF4DF808EDFFF7C4FF5B
:100B700034BF012000205DF808FB00BF4FEA410CA4
:100B80007FEA6C5C02D150EA013C0AD14FEA430C87
:100B90007FEA6C5C02D152EA033C02D14FF00000C4
:100BA00070474FF0010070474FEA410212F5001202
:100BB00015D211D56FF47873B3EB625212D94FEAA4
:100BC000C12343F0004343EA505311F0004F23FA8E
:100BD00002F018BF404270474FF00000704750EAE3
:100BE000013005D111F0004008BF6FF000407047A0
:100BF0004FF00000704700BF4FEA4102B2F1E043FE
:100C000024BFB3F5001CDCF1FE5C0DD901F0004CF3
:100C10004FEAC0024CEA5070B2F1004F40EB830043
:100C200008BF20F00100704711F0804F21D113F16F
:100C30003872BCBF01F00040704741F480114FEAA8
:100C40005252C2F11802C2F1200C10FA0CF320FA31
:100C500002F018BF40F001004FEAC1234FEAD3234E
:100C600003FA0CFC40EA0C0023FA02F34FEA4303B8
:100C7000CCE77FEA625307D150EA01331EBF4FF041
:100C8000FE4040F44000704701F0004040F0FE405C
:100C900040F40000704700BF53B94AB9002908BFAB
:100CA00000281CBF4FF0FF314FF0FF3000F072B949
:100CB000ADF1080C6DE904CE00F006F8DDF804E0B3
:100CC000DDE9022304B070472DE9F047089E044691
:100CD0008846002B4BD18A42154667D9B2FA82F278
:100CE0004AB1C2F1200701FA02F320FA07F7954052
:100CF00047EA030894404FEA154E230CB8FBFEF771
:100D00001FFA85FC0EFB178843EA084307FB0CF12A
:100D1000994209D9EB1807F1FF3080F01B81994205
:100D200040F21881023F2B445B1AA4B2B3FBFEF0E1
:100D30000EFB103344EA034400FB0CFCA44509D924
:100D40002C1900F1FF3380F00781A44540F20481A3
:100D500002382C4440EA0740A4EB0C0400271EB1E3
:100D6000D4400023C6E900433946BDE8F0878B42F2
:100D700009D9002E00F0EB800027C6E900013846B3
:100D80003946BDE8F087B3FA83F7002F47D18B428D
:100D900002D3824200F2FA80841A61EB030301203D
:100DA0009846002EE0D0C6E90048DDE702B9FFDE34
:100DB000B2FA82F2002A40F08F80491B4FEA154EAA
:100DC0001FFA85F80127B1FBFEFC230C0EFB1C115A
:100DD00043EA014308FB0CF1994207D9EB180CF1E7
:100DE000FF3002D2994200F2CD808446591AA3B254
:100DF000B1FBFEF00EFB101443EA044408FB00F8BC
:100E0000A04507D92C1900F1FF3302D2A04500F20A
:100E1000B6801846A4EB080440EA0C409FE7C7F1EF
:100E2000200CBB4022FA0CFE4EEA030E01FA07F436
:100E300020FA0CF521FA0CF34FEA1E482543B3FBC8
:100E4000F8F92C0C08FB19331FFA8EFA44EA034315
:100E500009FB0AF49C4202FA07F200FA07F10BD9E7
:100E60001EEB030309F1FF3080F087809C4240F2C3
:100E70008480A9F1020973441B1BADB2B3FBF8F0E7
:100E800008FB103345EA034400FB0AFAA24508D9DF
:100E90001EEB040400F1FF336BD2A24569D902387E
:100EA000744440EA0940A0FB0289A4EB0A044C45C3
:100EB000C2464B4654D351D0002E69D0B1EB0A053F
:100EC00064EB030404FA0CFCFD40FC404CEA05050D
:100ED000C6E90054002747E7C2F1200320FA03F7D0
:100EE000954001FA02F021FA03F34FEA154E384318
:100EF000010CB3FBFEF71FFA85F80EFB173341EA2E
:100F0000034107FB08F38B4204FA02F407D969187E
:100F100007F1FF3C2FD28B422DD9023F2944CB1A37
:100F200081B2B3FBFEF00EFB103341EA034100FB3C
:100F300008F38B4207D9691800F1FF3C17D28B42A6
:100F400015D902382944C91A40EA07473BE7374612
:100F5000304609E70746E7E61846FBE64145ABD2CF
:100F6000B8EB020A69EB0E0201381346A4E76046AB
:100F7000E9E7184695E76746D1E781467CE70238FE
:100F80002C4447E7ACF1020C2B442FE7384608E726
:100F90003746E9E6704700BF00283BD090F8512063
:100FA000002370B502F0FF010446836262B3184665
:100FB000D4E90135D4E903212B4313436269E56980
:100FC000266A0B431343A26921682B43022584F848
:100FD0005150334302F400750E682B43120C656ABE
:100FE00002F0040203432A4326F040060E600B6021
:100FF0004A60CB69002223F400630125CB611046CF
:10100000626584F8515070BD80F8501002F062FAA9
:10101000A06ACDE7012070472DE9F04190F85040DB
:10102000012C82B000F0AA801E46012380F85030C7
:10103000044617460D4600F057FB804694F85100D1
:101040006368C0B2012811D0B3F5827F09D00220B5
:101050000122002384F8512084F8503002B0BDE80A
:10106000F081A268002AF2D10428F0D1002D00F00E
:101070008980002F00F08680002E00F0838094F895
:1010800051202068A763042A1CBF052284F8512040
:1010900000226265E687E6860168A687C4E9102219
:1010A0004A062563A68603D4026842F04002026025
:1010B000E268B2F5006F00F09D80002B00F0028125
:1010C000012E00F0FF80089B01334FF0010527D06F
:1010D0005AE023689A6892070FD5E28E92B262B105
:1010E0005DB1226B12781A73E28E216B2368013A8C
:1010F00092B20131E286216300259A68D7070DD5A7
:10110000E28F92B252B1A26BDB681370E38FA26BD5
:10111000013B9BB20132E387A263012500F0E4FAB0
:10112000E38E9BB2002BD4D1E38F9BB2002BD0D1A6
:10113000904B914A1B686168A2FB03235B0D4FF43F
:101140007A7202FB03F3B1F5827F019307D1CEE0FF
:10115000019B2268013B019393681B0602D5019B0A
:10116000002BF5D1A068002840F0BF8023680090D4
:10117000DA6800929B680093009B69E7022002B046
:10118000BDE8F081012063E7E38E9BB223B9E38FD2
:101190009BB2002B00F0B08023689A6896070FD5A9
:1011A000E28E92B262B15DB1226B12781A73E28E56
:1011B000216B2368013A92B20131E2862163002556
:1011C0009A68D0070DD5E28F92B252B1A26BDB685C
:1011D0001370E38FA26B013B9BB20132E387A263E2
:1011E000012500F081FA089BA0EB08008342CBD8D0
:1011F00003202DE7002B6FD0012E6DD0089B01330B
:101200004FF0010524D02CE023689A6897070DD58C
:10121000E28E92B252B14DB1216B31F8022BDA60FD
:10122000E28E2163013A92B2E28600259A68D607DF
:101230000CD5E28F92B24AB1A26BDB6822F8023B76
:10124000E38FA263013B9BB2E387012500F04CFAD8
:10125000E38E9BB2002BD7D1E38F9BB2002BD3D16F
:1012600066E7E38E9BB21BB9E38F9BB2002B43D0A2
:1012700023689A6890070DD5E28E92B252B14DB1B3
:10128000216B31F8022BDA60E28E2163013A92B2CF
:10129000E28600259A68D1070CD5E28F92B24AB156
:1012A000A26BDB6822F8023BE38FA263013B9BB297
:1012B000E387012500F018FA089BA0EB08008342A1
:1012C000CFD895E72B780373E38E226B013B9BB25B
:1012D0000132E3862263F6E635F8023BC360E38E13
:1012E0002563013B9BB2E38688E70020B0E62268D5
:1012F00093681906FCD435E71E4B1F4A1B686168CA
:10130000A2FB03235B0D4FF47A7202FB03F3B1F5EA
:10131000827F01937FF423AF089B06E000F0E4F99D
:10132000089BA0EB0800834206D901332268DFD076
:1013300093681A06F2D415E7D4E900315A68B1F57A
:10134000827F22F0E0025A6018D0A26AB2F5005FF4
:1013500007D11A6822F400521A601A6842F4005247
:101360001A60012084F85100636D202213436365E5
:1013700062656DE608000020819F5E16A268B2F5E6
:10138000004F02D0B2F5806FDFD11A6822F0400220
:101390001A60DAE7174908B58B6803F00C03042BD1
:1013A0001BD0082B17D14A684B6813F4800302F056
:1013B0003F0214D149681048C1F38811A1FB000114
:1013C000FFF76AFC0B4B5B68C3F3014301335B001F
:1013D000B0FBF3F008BD084808BD084808BD4B68DD
:1013E0000648C3F38813A3FB00010023FFF754FC56
:1013F000E8E700BF003802400024F40040787D0197
:1014000060B1484A136803F00F038B4208D2CBB295
:101410001370136803F00F038B4201D00120704753
:1014200003682DE9F0419D0714D55C0704D53E4CB7
:10143000A26842F4E052A2601A0704D53A4CA268AE
:1014400042F46042A260384C8568A26822F0F00243
:101450002A43A260DF0704460D4622D54268012ACE
:1014600056D0931E012B304B1B6858D9990725D5B0
:101470002D4EB36823F003031343B36000F034F937
:1014800041F28837804605E000F02EF9A0EB080015
:10149000B84242D8B368626803F00C03B3EB820F22
:1014A000F2D1204A136803F00F03AB4209D9EBB223
:1014B0001370136803F00F03AB4202D00120BDE8A4
:1014C000F08123685A0706D51749E0688A6822F434
:1014D000E05202438A601B0711D4FFF75BFF124BF7
:1014E00012499B68124AC3F30313CB5C20FA03F33F
:1014F0000020136000F0AEF80020BDE8F0810A4A39
:101500002169936823F4604343EAC1039360E4E7ED
:10151000054B1B689E03ABD4D0E70320EDE7980191
:10152000A6D4CBE7003C0240003802402469000802
:1015300008000020044B054A9B680549C3F3822339
:101540000868D35CD840704700380240346900080E
:1015500008000020044B054A9B680549C3F3423349
:101560000868D35CD84070470038024034690008EE
:1015700008000020074AD3684FF6FF010B40000225
:1015800043F0BF6300F4E06043F400330343D360EF
:10159000704700BF00ED00E0184BDB68C3F3022387
:1015A00030B4C3F10705042D03F1040428BF04255A
:1015B000062C19D9033B4FF0FF349C4022EA040467
:1015C0004FF0FF32AA4021EA020101FA03F222435E
:1015D00012010028D2B20ADB00F1604000F5614040
:1015E00080F8002330BC704700242346E8E7044B12
:1015F00000F00F0003441A7630BC704700ED00E0A5
:10160000FCEC00E0002807DB00F01F01012340098B
:10161000024A8B4042F82030704700BF00E100E0F2
:101620000138B0F1807F0ED2084B10B4084C5860DE
:10163000F02084F823000022072110469A601960E8
:101640005DF8044B70470120704700BF10E000E0D8
:1016500000ED00E038B50E4A0E4B12781B680546C7
:101660004FF47A70B0FBF2F0B3FBF0F0FFF7D8FF65
:1016700008B90F2D01D9012038BD0446024629467C
:101680004FF0FF30FFF788FF034B20461D6038BD49
:1016900000000020080000200400002008B50B4BCB
:1016A0001A6842F400721A601A6842F480621A6082
:1016B0001A6842F480721A600320FFF75BFF002073
:1016C000FFF7C8FF02F024F9002008BD003C0240EB
:1016D000034A044B11681B780B441360704700BF2A
:1016E0000402002000000020014B1868704700BF72
:1016F0000402002038B50446FFF7F6FF631C0546D8
:1017000002D0044B1B781C44FFF7EEFF401BA042A5
:10171000FAD338BD0000002000285CD0F8B590F85E
:101720003D30044603F0FF02BBB322683A4EA56980
:10173000E0686168022384F83D30B24213684CD0FF
:10174000B2F1804F58D0A6F57C46B2422AD006F5B9
:101750008066B24226D006F58066B24222D006F5F7
:101760007846B2421ED006F57056B24213D006F546
:101770008066B2420FD006F58066B2420BD0A6F565
:101780009836B24207D006F58066B24203D006F51D
:101790008066B24238D1266933E080F83C2002F0FE
:1017A0000FF8C2E7A6681D4F23F070033343266984
:1017B00023F44073334323F080032B43BA42136076
:1017C000D062916201D163691363012353610020E8
:1017D00084F83D30F8BD01207047A768266923F0E2
:1017E00070033B4323F44073334323F080032B43C4
:1017F0001360D0629162E6E7A768266923F0700360
:101800003B4323F44073334323F080032B431360A3
:10181000D0629162D9E700BF00000140000401409E
:101820000368DA6842F00102DA609A6802F007029F
:10183000062A03D01A6842F001021A60002070479D
:1018400000285CD0F8B590F83D30044603F0FF0264
:10185000BBB322683A4EA569E0686168022384F848
:101860003D30B24213684CD0B2F1804F58D0A6F54B
:101870007C46B2422AD006F58066B24226D006F5F2
:101880008066B24222D006F57846B2421ED006F5F6
:101890007056B24213D006F58066B2420FD006F5FC
:1018A0008066B2420BD0A6F59836B24207D006F554
:1018B0008066B24203D006F58066B24238D126690E
:1018C00033E080F83C2001F063FFC2E7A6681D4FBB
:1018D00023F070033343266923F44073334323F02A
:1018E00080032B43BA421360D062916201D16369D5
:1018F000136301235361002084F83D30F8BD0120BB
:101900007047A768266923F070033B4323F44073B4
:10191000334323F080032B431360D0629162E6E7E8
:10192000A768266923F070033B4323F440733343D5
:1019300023F080032B431360D0629162D9E700BF8C
:10194000000001400004014003680122186A01F010
:101950001F0102FA01F120EA010010B418621A6AAC
:101960000C4C1143A34219620FD00B4A93420CD086
:101970009A6802F00702062A03D01A6842F00102B0
:101980001A6000205DF8044B70475A6C42F4004224
:101990005A64EDE70000014000040140036830B4E0
:1019A0001A6A194C01F01F050121A94022EA010120
:1019B00019621A6A1A62A34216D0144A934213D0CB
:1019C000196A41F21112114208D1196A40F24442D7
:1019D000114203D11A6822F001021A60012380F833
:1019E0003D3030BC00207047196A41F2111211429B
:1019F000E6D1196A40F244421142E1D15A6C22F414
:101A000000425A64DCE700BF0000014000040140CE
:101A100090F83C30012B00F0CC80F0B4022301247C
:101A200080F83C4080F83D300C2A35D8DFE802F0E1
:101A3000073434346A343434963434343D00036823
:101A4000D1F808C01D6A0F68744E25F001051D62AB
:101A50001A6A5D689C6922F0020224F07304B342A2
:101A600042EA0C0244EA070400F0BB8006F58066F7
:101A7000B34200F0B6804E685D609C615E631A629E
:101A80009C690D6944F008049C61996921F0040186
:101A900099619A692A439A610023012280F83D20C6
:101AA00080F83C30F0BC184670470368D1F808C095
:101AB0001D6A0F68594E25F480551D621A6A5D68CB
:101AC000DC6922F4005224F4E644B34242EA0C32C8
:101AD00044EA07246FD006F58066B3426BD04E68A7
:101AE0005D60DC611E641A62DC690D6944F40064A7
:101AF000DC61D96921F48061D961DA6942EA0522A1
:101B0000DA61C9E703688F681D6A0E68DFF80CC1E7
:101B100025F010051D621A6A5D689C6922F020029A
:101B200024F4E644634542EA071244EA062465D0F9
:101B30003B4FBB4262D04E685D609C619E631A62FF
:101B40009C690D6944F400649C61996921F4806189
:101B500099619A6942EA05229A619DE703688F6854
:101B60001D6A0E68DFF8B4C025F480751D621A6A1C
:101B70005D68DC6922F4007224F07304634542EA74
:101B8000072244EA06041CD0254FBB4219D04E68F8
:101B90005D60DC61DE631A62DC690D6944F0080493
:101BA000DC61D96921F00401D961DA692A43DA617B
:101BB00072E7022070474E6925F4804545EA861594
:101BC0008DE7CE6822F4006242EA0622D1E9056779
:101BD00025F4405C46EA070522F480624CEA0515CC
:101BE000D5E7CE6822F008023243D1E9056725F433
:101BF00040753E4322F0040235433CE7CE6822F0B4
:101C0000800242EA0612D1E9056725F4406C46EAF3
:101C1000070522F040024CEA85058CE700000140F0
:101C200000040140704700BF704700BF704700BF0D
:101C3000704700BF704700BF03681A69910710B56D
:101C4000044602D5DA6892075FD41A69500702D5B4
:101C5000DA68510746D41A69120702D5DA68100704
:101C60002ED41A69D20602D5DA68D00618D41A69B9
:101C7000D10702D5DA68D2075DD41A69100602D5F9
:101C8000DA6811065FD41A69520602D5DA6850067E
:101C900061D41A69910602D5DA68920643D410BD60
:101CA0006FF010021A61DB69082213F4407F22777B
:101CB000204664D0FFF7BAFF002223682277D6E7D8
:101CC0006FF008021A61DB69042299072277204627
:101CD00052D1FFF7A9FF2046FFF7AAFF0022236891
:101CE0002277BEE76FF004021A619B69022213F4A7
:101CF000407F227720463CD1FFF796FF2046FFF732
:101D000097FF002223682277A5E76FF002021A618D
:101D10009B6901229B07027725D0FFF787FF0022EE
:101D20002368227791E76FF0200220461A61BDE810
:101D3000104000F04DB86FF001021A612046FFF725
:101D400071FF236899E76FF080021A61204600F066
:101D500041F8236897E76FF040021A612046FFF7C9
:101D600069FF236895E7FFF75FFF2046FFF760FFF5
:101D7000D5E7FFF75BFFC4E7FFF758FFAEE7FFF7D4
:101D800053FF2046FFF754FF96E700BF90F83C2032
:101D9000012A1AD070B40222046880F83D20D1E9EB
:101DA000006503466068A26820F0700122F080029E
:101DB00031432A430126002561602846A26083F84A
:101DC0003D6083F83C5070BC70470220704700BFF4
:101DD000704700BF704700BFF8B50446FFF784FCAA
:101DE000002C54D00222236884F835201A68002180
:101DF00022F0010284F8341005461A6005E0FFF76E
:101E000073FC401B05283BD823681A68D107F6D419
:101E1000D4E90126D4E90351324360691F682A439B
:101E2000D4E906650A430243216A354832432A430E
:101E30000A43616A3840042942EA000229D01A6044
:101E40005A6922F007021143DAB22E485961103A5A
:101E5000A0FB021212092C4923F47F73895CE1650F
:101E600023F00303032A88BF04333F228A4001255D
:101E70000021A36508469A60616584F83550F8BD75
:101E8000032320226265184684F83530F8BD01200E
:101E9000F8BDD4E90B0101430A43A56A1A605A69E7
:101EA00045F0040122F0070211430028CCD07EB196
:101EB000B6F5005F16D0022D03D9032DC4D1C2019F
:101EC000C2D5012340226265184684F83530F8BD3A
:101ED000012D03D0F3D3022DB6D1F0E7B0F1C07FCE
:101EE000B2D1EEE7032DAFD801A252F825F000BF22
:101EF000C31E0008BF1E0008C31E0008DD1E000828
:101F00003F8010E0ABAAAAAAF8680008F0B490F8E5
:101F10003440012C39D090F83540866D0125AC4213
:101F200080F834502BD104680227002580F83570E2
:101F300045652568876825F48025402F2560636006
:101F40000ABFA260A160E160C16D18BFE2603F23DB
:101F50008B40026CB360236843F01603236063690F
:101F600043F0800363611AB1236843F008032360E0
:101F7000236843F0010323600020F0BC7047002376
:101F800080F83430F0BC022070470220F0BC70476B
:101F9000F0B583B00023876D0193C36D3D6865493B
:101FA00008229A402A4204460E6803D00168086855
:101FB000400759D401229A402A4203D02168496936
:101FC000080674D404229A402A4203D02168096882
:101FD000890766D410229A402A4203D021680868F3
:101FE00000074BD420229A402A4214D02168086866
:101FF000C00610D5BA6094F83520052A63D00B6866
:1020000013F4802F0B687ED0190340F18980E36BB5
:102010000BB120469847636D23B3636DDA071AD579
:102020000523226884F835301368434923F00103FF
:10203000A1FB06161360B60A02E01368DB0704D59D
:10204000019B0133B3420193F7D90022012384F8A5
:10205000342084F83530E36C23B1204603B0BDE86A
:10206000F040184703B0F0BD086820F00400086095
:10207000BA60626D42F0010262659BE7BA600A686D
:1020800012F4802F0A6818D1D20503D40A6822F00E
:1020900008020A60226C002AA4D020469047E36D13
:1020A000A0E7BA60626D42F00402626592E7BA602E
:1020B000626D42F00202626584E71103EAD5A26C08
:1020C000002AEAD18EE70A68206C22F016020A6024
:1020D0004A6922F080024A6138B30A6822F0080295
:1020E0000A603F22216D02FA03F300200122BB6047
:1020F00084F8340084F835200029B3D0204603B09A
:10210000BDE8F040084713F4807380D10A680120CD
:1021100022F010020A6084F8343084F8350076E743
:10212000636C002B7FF475AF75E7A26C002AD4D1E5
:10213000D7E700BF08000020B5814E1B002800F043
:1021400004812DE9F84390F83930044603F0FF028A
:10215000002B00F0F58023682669242284F83920BA
:10216000D86820F40050D4E90225D8601969E069E4
:1021700021F4405129431961D9686569324321F43A
:1021800016412A4321F00C0102430A43DA605A69DE
:10219000A16922F440720A43B0F5004F5A61AA4A7D
:1021A00071D0934200F0D38002F58062934200F038
:1021B000CE80FFF7BFF9A54F636800EB800000EB0E
:1021C00080009B00B0FBF3F3A7FB03235B091D0119
:1021D000FFF7B0F9666800EB800000EB8000B60006
:1021E000B0FBF6F6FFF7A6F9636800EB800000EBA2
:1021F00080009B00B0FBF3F3A7FB03235B094FF0C8
:10220000640909FB13631B013233A7FB03235B093A
:1022100003F0F006FFF78EF9626800EB800000EB38
:1022200080009300B0FBF3F8FFF784F9D4E90021B4
:1022300000EB80008B0000EB8000B0FBF3F3A7FB0A
:1022400003135B0909FB13831B013233A7FB031341
:10225000C3F3431333432B449360136923F4904334
:102260001361536923F02A035361D36800252021A9
:1022700043F40053D3602846E56384F8391084F8AA
:102280003A10BDE8F883934200F09F8002F5806227
:10229000934200F09A80FFF74DF96C4F636800EBB2
:1022A000800000EB80005B00B0FBF3F3A7FB03238F
:1022B0005B091E01FFF73EF9656800EB800000EB4B
:1022C00080006D00B0FBF5F5FFF734F9636800EBB3
:1022D000800000EB80005B00B0FBF3F3A7FB03235F
:1022E0005B094FF0640909FB1353DB003233A7FB92
:1022F00003231B0903F4F875FFF71CF9626800EB70
:10230000800000EB80005300B0FBF3F8FFF712F9F8
:10231000D4E9002100EB80004B0000EB8000B0FB13
:10232000F3F3A7FB03135B0909FB1383DB003233D1
:10233000A7FB0313C3F3421333442B4493608CE78E
:1023400080F8382001F08CFA05E701207047FFF78C
:1023500001F93E4F636800EB800000EB80009B00BA
:10236000B0FBF3F3A7FB03235B091D01FFF7F2F8B2
:10237000666800EB800000EB8000B600B0FBF6F66C
:10238000FFF7E8F8636800EB800000EB80009B003B
:10239000B0FBF3F3A7FB03234FF064095B0909FBD0
:1023A00013631B013233A7FB03235B0903F0F00621
:1023B000FFF7D0F8626800EB8000930000EB80002C
:1023C000B0FBF3F8FFF7C6F830E7FFF7C3F81F4F8D
:1023D000636800EB800000EB80005B00B0FBF3F370
:1023E000A7FB03235B091E01FFF7B4F8656800EB48
:1023F000800000EB80006D00B0FBF5F5FFF7AAF858
:10240000636800EB800000EB80005B00B0FBF3F33F
:10241000A7FB03234FF064095B0909FB1353DB009F
:102420003233A7FB03231B0903F4F875FFF792F877
:10243000626800EB8000530000EB8000B0FBF3F813
:10244000FFF788F864E700BF001001401F85EB51DB
:10245000F0B50E4690F83910202983B02DD1002E0A
:102460002ED0019262B31F4690F83830012B0446FB
:1024700023D00023C3630121212380F8381080F882
:102480003930FFF731F9019AA284E28422680546C7
:10249000E38C9BB2002B39D0E08CA168013880B26C
:1024A000B1F5805FE08419D0781C3BD1106801063B
:1024B000FCD5337853600136EAE7022003B0F0BD63
:1024C000012003B0F0BD13681B060CD4002F33D0DD
:1024D000FFF70AF9401B874222682DD3781CF2D1FE
:1024E00010680106FCD533882169C3F308035360E3
:1024F0000029E0D10236CBE713685B060BD4DFB1CD
:10250000FFF7F2F8401B8742226815D3781CF3D1FD
:1025100013685906FCD52023002084F8393084F84C
:102520003800CBE713681B06C3D42FB1FFF7DCF8E4
:10253000401B87422268B7D2D36823F4D073D3609C
:102540005369202123F0010300250320536184F8FF
:10255000391084F8385084F83A1003B0F0BD00BF49
:102560002DE9F0410368DD0782B004462FD5AE495E
:102570008A6802F00C02042A00F0C3808A6802F024
:102580000C02082A00F0B9806368B3F5803F00F0C0
:10259000F980B3F5A02F00F05181A34D2A6822F4F1
:1025A00080322A602A6822F480222A60002B40F0C0
:1025B000EE80FFF799F8064605E0FFF795F8801BD7
:1025C000642800F202812B689B03F6D423689F07DE
:1025D00028D5954A916811F00C0F00F0A080916801
:1025E00001F00C01082900F09680E368002B00F050
:1025F00009818E4B8C4D01221A60FFF775F8064653
:1026000005E0FFF771F8801B022800F2DE802B68DE
:102610009807F6D52B68226923F0F80343EAC20332
:102620002B6023681A0715D56369002B00F08280A0
:102630007F4B7D4D01221A60FFF756F8064605E0F4
:10264000FFF752F8801B022800F2BF806B6F9B07D8
:10265000F6D52368580730D5734A136C13F08053AE
:1026600078D00026734D2A68D10540F19E80A3687A
:10267000012B00F0AE80052B00F0F0806A4D2A6F30
:1026800022F001022A672A6F22F004022A67002B37
:1026900040F0A480FFF728F841F28837804606E032
:1026A000FFF722F8A0EB0800B84200F28E802B6FF3
:1026B0009807F5D4002E40F0CB80A269CAB15A4DDC
:1026C000A96801F00C01082930D0022A5A4A4FF0BB
:1026D0000001116000F0CC80FFF706F82C4605469B
:1026E00004E0FFF701F8401B02286ED823689B0125
:1026F000F7D4002002B0BDE8F0814A6850027FF5AF
:1027000043AF494A126891037FF561AF6268002ABE
:102710007FF45DAF0AE0526856023FF566AF424A69
:102720001268950722D5E268012A1FD0012002B065
:10273000BDE8F0813E4A3C4D1360FEF7D5FF0646EA
:1027400004E0FEF7D1FF801B02283ED86B6F9F0785
:10275000F7D47EE70193136C43F080531364136C3A
:1027600003F080530193019B01267BE72E492069EA
:102770000A6822F0F80242EAC0020A601A077FF5EE
:1027800069AF51E7284A136843F480331360FEF7BA
:10279000ABFF254D064604E0FEF7A6FF801B64282C
:1027A00013D82B689A03F7D510E72A6842F4807291
:1027B0002A60FEF799FF07462B68DA053FF557AF09
:1027C000FEF792FFC01B0228F6D9032002B0BDE835
:1027D000F081154A136F43F001031367FEF784FF7E
:1027E000114D804641F2883705E0FEF77DFFA0EBF2
:1027F0000800B842E9D82B6F9B07F6D5002E3FF4AE
:102800005CAF25E0094A084D1360FEF76DFF0646F0
:1028100004E0FEF769FF801B0228D6D82B689907D1
:10282000F7D42368FEE600BF0038024000004742AC
:10283000800E47420070004060004742244B1A68F7
:1028400042F480221A601A6842F480321A609EE7CD
:102850001F4A136C23F0805313642EE71C4B1A6F2E
:1028600042F004021A671A6F42F001021A67B5E7D4
:10287000FEF73AFF064604E0FEF736FF801B02280B
:10288000A3D82B689901F7D4D4E90732666AE06AC5
:10289000216B1343A26A0E4C43EA861343EA00639A
:1028A000520843EA0173013A0A4943EA024301220A
:1028B0006B600A60FEF718FF054604E0FEF714FFA0
:1028C000401B022881D823689A01F7D511E700BF81
:1028D00000380240600047422DE9F04FDFF814C293
:1028E000DFF81482D1F800E083B0002503E0013561
:1028F000102D00F094800123AB400EEA0304A342A4
:10290000F5D14E6826F0100ABAF1020F00F08A8065
:102910004FEA45090322D0F800B002FA09F2D24387
:1029200006F0030702EA0B0B07FA09F70AF1FF3A70
:1029300047EA0B07BAF1010F076040F29980C768B8
:102940008B683A4003FA09F31343C360F300CED512
:1029500000230193D8F8443043F48043C8F844304E
:10296000D8F8443025F0030202F1804203F480439A
:1029700002F59C32019305F00307019BD2F8089001
:10298000BF000F23BB4029EA030A544B98421ED0D4
:1029900003F5806398427ED0514B984200F08280CC
:1029A000504B984200F085804F4B984200F0888051
:1029B0004E4B984200F08B804D4B98420CBF4FF02D
:1029C00006094FF0070909FA07F74AEA070AC2F8A9
:1029D00008A0DCF80030E243F70354BF1340234360
:1029E000CCF80030DCF80430B70354BF1340234365
:1029F000CCF80430DCF80830F70254BF134023430E
:102A0000CCF80830DCF80C30B60205F1010554BFF3
:102A100013402343102DCCF80C307FF46CAF03B07F
:102A2000BDE8F08F4FEAD50900EB890905F00707EB
:102A3000D9F82020BF004FF00F0B0BFA07FB22EA5A
:102A40000B0A0A69BA4042EA0A02C9F820204FEA92
:102A500045090322D0F800A002FA09F2D24306F099
:102A6000030702EA0A0A07FA09F747EA0A070760B2
:102A7000876807EA020ACF6807FA09F747EA0A07F0
:102A80008760D0F804A0C6F300172AEA0303AF401A
:102A90001F43476053E74FF0010909FA07F74AEA75
:102AA000070A94E74FF0020909FA07F74AEA070A0A
:102AB0008DE74FF0030909FA07F74AEA070A86E7A4
:102AC0004FF0040909FA07F74AEA070A7FE74FF0CF
:102AD000050909FA07F74AEA070A78E70000024001
:102AE00000080240000C02400010024000140240A6
:102AF00000180240003C01400038024002B90904BD
:102B000081617047002800F09180F8B5056C04469B
:102B1000002D00F08180236CDB0604D5002301200A
:102B200084F83C30F8BD226C4D4923684D4D22F4A9
:102B3000885222F0020242F0020222644A6822F421
:102B400040324A604A68606802434A6058682169B6
:102B5000A768E66820F4807058605A6842EA01224B
:102B60005A60586820F0407058605968A06A39432C
:102B70005960996821F4006199609A68A84242EA14
:102B800006029A6054D09968E56A21F070619960F4
:102B90009A6810439860996821F0405199609A684A
:102BA0002A439A609968257E94F8200021F002015A
:102BB00099609A6842EA45029A605A68002840D1B2
:102BC00022F400625A60DA6AE56994F83070666946
:102BD00022F47002DA62D86A013D40EA0550D862F8
:102BE000986820F400709860996841EA47219960DC
:102BF000996821F4806199609A68002042EA8622EF
:102C00009A606064236C23F0030343F001032364A0
:102C1000002384F83C30F8BD00F080FB6564236C31
:102C200084F83C50DB063FF579AF7CE70120704724
:102C30009A6822F070629A609A6822F040529A6014
:102C4000B0E742F40062616A5A605A6822F4604256
:102C50005A605A68013942EA41325A60B3E700BF0C
:102C6000002301400100000FF0B590F83C3083B024
:102C70000024012B019469D00568AB680124DE07AC
:102C800080F83C4014D4334B334E1C68AB68A6FB31
:102C90000464A40C43F0010304EB4404AB6001940E
:102CA000019B2BB1019C013C0194019C002CF9D1AA
:102CB000AB68DC073DD5046C24F4E06424F0010427
:102CC00044F4807404646B685B0505D5036C23F4DD
:102CD000405343F480530364036C204E13F4805339
:102CE0001CBF436C23F0060343640446806B134609
:102CF00000271B4A84F83C70C6630264194EC66400
:102D00006FF022022A606E6846F080666E60AE68E0
:102D100046F480760A46AE6005F14C01FFF7F6F8FE
:102D2000114B5B6813F01F0F236805D00F4A9342C5
:102D300002D0002003B0F0BD986810F04050F8D1E8
:102D40009A6842F080429A6003B0F0BD022003B05E
:102D5000F0BD00BF0800002083DE1B439D2D00084E
:102D6000752D0008852D000800230140002001403A
:102D7000704700BF08B5806B00F03AFB08BD00BF8C
:102D8000704700BF806B08B540230364436C43F079
:102D900004034364FFF7F4FF08BD00BF836B1A6CA4
:102DA00012F0500F10B51A6C23D142F4007219685A
:102DB0001A648A6812F0405F17D11A7EAAB9CA6AEB
:102DC00012F4700F02D08A6850050ED44A6822F0BF
:102DD00020024A601A6C22F480721A641A6CD104C0
:102DE00003D41A6C42F001021A641846FFF7C0FFC0
:102DF00010BDD20604D49B6BBDE81040DB6C1847B5
:102E00001846FFF7BDFF10BDF0B490F83C3082B01B
:102E10000022012B019200F094800D688A680368FB
:102E20000124092DAFB280F83C4029D81C6905EB7C
:102E300045064FF0070C0CFA06FC24EA0C041C6152
:102E40001C6902FA06F626431E614E68062E06EB42
:102E500086022AD8596B053A1F24944021EA0401BE
:102E60005963596B07FA02F20A435A633D4A934287
:102E70002DD0002380F83C30184602B0F0BC7047DB
:102E800007EB4706DC681E3E4FF0070C0CFA06FC09
:102E900024EA0C04DC60DC6802FA06F62643DE60F5
:102EA0004E68062E06EB8602D4D90C2E31D8A2F13C
:102EB00023041F211A6BA14022EA01021A63196B35
:102EC00007FA04F20A431A63264A9342D1D1122D1B
:102ED0002DD0254B9D4238D1244A254B5168254C95
:102EE00021F480015160516841F4000151601B6878
:102EF000A4FB03239B0C03EB83035B000193019B67
:102F0000002BB6D0019B013B0193019B002BF9D113
:102F1000AFE7A2F141011F24DA6A8C4022EA0402E1
:102F2000DA62DC6A07FA01F22243DA629EE70F4BAB
:102F30005A6822F400025A605A6842F480025A60C9
:102F400097E7022002B0F0BC7047112D91D1074BDA
:102F50005A6822F480025A605A6842F400025A60A9
:102F600087E700BF0020014012000010002301404D
:102F70000800002083DE1B4300B583B002A90123B3
:102F800001F8010D1A460348FFF762FA03B05DF835
:102F900004FB00BFC803002030B5002395B0CDE985
:102FA0000A33CDE90833CDE90333CDE905331E49B2
:102FB00000930C930293086C1C4A40F08050086404
:102FC000096C01F08051009100990193116841F45E
:102FD0004041116012680E9302F440420120022425
:102FE00001920A9010210822642307A8019D0794EA
:102FF0000D94CDE9114413940B91CDE90F23FFF704
:10300000AFFA00B1FEE703460F254FF4805202A845
:103010000321CDE90343069302950592FEF7F0F9EB
:1030200000B1FEE715B030BD00380240007000402E
:1030300010B582B0FEF732FBFFF7AEFF00F058F894
:1030400000F00AFA00F000F900F020FA00F07AFA35
:1030500000F026FB00F0E8FB00F0FCFA204B1B68B8
:103060000021986801F0D0FC00F020FE00F020FE66
:1030700000F092FC1B4B1868FDF78EFA16A3D3E9FB
:103080000023FDF753FD08BB174C002000F01AFF8A
:1030900003460120ADF8003000F014FF0346022083
:1030A000ADF8023000F00EFFADF80400BDF80010DE
:1030B000BDF80220BDF8043009B212B21BB220469E
:1030C00001F08AFC6420FEF715FBDEE700F078FDD6
:1030D000002002B010BD00BF9A99999999990D40AE
:1030E0000C0000208C04002000690008FEE700BFEF
:1030F0002DE9F04700248AB0CDE90544CDE9074425
:103100004C4B019409941A6B4B4FDFF83491DFF864
:1031100034814A4E42F004021A631A6B02F0040230
:103120000192019A02941A6B42F080021A631A6BA0
:1031300002F080020292029A03941A6B42F001029A
:103140001A631A6B02F001020392039A04941A6B39
:1031500042F002021A631B6B03F00203049322463F
:1031600038464FF40051049BFFF7C8FC3846012253
:103170004FF44041FFF7C2FC012248461146FFF7D9
:10318000BDFC224640464EF20401FFF7B7FC224642
:1031900030464FF48851FFF7B1FC012230464FF41E
:1031A0006041FFF7ABFC01254FF4005A05A93846F2
:1031B0000894CDE905A50795FFF78EFB4FF4404332
:1031C000384605A90593CDE906540894FFF784FB1A
:1031D000484605A9CDE90555CDE90744FFF77CFB35
:1031E00005A940464CF204030593CDE90654089422
:1031F000FFF772FB4FF4704305A930460593CDE904
:1032000006540894FFF768FB404605A9CDE905A5DB
:10321000CDE90754FFF760FB4FF4807305A93046F2
:10322000CDE9065508940593FFF756FB0AB0BDE8B3
:10323000F08700BF0038024000080240000402404E
:10324000001C02400000024010B5314B314A3249A7
:103250001A6084B04FF4003205245A60996200224B
:1032600001211846DC619A60009283F82020DA621E
:10327000DA60CDE9012203921961197683F83010E2
:103280005961FFF73FFC00283ED1062401220323A9
:1032900069461F480293CDE90042FFF7B5FD80BBA8
:1032A0000722022369461A48CDE90023FFF7ACFD47
:1032B00020BB0822032369461548CDE90023FFF708
:1032C000A3FDC0B90922042369461148CDE90023B2
:1032D000FFF79AFD60B90322052369460C48CDE942
:1032E0000023FFF791FD08B1FFF700FF04B010BD08
:1032F000FFF7FCFEEFE7FFF7F9FEE3E7FFF7F6FE67
:10330000D7E7FFF7F3FECBE7FFF7F0FEBDE700BF1F
:1033100008020020002001400100000FF0B5026803
:103320002E4B89B000249A42CDE90344CDE90544EF
:10333000079401D009B0F0BD03F58C3300945A6CAA
:10334000274D42F480725A645A6C02F480720092E3
:10335000009A01941A6B42F001021A631A6B02F090
:1033600001020192019A02941A6B42F002021A635E
:103370001B6B03F0020302930327C82303A906462D
:103380001848029A03930497FFF7A6FA03A9164870
:103390000594CDE90377FFF79FFA144B2B604FF4A8
:1033A00080604FF400674FF400514FF480724FF487
:1033B0000033286128466C60C5E902446C62C5E9A7
:1033C0000571C5E90723FEF707FD18B9B563AE63BC
:1033D00009B0F0BDFFF78AFEF8E700BF002001400A
:1033E000500200200000024000040240106402402D
:1033F00038B5154B154A18891D885C889988DB8873
:10340000D58007EE900AF8EE677A948017EE900A5E
:1034100051801380FDF7C0F800220D4BFDF714F921
:1034200007A3D3E90023FDF739FA0B460246FCF760
:1034300055FFFDF7E1FB074B186038BDAFF3008087
:103440000000000000FCAF400804002054040020ED
:10345000000008408C04002000B583B000220A4B15
:103460000192196B41F4800119631B6B03F4800313
:10347000019301213820019BFEF78EF8382003B01C
:103480005DF804EBFEF7BEB80038024038B50F4BCC
:103490000F4A1A604FF482724FF4007518240A2103
:1034A0005A6018460022C3E90654D962C3E90222D1
:1034B000C3E90422C3E908229A62FDF76DFD00B951
:1034C00038BDBDE83840FFF711BE00BFB002002094
:1034D0000030014070B50168184A88B0002391425D
:1034E000CDE90333CDE90533079301D008B070BDB2
:1034F00002F584320193516C114841F480515164BA
:10350000516C01F48051019101990293136B43F0C6
:1035100002031363136B03F00203029305220223D9
:1035200003A938250324029E0792CDE90353CDE970
:103530000534FFF7D1F908B070BD00BF003001407D
:103540000004024030B53E4C3E4B236091B0132343
:103550006322636020460023C4E902320293099388
:103560002361A3610393CDE90A33CDE90C33CDE99F
:103570000E33FEF765F980BB002302A93048CDE980
:103580000233FEF703FC28BB002360251A4609A975
:103590002B480D93CDE90A330995FEF739FAB0B9F6
:1035A00009A904222648FEF733FA08B1FFF79EFD69
:1035B0002268244900238A42CDE90433CDE9063349
:1035C000089326D020498A420AD011B030BDFFF7B7
:1035D0008DFDE5E7FFF78AFDD6E7FFF787FDCBE72F
:1035E0001A4A0193136B1A4843F002031363136BD7
:1035F00003F0020301930322022304A94FF4007491
:10360000019D0693CDE904430892FFF765F911B0D7
:1036100030BD0E4A0093136B0D4843F00203136351
:10362000136B03F002030093C022022304A9009C41
:103630000893CDE90423FFF74FF911B030BD00BF67
:103640000803002000080040004801400038024004
:103650000004024010B5104B104A1A6082B00022DC
:10366000312440F2E73118465C60C3E90221009240
:103670009A610192FEF750F858B90023694606484E
:10368000CDE90033FEF782FB08B1FFF72FFD02B052
:1036900010BDFFF72BFDF0E788030020001000406D
:1036A00030B5364C364B23608FB000236321312276
:1036B00020466160C4E9023207932361A361CDE92A
:1036C0000833CDE90A33CDE90C33FEF725F818BBF2
:1036D0002A48FEF7B5F8E0B90023602507A91A4685
:1036E00026480B93CDE908330795FEF791F908B109
:1036F000FFF7FCFC2268234900238A42CDE902330C
:10370000CDE90433069323D01D498A4207D00FB078
:1037100030BDFFF7EBFCDFE7FFF7E8FCD8E71A4A1C
:103720000193136B194843F002031363136B03F007
:10373000020301930322022302A94FF40074019DA6
:103740000493CDE902430692FFF7C6F80FB030BDEF
:103750000D4A0093136B0D4843F002031363136B80
:1037600003F002030093C022022302A9009C0693E7
:10377000CDE90223FFF7B0F80FB030BD48030020B9
:1037800000480140000800400038024000040240A8
:1037900002680A4B9A4200D0704782B003F50C339E
:1037A000002201921A6C42F004021A641B6C03F0AE
:1037B00004030193019B02B0704700BF0008004062
:1037C00000B50368154A934283B011D0144A93425E
:1037D0000BD1144B002201925A6C42F480225A649D
:1037E0005B6C03F480230193019B03B05DF804FB41
:1037F00000220C4B0092196C41F0100119641B6CF3
:1038000003F01003009302213620009BFDF7C4FE55
:10381000362003B05DF804EBFDF7F4BE0010004065
:1038200000480140003802400B4B0C4A10B50C21F7
:103830001A604FF4E134002218465C605961C3E914
:1038400002221A61C3E90622FEF778FC00B910BD16
:10385000BDE81040FFF74ABCC8030020001001403B
:1038600070B50168194A88B000239142CDE903334D
:10387000CDE90533079301D008B070BD02F594324D
:103880000193516C124841F010015164516C01F0E8
:103890001001019101990293136B43F0010313632B
:1038A000136B03F0010302934FF4C06303220393ED
:1038B00003A9072302250124029ECDE90454CDE982
:1038C0000623FFF709F808B070BD00BF00100140E3
:1038D00000000240704700BFFEE700BFFEE700BFE8
:1038E000FEE700BFFEE700BF704700BF704700BFA4
:1038F000704700BFFDF7ECBE0148FEF79DB900BF61
:10390000880300200148FEF743BB00BF500200209F
:1039100082B00C4B002100915A6C42F480425A64F0
:103920005A6C02F480420092009A01911A6C42F0A3
:1039300080521A641B6C03F080530193019B02B008
:10394000704700BF003802401049114BD1F8882061
:1039500042F4700210B4C1F888201A680D4C00209F
:1039600042F001021A6098601A6822F0847222F410
:1039700080321A605C601A684FF0006422F4802282
:103980001A60D8608C605DF8044B704700ED00E071
:10399000003802401030002438B500218448FDF77B
:1039A000D3FF08B1FFF7A2FB814C236840F2BB3282
:1039B00017259A6264205D63FDF79CFE236840F240
:1039C000DD129A624FF4FA705D63FDF793FE2046B4
:1039D0000021FDF7E3FF08B1FFF788FB01224FF458
:1039E00080417448FFF78AF800224FF40041714883
:1039F000FFF784F8012211466F48FFF77FF8012294
:103A00004FF400516D48FFF779F800224FF48041E0
:103A10006A48FFF773F801224FF400416748FFF747
:103A20006DF84FF4FA70FDF765FE01224FF4804106
:103A30006048FFF763F801224FF400415D48FFF74B
:103A40005DF8012211465C48FFF758F801224FF457
:103A500000515A48FFF752F801224FF4804157486D
:103A6000FFF74CF801224FF400415448FFF746F8A5
:103A70003220FDF73FFE01224FF480414D48FFF711
:103A80003DF800224FF400414A48FFF737F8012281
:103A900011464948FFF732F801224FF400514748D8
:103AA000FFF72CF800224FF480414448FFF726F836
:103AB00001224FF400414148FFF720F83220FDF782
:103AC00019FE01224FF480413A48FFF717F801220E
:103AD0004FF400413748FFF711F8012211463648EC
:103AE000FFF70CF801224FF400513448FFF706F8B5
:103AF00001224FF480413148FFF700F801224FF4D2
:103B000000412E48FEF7FAFF3220FDF7F3FD0122B7
:103B10004FF480412748FEF7F1FF00224FF40041A7
:103B20002448FEF7EBFF012211462348FEF7E6FF8B
:103B300001224FF400512148FEF7E0FF00224FF42C
:103B400080411E48FEF7DAFF01224FF400411B4876
:103B5000FEF7D4FF4FF4FA70FDF7CCFD01224FF4CD
:103B600080411448FEF7CAFF01224FF4004111487A
:103B7000FEF7C4FF012211460F48FEF7BFFF0122E6
:103B80004FF400510D48FEF7B9FF01224FF4804178
:103B90000A48FEF7B3FF094801224FF40041FEF73F
:103BA000ADFF4FF4FA70BDE83840FDF7A3BD00BF8C
:103BB0004803002000080240001C024000040240AC
:103BC000F8B5364F364E3B68364C4FF4EF6117224E
:103BD000996203255A6300224FF480413046FEF774
:103BE0008DFF01224FF400413046FEF787FF01228E
:103BF00011462D48FEF782FF00224FF40051204667
:103C0000FEF77CFF01224FF480412046FEF776FF4D
:103C10004FF4004120460122FEF770FF0021384694
:103C2000FDF792FE08B1FFF761FA6420FDF762FD2F
:103C300000213846FDF7B2FE01224FF4804120B149
:103C4000FFF754FA01224FF480413046FEF756FF49
:103C500001224FF400413046FEF750FF0122114689
:103C60001148FEF74BFF01224FF400512046FEF7AA
:103C700045FF01224FF480412046FEF73FFF01221D
:103C80004FF400412046FEF739FF013D6420FDF767
:103C900031FD15F0FF059ED1F8BD00BF480300209F
:103CA0000008024000040240001C0240704700BFB0
:103CB00008B500F011F8052204490548FEF7D4FFC5
:103CC0000448BDE80840FDF7ABBD00BF0804002074
:103CD00008020020880300202DE9F041774C784D40
:103CE00086B0002620463246F5234FF480712E61BF
:103CF000ADF81030FEF702FF9DF80F300133DBB254
:103D00008DF80F309DF80F300133DBB28DF80F3096
:103D10009DF80F300133DBB28DF80F309DF80F3076
:103D20000133DBB28DF80F309DF80F704FF064084F
:103D30000137022305AA04A9FFB22846CDF8008066
:103D40008DF80F70FDF768F9204601224FF480715D
:103D5000FEF7D4FE0A20FDF7CDFC324620466B2349
:103D60004FF480712E61ADF81030FEF7C7FE9DF85C
:103D70000E30CDF800800133DBB28DF80E309DF8A7
:103D80000E300133DBB28DF80E309DF80E3001336A
:103D9000DBB28DF80E309DF80E300133DBB28DF8BA
:103DA0000E309DF80E700137022305AA04A9FFB258
:103DB00028468DF80E70FDF72FF9204601224FF4AA
:103DC0008071FEF79BFE0A20FDF794FC32462046E8
:103DD00041F26A034FF480712E61ADF81030FEF7A6
:103DE0008DFE9DF80D30CDF800800133DBB28DF8EB
:103DF0000D309DF80D300133DBB28DF80D309DF89C
:103E00000D300133DBB28DF80D309DF80D300133EC
:103E1000DBB28DF80D309DF80D700137022305AA35
:103E200004A9FFB228468DF80D70FDF7F5F820467D
:103E300001224FF48071FEF761FE0A20FDF75AFC63
:103E40003246204641F61B034FF480712E61ADF8D7
:103E50001030FEF753FE9DF80C30CDF80080013392
:103E6000DBB28DF80C309DF80C300133DBB28DF8ED
:103E70000C309DF80C300133DBB28DF80C309DF81E
:103E80000C300133DBB28DF80C309DF80C3001336F
:103E900005AA04A92846DDB202238DF80C50FDF7CF
:103EA000BBF8204601224FF48071FEF727FE0A205E
:103EB000FDF720FC06B0BDE8F08100BF0004024021
:103EC000B0020020F0B587B0002301280746ADF806
:103ED000103000F08E80C0F08880022879D0002356
:103EE000464E474833611A464FF48071FEF706FE8E
:103EF0009DF80E300133DBB28DF80E309DF80E3098
:103F00000133DBB28DF80E309DF80E300133DBB299
:103F10008DF80E309DF80E300133DBB28DF80E3087
:103F20009DF80E406423013405AA009304A90223DE
:103F3000E4B230468DF80E40FDF76EF801224FF4E2
:103F400080712F48FEF7DAFD9DF91550012F4FEAD9
:103F5000052546D041D3022F02D1C8238DF8103059
:103F600000231A464FF4807125483361FEF7C6FDE1
:103F70009DF80F3021480133DBB28DF80F309DF8EA
:103F80000F300133DBB28DF80F309DF80F30013365
:103F9000DBB28DF80F309DF80F300133DBB28DF8B6
:103FA0000F309DF80F406423013405AA04A9009343
:103FB000E4B202238DF80F40FDF72EF801224FF4F2
:103FC00080710F48FEF79AFD9DF81500284307B051
:103FD000F0BDC7238DF8103081E7C4238DF8103071
:103FE000BEE7C6238DF81030BAE7C3238DF8103032
:103FF00075E7C5238DF8103071E700BFB0020020CF
:104000000004024070B5161E07DD0C468D1914F829
:10401000010BFEF7B1FFAC42F9D1304670BD00BFD5
:10402000094A13686BB118446946884202D8106087
:1040300018467047054B0C221A604FF0FF331846A4
:104040007047034B1360EEE7F8010020C004002026
:10405000C80400204FF0FF30704700BF4FF40053FA
:104060004B600020704700BF012070470020704760
:1040700000207047DFF834D0002103E00C4B5B5880
:10408000435004310B480C4B42189A42F6D30B4A6A
:1040900002E0002342F8043B094B9A42F9D3FFF7B0
:1040A00053FC00F011F8FEF7C3FF70470000052035
:1040B000106C000800000020DC010020DC01002062
:1040C000C4040020FEE7000070B50D4E0D4CA41B8B
:1040D000A4100025A54209D10B4E0C4C02F0FEFBAA
:1040E000A41BA4100025A54205D170BD56F82530AB
:1040F00098470135EEE756F8253098470135F2E745
:10410000086C0008086C0008086C00080C6C0008BB
:1041100002440346934200D1704703F8011BF9E7BC
:104120002DE9FF4755EC104B0D9FDDF830A0002D19
:104130000E4691461946B8BF22462B4627F0200767
:10414000BBBF05F100431D4600232D23B8BF144615
:10415000462F0B7004D0452F00D10136022100E01C
:10416000032103AB019302AB00933246534645EC67
:10417000104B00F08DFD472F804602D119F0010F42
:1041800026D0462F08EB060911D198F80030302BC5
:104190000AD10022002320462946FCF7BDFC18B9AD
:1041A000C6F10106CAF80060DAF80030994400222E
:1041B000002320462946FCF7AFFC38B93022039B88
:1041C0004B4505D2591C03911A70F8E7CDF80C90B5
:1041D000039B0E9AA3EB08034046136004B0BDE8AE
:1041E000F087F7B500290446BABF49422D232B2397
:1041F000092904F8022B437020DD0DF107031F4647
:104200000A2691FBF6F506FB15113031092D03F84E
:10421000011C03F1FF32294609DC3031023B02F870
:10422000011CBB42224604D3101A03B0F0BD134652
:10423000E7E713F8012B04F8012BF2E730231944C8
:104240008370021DC170EFE72DE9F04F8DB00C4671
:10425000DDF8588016461F46054601F04BFC036802
:1042600004931846FBF7DCFF00230A93D8F80030CC
:104270000590073323F0070303F1080294F818A010
:10428000D4F800B0C8F80020D3E90023C4E9122311
:10429000D4E9128929F000430793CDF818804FF034
:1042A000FF32A74BDDE90601FCF768FC70BB4FF05D
:1042B000FF32A34BDDE90601FCF742FC30BB0022D4
:1042C000002340464946FCF731FC10B12D2384F809
:1042D00043309C4A9C4BBAF1470F8CBF904698469E
:1042E00003232BF00402236122604FF000090097A2
:1042F00033460BAA2146284600F0E6F9013040F08B
:104300008D804FF0FF300DB0BDE8F08F42464B4638
:1043100040464946FCF732FC10B18C4A8C4BDAE738
:1043200061684B1C4BF480620AA83ED1062363608F
:104330000023CDE9020309AB009349EC108B0DF18A
:1043400023032260CDF804A061682846FFF7E8FE49
:104350000AF0DF03472B804609D1099BD81C02DBFA
:104360006268934247DDAAF1020A5FFA8AFABAF15B
:10437000650F099924D80139524604F1500009917A
:10438000FFF72FFF0A9A1318012A8146236102DCE6
:104390002268D10701D5013323619DF82330002B1A
:1043A000A5D02D2384F84330A1E7BAF1670F00F0C0
:1043B0007781BAF1470FBBD10029B9D10123B6E704
:1043C000BAF1660F19D1002963680CDD216113B9B8
:1043D0002268D20702D501330B442361099BA365F0
:1043E0004FF00009D9E713B92268D00701D502338D
:1043F000F3E70123F1E74FF0670ADDE90932934261
:1044000005DB22682361D107E8D50133E5E7002BFE
:10441000D4BFC3F1020301231344DEE723685A0526
:1044200007D42369424631462846B84701302BD18C
:1044300067E7BAF1650F40F2DC8000220023D4E97F
:104440001201FCF769FB002833D00123414A3146B1
:104450002846B84701303FF454AFDDE909239A42BA
:1044600002DB2368D8070FD5DDE90423314628464F
:10447000B84701303FF445AF4FF0000804F11A0986
:104480000A9B013B434509DC23689B0700F103813C
:10449000E0680B9B9842B8BF184634E701234A46B0
:1044A00031462846B84701303FF42BAF08F10108E8
:1044B000E6E7099B002B2BDC0123264A31462846E0
:1044C000B84701303FF41DAF099B23B90A9B13B9CC
:1044D0002368D907D8D5DDE9042331462846B847F3
:1044E00001303FF40EAF4FF0000904F11A0A099BA6
:1044F0005B424B4501DC0A9B94E70123524631465F
:104500002846B84701303FF4FCAE09F10109EEE757
:104510000A9AA36D9A42A8BF1A46002A914607DD5F
:104520001346314642462846B84701303FF4E9AECB
:1045300004F11A034FF0000B29EAE979069315E01C
:10454000FFFFEF7F44690008406900084C690008DC
:1045500048690008506900080123069A3146284638
:10456000B84701303FF4CDAE0BF1010BD4F858A0A1
:10457000AAEB09035B45EFDCDDE909239A42D0444D
:1045800015DB2368DA0712D40A9B0999A3EB0A0208
:10459000A3EB010A9245A8BF9246BAF1000F0EDCC8
:1045A0004FF000082AEAEA7A04F11A0919E0DDE975
:1045B000042331462846B8470130E5D1A1E65346E9
:1045C000424631462846B8470130E9D199E60123F1
:1045D0004A4631462846B84701303FF492AE08F1CA
:1045E0000108DDE909239B1AA3EB0A034345EEDC2E
:1045F0004AE70A9A012A01DCDB073AD50123424641
:1046000031462846B84701303FF47BAEDDE904234C
:1046100031462846B847013008F101083FF471AE31
:104620000A9B002203F1FF3AD4E912010023FCF7B0
:1046300073FAC8B95346424631462846B847013056
:104640000ED15EE60123524631462846B847013076
:104650003FF457AE08F101080A9B013B4345F1DCEA
:104660004B4604F15002DEE64FF0000804F11A0A4E
:10467000F2E70123DFE701234A4631462846B847DF
:1046800001303FF43EAE08F10108E3680B9A9B1A33
:104690004345F0DCFCE64FF0000804F11909F4E7AB
:1046A00000293FF48BAE0023CDE9020309AB009350
:1046B00049EC108B2260CDF804A00DF123032846AD
:1046C000FFF72EFD804648E62DE9F04791461F464C
:1046D0008A680B69DDF820809342B8BF1346C9F899
:1046E000003091F8432006460C4612B10133C9F858
:1046F00000302368990642BFD9F800300233C9F868
:104700000030256815F0060507D104F1190AE368A1
:10471000D9F800209B1AAB4228DC94F84330226879
:10472000003318BF012392062DD404F14302394609
:104730003046C047013020D02368E568D9F8002012
:1047400003F00603042B08BFAD1AA36822690CBF4F
:1047500025EAE57500259342C4BF9B1AED184FF07A
:1047600000091A344D451AD1002008E001235246B1
:1047700039463046C047013003D14FF0FF30BDE825
:10478000F0870135C3E7E1185A1C302081F8430057
:10479000224494F8451082F843100233C5E7012300
:1047A000224639463046C0470130E6D009F10109BA
:1047B000D8E700002DE9F04301F1430C0C46097ED7
:1047C00085B06E291746064698460C9A00F0B380CD
:1047D00022D8632936D00AD8002900F0B980582998
:1047E00000F0838004F1420584F8421032E064292D
:1047F00001D06929F6D120681368050603F1040188
:104800002AD51B681160002B03DA2D225B4284F845
:1048100043206F480A2239E0732900F09D8008D8B0
:104820006F2920D07029DDD1236843F02003236055
:1048300003E0752917D07829D4D1782384F845303E
:10484000644855E01368191D1B68116004F14205A6
:1048500084F8423001238CE01B68116010F0400F97
:1048600018BF1BB2CFE713682568181D1060280613
:1048700001D51B6802E06806FBD51B8854486F29E8
:1048800014BF0A220822002184F843106568A5603D
:10489000002DC0F29580216821F004012160002BD9
:1048A0003DD1002D40F08E806546082A0BD123684B
:1048B000DB0708D5236962689A42DEBF302305F81A
:1048C000013C05F1FF35ACEB05032361CDF8008019
:1048D0003B4603AA21463046FFF7F6FE01304DD194
:1048E0004FF0FF3005B0BDE8F083394884F845103B
:1048F000136821681D1D1B6815600A060BD5CA07C1
:1049000044BF41F0200121601BB9226822F020023F
:1049100022601022B7E74D0648BF9BB2EFE765461D
:10492000B3FBF2F102FB1133C35C05F8013D0B460A
:104930000029F5D1B9E7136825686169181D106071
:1049400028061B6801D5196002E06A06FBD51980AC
:10495000002323616546B9E71368191D11601D68BE
:10496000626800212846FBF763FC08B1401B6060C9
:1049700063682361002384F84330A7E723692A464C
:1049800039463046C0470130AAD023689B0713D46C
:10499000E068039B9842B8BF1846A3E701234A4644
:1049A00039463046C04701309AD00135E368039A52
:1049B0009B1AAB42F2DCEBE7002504F11909F5E79D
:1049C000002BACD1037884F8423004F142056CE747
:1049D00052690008636900080FB40A4B13B51C68DC
:1049E00024B1A36913B9204600F0FAFF05AB049A7D
:1049F000A1680193204601F0BDFC02B0BDE8104063
:104A000004B070470C00002000294FF480630CBFF5
:104A10000222002200F000B82DE9F7431D46514B59
:104A20001E6804460F46904626B1B36913B9304656
:104A300000F0D6FF4C4B9C4252D17468B8F1020F83
:104A400006D0B8F1010F00F28980002DC0F28680F7
:104A50002146304600F05AFF616B41B104F1440336
:104A6000994202D0304601F0B3FB00236363002378
:104A7000A3616360A3891B0603D52169304601F059
:104A8000A7FBA38923F44A6323F00303B8F1020FC1
:104A9000A3815DD001AB6A462146304601F038F86B
:104AA000A3891843A0812DBB009D284601F094F8EE
:104AB000074600284ED1DDF80090A9453CD14FF0C3
:104AC000FF30A38943F00203A3810023A36004F114
:104AD0004703236023610123636103B0BDE8F083D2
:104AE000224B9C4201D1B468A8E7214B9C4208BFED
:104AF000F468A3E7002FD8D0B36913B9304600F0AB
:104B00006FFFB8F1010F08BFA389276004BF43F00E
:104B10000103A381A38913F00800C4E904751BD025
:104B200013F0010018BF6D424FF000031DBFA360DA
:104B3000A5611846A560D0E7484601F04DF8074644
:104B40000028BCD0A38943F08003A3814D46D3E75E
:104B50000020B6E7A946F5E7A060BEE74FF0FF30BA
:104B6000BBE700BF0C000020A4690008C46900086E
:104B7000846900082DE9F74F03690C69A342804658
:104B8000C0F28280013C01F114074FEA840C00F16D
:104B9000140657F8245056F8240006EB0C03013590
:104BA00007EB0C090193B0FBF5F595B34FF0000A44
:104BB0003846B646D34650F8042B93B205FB03A300
:104BC0004FEA134A9BB2ABEB0303120CDEF800B0C2
:104BD00005FB02A213FA8BF34FEA124A1FFA82FB7B
:104BE000DEF80020CBEB124202EB23429BB243EAF9
:104BF000024381454FEA224B4EF8043BDBD256F884
:104C00000C3033B9019B043B9E421A4630D3C8F89E
:104C10001040404601F008FA002825DB01353046F7
:104C20004FF0000C57F8042BD0F800E093B2ACEB37
:104C30000303120C13FA8EF3C2EB1E4202EB234263
:104C40009BB243EA0243B9454FEA224C40F8043B89
:104C5000E8D256F8242006EB84032AB9043B9E428E
:104C60001A460BD3C8F81040284603B0BDE8F08FB1
:104C70001268043B002ACAD1013CC5E71268043B14
:104C8000002AEFD1013CEAE70020EEE70000000037
:104C90002DE9F04F57EC106B97B0456A069104462A
:104CA0000B921293DDF88080CDE900673DB91020AA
:104CB00000F092FF6062C0E901550560C560636A5B
:104CC000196851B15A684A60012393408B602046AD
:104CD00000F0C9FF636A00221A603B1EBBBF23F0CD
:104CE0000043019300230122ACBFC8F80030C8F88C
:104CF0000020AF4BDDF8048033EA080314D1129A88
:104D000042F20F731360009B23B9C8F3130000280D
:104D100000F04285219BDFF8ACB2002B00F0448507
:104D20000BF1030300F03EBDDDE900670022002324
:104D300030463946FBF7F0FE814668B1129A0123EE
:104D40001360219B002B00F024859A4B219A03F1DC
:104D5000FF3B136000F028BD14AA15A947EC106BA7
:104D6000204601F0D8F9C8F30A550490002D7CD0F4
:104D7000C7F3130343F07F5BB2464BF4401BA5F22D
:104D8000FF35CDF84C9000228B4B50465946FBF72F
:104D9000A3FA81A3D3E90023FBF756FC80A3D3E950
:104DA0000023FBF79BFA064628460F46FBF7E2FB7B
:104DB0007DA3D3E90023FBF747FC02460B463046B0
:104DC0003946FBF78BFA06460F46FBF7EDFE00224D
:104DD0008246002330463946FBF7A8FE48B15046CC
:104DE000FBF7C8FB32463B46FBF796FE08B90AF1D3
:104DF000FF3ABAF1160F59D8704901EBCA01DDE943
:104E00000023D1E90001FBF7AFFE002850D00AF1E2
:104E1000FF3A00230F93149B5D1BB5F1010849BFB6
:104E2000C5F10103002305934FF0000858BF059317
:104E3000BAF1000F3EDB0023D044CDF838A0079331
:104E4000069B092B00F29080052BC4BF043B069300
:104E5000069BA3F10203CCBF00250125032B00F222
:104E60008F80DFE803F07D7F3171DDE914531D444D
:104E700005F23240202813DDC0F14000009B08FA03
:104E800000F805F2124023FA00F048EA0000FBF7B0
:104E900061FB01238246A1F1F87B013D139372E788
:104EA000009BC0F1200003FA00F0F0E70123B1E716
:104EB0000F90B0E7059BA3EB0A030593CAF100032B
:104EC000079300230E93BBE701230A930B9B002B50
:104ED00059DD02939946666A00227260042202F14B
:104EE00014009842716853D9204600F088FE636A26
:104EF0003060B9F10E0FD3F800B000F2E680002D5B
:104F000000F0E3809DED007BBAF1000F8DED107B8A
:104F100074DD2A4A0AF00F0302EBC30393ED007B12
:104F20004FEA2A16F0068DED087B65D5244BDDE9A6
:104F30001001D3E90823FBF7B1FCCDE9000106F02D
:104F40000F0603251E4F4CE001230A930B9B53448D
:104F500003F1010902934B46012BB8BF0123BAE7C5
:104F60000023B2E70023F0E70125002306930A950A
:104F70004FF0FF3302939946002212230B92AAE7C7
:104F800001230A93F4E70123029399461A46F5E7B1
:104F9000013171605200A2E761436F63A787D23F7E
:104FA000B3C8608B288AC63FFB799F501344D33F18
:104FB0000000F07F516900080000F83F106A000807
:104FC000E86900087D690008F10708D5DDE90801F6
:104FD000D7E90023FBF738FBCDE90801013576104E
:104FE0000837002EF0D1DDE90823DDE90001FBF7E9
:104FF00055FCCDE900011AE00225A3E700F0A080EE
:10500000CAF100069F4BA04F06F00F0203EBC2034C
:10501000D3E90023DDE91001FBF716FBCDE9000120
:10502000361100230225002E7FD1002BE1D10F9BEA
:10503000002B00F08780DDE900670022934B3046AB
:105040003946FBF773FD00287CD0B9F1000F79D009
:10505000029B002B35DD0AF1FF330893394600220D
:105060008B4B3046FBF7F0FACDE90001029F01358A
:105070002846FBF77FFADDE90023FBF7E5FA00227B
:10508000844BFBF72BF90546A1F15076002F5DD13B
:105090000022814BDDE90001FBF71EF92A46334669
:1050A000CDE90001FBF760FD002840F088822A4628
:1050B00006F10043DDE90001FBF738FD002840F070
:1050C0007C82DDE91023CDE90023159B002BC0F283
:1050D0005081BAF10E0F00F34C816A4B03EBCA0307
:1050E00093ED007B0B9B002B8DED027B80F2D88033
:1050F000B9F1000F00F3D48040F05E820022664BCD
:1051000051EC170BFBF7A0FADDE90023FBF722FDBA
:105110004F464E46002840F0348231230BF1010502
:105120008BF800300AF1010A2FE2F20705D5D7E922
:105130000023FBF789FA013501237610083772E75F
:10514000022574E7CDF820A04F4691E74D4B03EBC5
:10515000C70353E902010A9B002B47D002460B46C6
:1051600000204E49FBF79AFB2A463346FBF7B4F87A
:10517000CDE90C015D46DDE90001FBF715FD0646B2
:10518000FBF7F8F902460B46DDE90001FBF7A4F84E
:10519000303605F8016BDDE90C23CDE90001FBF7A2
:1051A000C5FC002863D1DDE9002300203749FBF767
:1051B00093F8DDE90C23FBF7B9FC002840F0B78039
:1051C000A5EB0B039F427FF77CAF0022304BDDE95C
:1051D0000C01FBF739FA0022CDE90C012C4BDDE97B
:1051E0000001FBF731FACDE90001C4E72A46334656
:1051F000FBF72AFACDE90C010BEB07055E46DDE96A
:105200000001FBF7D1FC0746FBF7B4F93037024643
:105210000B46DDE90001FBF75FF806F8017BAE42C3
:10522000CDE900014FF0000226D11C4BDDE90C0155
:10523000FBF754F802460B46DDE90001FBF794FC4E
:10524000002874D1DDE90C2300201449FBF744F851
:1052500002460B46DDE90001FBF768FC00283FF43D
:1052600030AF15F8013C302B05F1FF3202D0DDF8EC
:1052700020A04AE01546F4E7054BFBF7E5F9CDE938
:105280000001BCE7106A0008E86900080000F03F70
:105290000000244000001C40000014400000E03FDB
:1052A000DDE900675D46DDE9022330463946FBF75C
:1052B000F5FAFBF779FC8046FBF75CF9DDE90223A0
:1052C000FBF7C2F902460B463046394608F1300674
:1052D000FBF702F805F8016BA5EB0B06B14502469A
:1052E0000B4639D1FAF7FAFFDDE9022306460F46ED
:1052F000FBF73AFCC8B9DDE9022330463946FBF733
:105300000BFC10B118F0010F0FD10499204600F0EA
:10531000AAFC0023129A2B700AF101031360219B4F
:10532000002B00F041821D603EE2CDF820A015F870
:10533000012C392A05F1FF3308D19B450AD1089B7E
:105340000133089330238BF800305B461A78013222
:105350001A708CE71D46EAE700229B4BFBF774F9B5
:105360000022002306460F46FBF7D6FB00289AD002
:10537000CBE70A9A002A00F08B80069A012A6EDC9D
:10538000139A002A67D003F23343079F059D059ABD
:1053900001211A4420460592984400F004FD064677
:1053A000002D0CDDB8F1000F09DD4545059A2B46AF
:1053B000A8BF4346D21A0592ED1AA8EB0308079B33
:1053C000EBB10A9B002B67D08FB131463A4620469D
:1053D00000F088FD049A01460646204600F0ECFCE9
:1053E00004990890204600F03EFC089B0493079B1C
:1053F000DA1B04D00499204600F074FD04900121CA
:10540000204600F0D0FC0E9B0746002B00F0D08118
:105410001A460146204600F065FD069B012B074613
:1054200040DC009B002B39D1019BC3F31303002BFD
:1054300036D1019B23F000431B0D1B052BB1059BAF
:105440000133059308F10108012307930E9B002BFC
:105450002AD1012030E0149BC3F1360395E7079B66
:1054600009F1FF37BB42BFBF079B0797FA1A0E9B94
:10547000BBBF9B180E93DF1B0027B9F1000FB5BF10
:10548000059B059DA3EB09054B46B8BF00237EE7AE
:10549000079F059D0A9E83E7079AABE70023D4E7A1
:1054A000009BD2E7002307933B6907EB830318694E
:1054B00000F02BFCC0F12000404410F01F0047D04A
:1054C000C0F12003042B3BDD059BC0F11C0003440D
:1054D000059305448044059B002B05DD1A4604997D
:1054E000204600F04DFD0490B8F1000F05DD39466F
:1054F0004246204600F044FD07460F9B53B3394611
:10550000049800F091FD002824DA00230A2204996F
:10551000204600F0BFFB0A9B04900AF1FF3A002BE3
:1055200000F04D81002331460A22204600F0B2FBF4
:10553000029B002B06464FDC069B022B4CDD11E044
:10554000C9D0059A1C331A4405921D449844C2E7F9
:105550000346F6E7B9F1000F38DC069B022B35DD78
:10556000CDF80890029B63B939460522204600F029
:1055700091FB01460746049800F056FD00283FF7CE
:10558000CCAD0B9B5D466FEA030A4FF0000939462C
:10559000204600F068FB002E3FF4B7AEB9F1000FD3
:1055A00005D0B14503D04946204600F05CFB3146AA
:1055B000204600F058FBA8E600273E46E1E7DDF86C
:1055C00020A03E46A9E500BF000024400A9BCDF87C
:1055D0000890002B00F0FA80002D05DD31462A46A8
:1055E000204600F0CDFC0646079B002B4CD071688E
:1055F000204600F004FB326902320546920006F1B3
:105600000C010C3000F0F0FA01222946204600F08F
:10561000B7FC009BCDF814B003F00103B14607932B
:10562000064639460498FFF7A5FA4946054600F1B3
:105630003008049800F0F8FC3246009039462046C5
:1056400000F00CFDC368024603BB014608900498B5
:1056500000F0EAFC089A034611462046089300F041
:1056600002FB089BA3B9069A92B9079A82B9B8F1CE
:10567000390F29D0009B002B01DD05F13108059B76
:105680005D1C83F8008082E73046C2E70123E3E730
:10569000009A002A04DB25D1069A1ABB079A0ABB96
:1056A000002BECDD01220499204600F069FC39460C
:1056B000049000F0B9FC002803DCE0D118F0010FE1
:1056C000DDD0B8F1390FD8D1059B059A5D1C39237F
:1056D000137015F8013C392B05F1FF324FD001331F
:1056E000137054E7059A002B02F1010506DDB8F1AD
:1056F000390FE9D008F10108059BC2E7029A05F8C5
:10570000018CA5EB0B03934221D000230A220499BC
:10571000204600F0BFFAB14504904FF000034FF06F
:105720000A024946204605D100F0B4FA81460646F1
:10573000059576E700F0AEFA3146814600230A224D
:10574000204600F0A7FA0646F2E74FF000090122D2
:105750000499204600F014FC3946049000F064FCE3
:105760000028B6DC02D118F0010FB2D115F8013CC7
:10577000302B05F1FF327FF40AAF1546F6E793456B
:1057800005D131230AF1010A8BF80030FFE61546F6
:105790009FE7DFF864B007E0219BDFF860B01BB142
:1057A0000BF10803219A1360584617B0BDE8F08F3B
:1057B000069B012B7FF735AE0E9B079349E6029BB4
:1057C000002B03DC069B022B3FF7CCAE5D4639462F
:1057D0000498FFF7CFF900F1300805F8018B029A21
:1057E000A5EB0B039A42B0DD00230A220499204660
:1057F00000F050FA0490EAE7506900087469000864
:105800008A892DE9F041054610070C4658D44B68AB
:10581000002B05DC0B6C002B02DC0020BDE8F081C6
:10582000E66A002EF9D0002312F480522F68216A14
:105830002B6032D0606DA3895A0705D56368C01A02
:10584000636B0BB1236CC01A00230246E66A216A1F
:105850002846B047431CA38906D129681D2948D88A
:10586000294ACA40D60744D500226260D904226979
:10587000226004D5421C01D12B6803B96065616BBD
:105880002F600029C9D004F14403994202D0284670
:1058900000F09EFC00206063C0E701232846B0476B
:1058A000411CC8D12B68002BC5D01D2B01D0162B55
:1058B00001D12F60B1E7A38943F04003A381ADE795
:1058C0000F69002FA9D093070E6808BF4B690F60BE
:1058D00018BF0023A6EB07088B60B8F1000F9CDD12
:1058E00043463A46216AA66A2846B047002806DCA5
:1058F000A38943F04003A3814FF0FF308EE70744B4
:10590000A8EB0008E9E700BF0100402038B50B69AB
:1059100005460C46DBB118B183690BB900F060F89D
:105920000C4B9C4209D16C68B4F90C307BB1214618
:105930002846BDE83840FFF763BF074B9C4201D1C2
:10594000AC68F1E7054B9C4208BFEC68ECE700202F
:1059500038BD00BFA4690008C46900088469000854
:10596000002310B50446C0E900338360818143669B
:10597000C281C0E904338361194608225C30FEF716
:10598000C7FB054B6362054BA362054BE362054B06
:105990002462236310BD00BFC1650008E3650008F1
:1059A0001B6600083F660008014900F085B800BF8B
:1059B0000D59000870B54A1E682555430E4605F17D
:1059C000740100F053FC044640B10021C0E9001608
:1059D0000C30A06005F16802FEF79AFB204670BD0E
:1059E000836910B5044633BBC0E912330365124B1B
:1059F000124A1B688262984204BF0123836100F04F
:105A00001FF86060204600F01BF8A060204600F000
:105A100017F80022E06004216068FFF7A1FF01226F
:105A20000921A068FFF79CFF02221221E068FFF71E
:105A300097FF0123A36110BD3C690008A959000824
:105A4000F8B51B4B1E68B369074613B93046FFF71C
:105A5000C7FF4836D6E90134013B03D5336833B17B
:105A60003668F7E7B4F90C506DB16834F4E70421F7
:105A70003846FFF79FFF30600028F1D10C233B60D0
:105A800004462046F8BD0B4B6566C4E90055A56089
:105A9000C4E90335C4E905550822294604F15C0030
:105AA000FEF736FBC4E90D55C4E91255E9E700BF1E
:105AB0003C6900080100FFFF2DE9F8438046894654
:105AC00000F14804002614B93046BDE8F883D4E953
:105AD0000175013F01D52468F5E7AB89012B07D992
