:020000040800F2
:1000000000000520B1240008DD080008E108000810
:10001000E5080008E9080008ED08000800000000F5
:10002000000000000000000000000000F1080008CF
:10003000F508000800000000F9080008FD080008A5
:1000400001250008012500080125000801250008F8
:1000500001250008012500080125000801250008E8
:1000600001250008012500080125000801250008D8
:1000700001250008012500080125000801250008C8
:1000800001250008012500080125000801250008B8
:1000900001250008012500080125000801250008A8
:1000A0000125000801250008012500080125000898
:1000B0000125000801250008012500080125000888
:1000C0000125000801250008012500080125000878
:1000D0000125000801250008012500080125000868
:1000E0000125000801250008012500080125000858
:1000F0000125000801250008012500080125000848
:100100000125000801250008012500080125000837
:100110000125000801250008012500080125000827
:100120000109000801250008012500080125000833
:100130000125000801250008012500080125000807
:1001400001250008012500080125000801250008F7
:1001500001250008012500080125000801250008E7
:1001600001250008012500080125000801250008D7
:100170000125000801250008000000000000000023
:1001800001250008012500080125000801250008B7
:1001900001250008012500080000000001250008D5
:1001A00001250008012500080000000000000000F3
:1001B00001250008000000000000000001250008E3
:1001C0000125000801250008012500080125000877
:0801D0000125000801250008CB
:1001D80010B5054C237833B9044B13B10448AFF379
:1001E80000800123237010BD0C00002000000000D7
:1001F8004C25000808B5034B1BB103490348AFF36E
:10020800008008BD00000000100000204C250008F8
:1002180053B94AB9002908BF00281CBF4FF0FF3165
:100228004FF0FF3000F072B9ADF1080C6DE904CE63
:1002380000F006F8DDF804E0DDE9022304B07047B9
:100248002DE9F047089E04468846002B4BD18A4288
:10025800154667D9B2FA82F24AB1C2F1200701FA0B
:1002680002F320FA07F7954047EA030894404FEA5B
:10027800154E230CB8FBFEF71FFA85FC0EFB1788FA
:1002880043EA084307FB0CF1994209D9EB1807F137
:10029800FF3080F01B81994240F21881023F2B44C5
:1002A8005B1AA4B2B3FBFEF00EFB103344EA03441E
:1002B80000FB0CFCA44509D92C1900F1FF3380F090
:1002C8000781A44540F2048102382C4440EA0740E3
:1002D800A4EB0C0400271EB1D4400023C6E9004358
:1002E8003946BDE8F0878B4209D9002E00F0EB8033
:1002F8000027C6E9000138463946BDE8F087B3FA59
:1003080083F7002F47D18B4202D3824200F2FA8052
:10031800841A61EB030301209846002EE0D0C6E959
:100328000048DDE702B9FFDEB2FA82F2002A40F0A7
:100338008F80491B4FEA154E1FFA85F80127B1FB3C
:10034800FEFC230C0EFB1C1143EA014308FB0CF1D5
:10035800994207D9EB180CF1FF3002D2994200F20A
:10036800CD808446591AA3B2B1FBFEF00EFB1014DF
:1003780043EA044408FB00F8A04507D92C1900F10A
:10038800FF3302D2A04500F2B6801846A4EB080459
:1003980040EA0C409FE7C7F1200CBB4022FA0CFE54
:1003A8004EEA030E01FA07F420FA0CF521FA0CF3D1
:1003B8004FEA1E482543B3FBF8F92C0C08FB193308
:1003C8001FFA8EFA44EA034309FB0AF49C4202FA34
:1003D80007F200FA07F10BD91EEB030309F1FF300E
:1003E80080F087809C4240F28480A9F1020973441E
:1003F8001B1BADB2B3FBF8F008FB103345EA03440E
:1004080000FB0AFAA24508D91EEB040400F1FF33E9
:100418006BD2A24569D90238744440EA0940A0FB6E
:100428000289A4EB0A044C45C2464B4654D351D02A
:10043800002E69D0B1EB0A0564EB030404FA0CFC46
:10044800FD40FC404CEA0505C6E90054002747E793
:10045800C2F1200320FA03F7954001FA02F021FACD
:1004680003F34FEA154E3843010CB3FBFEF71FFAAE
:1004780085F80EFB173341EA034107FB08F38B426B
:1004880004FA02F407D9691807F1FF3C2FD28B420E
:100498002DD9023F2944CB1A81B2B3FBFEF00EFBE3
:1004A800103341EA034100FB08F38B4207D969186E
:1004B80000F1FF3C17D28B4215D902382944C91ADA
:1004C80040EA07473BE73746304609E70746E7E68D
:1004D8001846FBE64145ABD2B8EB020A69EB0E02BF
:1004E80001381346A4E76046E9E7184695E76746EA
:1004F800D1E781467CE702382C4447E7ACF1020C8F
:100508002B442FE7384608E73746E9E6704700BF2F
:1005180000283BD090F85120002370B502F0FF016D
:100528000446836262B31846D4E90135D4E903214D
:100538002B4313436269E569266A0B431343A26997
:1005480021682B43022584F85150334302F4007587
:100558000E682B43120C656A02F0040203432A4317
:1005680026F040060E600B604A60CB69002223F437
:1005780000630125CB611046626584F8515070BD57
:1005880080F8501001F05CFDA06ACDE701207047AB
:10059800174908B58B6803F00C03042B1BD0082BF4
:1005A80017D14A684B6813F4800302F03F0214D154
:1005B80049681048C1F38811A1FB0001FFF728FE24
:1005C8000B4B5B68C3F3014301335B00B0FBF3F0F3
:1005D80008BD084808BD084808BD4B680648C3F36D
:1005E8008813A3FB00010023FFF712FEE8E700BF12
:1005F800003802400024F40040787D0160B1484A88
:10060800136803F00F038B4208D2CBB21370136840
:1006180003F00F038B4201D00120704703682DE9D6
:10062800F0419D0714D55C0704D53E4CA26842F4FE
:10063800E052A2601A0704D53A4CA26842F460421C
:10064800A260384C8568A26822F0F0022A43A260B2
:10065800DF0704460D4622D54268012A56D0931E6C
:10066800012B304B1B6858D9990725D52D4EB368F7
:1006780023F003031343B36000F08EF941F2883787
:10068800804605E000F088F9A0EB0800B84242D89F
:10069800B368626803F00C03B3EB820FF2D1204A0F
:1006A800136803F00F03AB4209D9EBB21370136858
:1006B80003F00F03AB4202D00120BDE8F0812368AC
:1006C8005A0706D51749E0688A6822F4E0520243BF
:1006D8008A601B0711D4FFF75BFF124B12499B6816
:1006E800124AC3F30313CB5C20FA03F30020136010
:1006F80000F008F90020BDE8F0810A4A21699368F2
:1007080023F4604343EAC1039360E4E7054B1B68A5
:100718009E03ABD4D0E70320EDE79801A6D4CBE73E
:10072800003C0240003802406C2500080800002008
:10073800044B054A9B680549C3F382230868D35CC8
:10074800D8407047003802407C2500080800002087
:10075800044B054A9B680549C3F342330868D35CD8
:10076800D8407047003802407C2500080800002067
:10077800074AD3684FF6FF010B40000243F0BF63FE
:1007880000F4E06043F400330343D360704700BFD4
:1007980000ED00E0184BDB68C3F3022330B4C3F16B
:1007A8000705042D03F1040428BF0425062C19D9D4
:1007B800033B4FF0FF349C4022EA04044FF0FF3221
:1007C800AA4021EA020101FA03F222431201002899
:1007D800D2B20ADB00F1604000F5614080F80023E6
:1007E80030BC704700242346E8E7044B00F00F00B4
:1007F80003441A7630BC704700ED00E0FCEC00E0E2
:10080800002807DB00F01F0101234009024A8B4042
:1008180042F82030704700BF00E100E00138B0F135
:10082800807F0ED2084B10B4084C5860F02084F832
:1008380023000022072110469A6019605DF8044BD6
:1008480070470120704700BF10E000E000ED00E0B5
:1008580010B582B000241E4B00945A6C42F48042BA
:100868005A645A6C02F480420092009A01941A6CFD
:1008780042F080521A641B6C03F0805301932246A5
:1008880001216FF00B00019BFFF784FF2246012135
:100898006FF00A00FFF77EFF224601216FF0090082
:1008A800FFF778FF224601216FF00400FFF772FF7F
:1008B800224601216FF00300FFF76CFF2246012159
:1008C8006FF0010002B0BDE81040FFF763BF00BF42
:1008D80000380240704700BFFEE700BFFEE700BFD8
:1008E800FEE700BFFEE700BF704700BF704700BFCC
:1008F800704700BF00F044B8014800F033BB00BFA8
:100908007400002038B50E4A0E4B12781B68054655
:100918004FF47A70B0FBF2F0B3FBF0F0FFF77EFF14
:1009280008B90F2D01D9012038BD044602462946D1
:100938004FF0FF30FFF72EFF034B20461D6038BDF8
:1009480000000020080000200400002008B50B4B20
:100958001A6842F400721A601A6842F480621A60D7
:100968001A6842F480721A600320FFF701FF002022
:10097800FFF7C8FFFFF76CFF002008BD003C0240EE
:10098800034A044B11681B780B441360704700BF7F
:100998002800002000000020014B1868704700BFA5
:1009A8002800002038B50446FFF7F6FF631C05460B
:1009B80002D0044B1B781C44FFF7EEFF401BA042FB
:1009C800FAD338BD0000002000285CD0F8B590F8B4
:1009D8003D30044603F0FF02BBB322683A4EA569D6
:1009E800E0686168022384F83D30B24213684CD055
:1009F800B2F1804F58D0A6F57C46B2422AD006F50F
:100A08008066B24226D006F58066B24222D006F54C
:100A18007846B2421ED006F57056B24213D006F59B
:100A28008066B2420FD006F58066B2420BD0A6F5BA
:100A38009836B24207D006F58066B24203D006F572
:100A48008066B24238D1266933E080F83C2001F054
:100A5800D1FCC2E7A6681D4F23F070033343266913
:100A680023F44073334323F080032B43BA421360CB
:100A7800D062916201D1636913630123536100203D
:100A880084F83D30F8BD01207047A768266923F037
:100A980070033B4323F44073334323F080032B4319
:100AA8001360D0629162E6E7A768266923F07003B5
:100AB8003B4323F44073334323F080032B431360F9
:100AC800D0629162D9E700BF0000014000040140F4
:100AD80000285CD0F8B590F83D30044603F0FF02DA
:100AE800BBB322683A4EA569E0686168022384F8BE
:100AF8003D30B24213684CD0B2F1804F58D0A6F5C1
:100B08007C46B2422AD006F58066B24226D006F567
:100B18008066B24222D006F57846B2421ED006F56B
:100B28007056B24213D006F58066B2420FD006F571
:100B38008066B2420BD0A6F59836B24207D006F5C9
:100B48008066B24203D006F58066B24238D1266983
:100B580033E080F83C2001F035FCC2E7A6681D4F61
:100B680023F070033343266923F44073334323F09F
:100B780080032B43BA421360D062916201D163694A
:100B8800136301235361002084F83D30F8BD012030
:100B98007047A768266923F070033B4323F440732A
:100BA800334323F080032B431360D0629162E6E75E
:100BB800A768266923F070033B4323F4407333434B
:100BC80023F080032B431360D0629162D9E700BF02
:100BD800000001400004014090F83C30012B00F077
:100BE800CC80F0B40223012480F83C4080F83D30EA
:100BF8000C2A35D8DFE802F0073434346A34343448
:100C0800963434343D000368D1F808C01D6A0F6873
:100C1800744E25F001051D621A6A5D689C6922F010
:100C2800020224F07304B34242EA0C0244EA0704C5
:100C380000F0BB8006F58066B34200F0B6804E68CF
:100C48005D609C615E631A629C690D6944F00804EA
:100C58009C61996921F0040199619A692A439A6112
:100C68000023012280F83D2080F83C30F0BC184673
:100C780070470368D1F808C01D6A0F68594E25F4FB
:100C880080551D621A6A5D68DC6922F4005224F4FA
:100C9800E644B34242EA0C3244EA07246FD006F530
:100CA8008066B3426BD04E685D60DC611E641A6278
:100CB800DC690D6944F40064DC61D96921F4806160
:100CC800D961DA6942EA0522DA61C9E703688F68FF
:100CD8001D6A0E68DFF80CC125F010051D621A6A3E
:100CE8005D689C6922F0200224F4E644634542EAE8
:100CF800071244EA062465D03B4FBB4262D04E68D7
:100D08005D609C619E631A629C690D6944F400648D
:100D18009C61996921F4806199619A6942EA052286
:100D28009A619DE703688F681D6A0E68DFF8B4C092
:100D380025F480751D621A6A5D68DC6922F4007208
:100D480024F07304634542EA072244EA06041CD0EF
:100D5800254FBB4219D04E685D60DC61DE631A62C4
:100D6800DC690D6944F00804DC61D96921F00401EB
:100D7800D961DA692A43DA6172E7022070474E695D
:100D880025F4804545EA86158DE7CE6822F4006291
:100D980042EA0622D1E9056725F4405C46EA0705E0
:100DA80022F480624CEA0515D5E7CE6822F00802E5
:100DB8003243D1E9056725F440753E4322F0040229
:100DC80035433CE7CE6822F0800242EA0612D1E9B8
:100DD800056725F4406C46EA070522F040024CEA14
:100DE80085058CE7000001400004014090F83C2094
:100DF800012A1AD070B40222046880F83D20D1E993
:100E0800006503466068A26820F0700122F0800245
:100E180031432A430126002561602846A26083F8F1
:100E28003D6083F83C5070BC70470220704700BF9B
:100E3800F8B50446FFF7B0FD002C54D00222236811
:100E480084F835201A68002122F0010284F8341051
:100E580005461A6005E0FFF79FFD401B05283BD8B3
:100E680023681A68D107F6D4D4E90126D4E90351D6
:100E7800324360691F682A43D4E906650A4302437E
:100E8800216A354832432A430A43616A38400429B3
:100E980042EA000229D01A605A6922F00702114377
:100EA800DAB22E485961103AA0FB021212092C49F5
:100EB80023F47F73895CE16523F00303032A88BF69
:100EC80004333F228A4001250021A36508469A6021
:100ED800616584F83550F8BD032320226265184601
:100EE80084F83530F8BD0120F8BDD4E90B01014381
:100EF8000A43A56A1A605A6945F0040122F00702FC
:100F080011430028CCD07EB1B6F5005F16D0022D73
:100F180003D9032DC4D1C201C2D501234022626581
:100F2800184684F83530F8BD012D03D0F3D3022DCF
:100F3800B6D1F0E7B0F1C07FB2D1EEE7032DAFD85C
:100F480001A252F825F000BF230F00081F0F000868
:100F5800230F00083D0F00083F8010E0ABAAAAAAA3
:100F680064250008F0B583B00023876D0193C36D35
:100F78003D68654908229A402A4204460E6803D013
:100F880001680868400759D401229A402A4203D0D0
:100F980021684969080674D404229A402A4203D079
:100FA80021680968890766D410229A402A4203D02A
:100FB8002168086800074BD420229A402A4214D09E
:100FC80021680868C00610D5BA6094F83520052A4B
:100FD80063D00B6813F4802F0B687ED0190340F19F
:100FE8008980E36B0BB120469847636D23B3636D2B
:100FF800DA071AD50523226884F83530136843497F
:1010080023F00103A1FB06161360B60A02E0136879
:10101800DB0704D5019B0133B3420193F7D90022C2
:10102800012384F8342084F83530E36C23B120465A
:1010380003B0BDE8F040184703B0F0BD086820F0E1
:1010480004000860BA60626D42F0010262659BE7C5
:10105800BA600A6812F4802F0A6818D1D20503D43E
:101068000A6822F008020A60226C002AA4D02046EE
:101078009047E36DA0E7BA60626D42F004026265D2
:1010880092E7BA60626D42F00202626584E711037A
:10109800EAD5A26C002AEAD18EE70A68206C22F011
:1010A80016020A604A6922F080024A6138B30A6867
:1010B80022F008020A603F22216D02FA03F30020A1
:1010C8000122BB6084F8340084F835200029B3D0AD
:1010D800204603B0BDE8F040084713F4807380D180
:1010E8000A68012022F010020A6084F8343084F87B
:1010F800350076E7636C002B7FF475AF75E7A26C5B
:10110800002AD4D1D7E700BF08000020B5814E1BC4
:10111800002800F004812DE9F84390F8393004469E
:1011280003F0FF02002B00F0F580236826692422D3
:1011380084F83920D86820F40050D4E90225D86012
:101148001969E06921F4405129431961D968656931
:10115800324321F416412A4321F00C0102430A4389
:10116800DA605A69A16922F440720A43B0F5004F67
:101178005A61AA4A71D0934200F0D38002F5806286
:10118800934200F0CE80FFF7D3FAA54F636800EBD7
:10119800800000EB80009B00B0FBF3F3A7FB032368
:1011A8005B091D01FFF7C4FA666800EB800000EBDD
:1011B8008000B600B0FBF6F6FFF7BAFA636800EBFA
:1011C800800000EB80009B00B0FBF3F3A7FB032338
:1011D8005B094FF0640909FB13631B013233A7FB5A
:1011E80003235B0903F0F006FFF7A2FA626800EB3D
:1011F800800000EB80009300B0FBF3F8FFF798FA4B
:10120800D4E9002100EB80008B0000EB8000B0FBEC
:10121800F3F3A7FB03135B0909FB13831B013233A9
:10122800A7FB0313C3F3431333432B44936013699E
:1012380023F490431361536923F02A035361D3685D
:101248000025202143F40053D3602846E56384F841
:10125800391084F83A10BDE8F883934200F09F8073
:1012680002F58062934200F09A80FFF761FA6C4FB2
:10127800636800EB800000EB80005B00B0FBF3F3D9
:10128800A7FB03235B091E01FFF752FA656800EB11
:10129800800000EB80006D00B0FBF5F5FFF748FA21
:1012A800636800EB800000EB80005B00B0FBF3F3A9
:1012B800A7FB03235B094FF0640909FB1353DB0009
:1012C8003233A7FB03231B0903F4F875FFF730FA41
:1012D800626800EB800000EB80005300B0FBF3F87D
:1012E800FFF726FAD4E9002100EB80004B0000EB61
:1012F8008000B0FBF3F3A7FB03135B0909FB13831F
:10130800DB003233A7FB0313C3F3421333442B44EC
:1013180093608CE780F8382000F036FE05E701205E
:101328007047FFF715FA3E4F636800EB800000EB4B
:1013380080009B00B0FBF3F3A7FB03235B091D01AF
:10134800FFF706FA666800EB800000EB8000B60045
:10135800B0FBF6F6FFF7FCF9636800EB800000EBE2
:1013680080009B00B0FBF3F3A7FB03234FF0640955
:101378005B0909FB13631B013233A7FB03235B09DA
:1013880003F0F006FFF7E4F9626800EB80009300D1
:1013980000EB8000B0FBF3F8FFF7DAF930E7FFF76E
:1013A800D7F91F4F636800EB800000EB80005B00FB
:1013B800B0FBF3F3A7FB03235B091E01FFF7C8F992
:1013C800656800EB800000EB80006D00B0FBF5F570
:1013D800FFF7BEF9636800EB800000EB80005B005C
:1013E800B0FBF3F3A7FB03234FF064095B0909FB88
:1013F8001353DB003233A7FB03231B0903F4F875EF
:10140800FFF7A6F9626800EB8000530000EB80004C
:10141800B0FBF3F8FFF79CF964E700BF0010014048
:101428001F85EB512DE9F0410368DD0782B00446C2
:101438002FD5AE498A6802F00C02042A00F0C38056
:101448008A6802F00C02082A00F0B9806368B3F5D4
:10145800803F00F0F980B3F5A02F00F05181A34D33
:101468002A6822F480322A602A6822F480222A60BC
:10147800002B40F0EE80FFF78FFA064605E0FFF7F5
:101488008BFA801B642800F202812B689B03F6D438
:1014980023689F0728D5954A916811F00C0F00F032
:1014A800A080916801F00C01082900F09680E3689B
:1014B800002B00F009818E4B8C4D01221A60FFF73A
:1014C8006BFA064605E0FFF767FA801B022800F270
:1014D800DE802B689807F6D52B68226923F0F8037D
:1014E80043EAC2032B6023681A0715D56369002BEA
:1014F80000F082807F4B7D4D01221A60FFF74CFA85
:10150800064605E0FFF748FA801B022800F2BF8074
:101518006B6F9B07F6D52368580730D5734A136C51
:1015280013F0805378D00026734D2A68D10540F116
:101538009E80A368012B00F0AE80052B00F0F080A0
:101548006A4D2A6F22F001022A672A6F22F00402EC
:101558002A67002B40F0A480FFF71EFA41F2883773
:10156800804606E0FFF718FAA0EB0800B84200F240
:101578008E802B6F9807F5D4002E40F0CB80A2699F
:10158800CAB15A4DA96801F00C01082930D0022AC5
:101598005A4A4FF00001116000F0CC80FFF7FCF9C7
:1015A8002C46054604E0FFF7F7F9401B02286ED8E1
:1015B80023689B01F7D4002002B0BDE8F0814A6897
:1015C80050027FF543AF494A126891037FF561AF36
:1015D8006268002A7FF45DAF0AE0526856023FF560
:1015E80066AF424A1268950722D5E268012A1FD0E1
:1015F800012002B0BDE8F0813E4A3C4D1360FFF780
:10160800CBF9064604E0FFF7C7F9801B02283ED84D
:101618006B6F9F07F7D47EE70193136C43F08053F9
:101628001364136C03F080530193019B01267BE73D
:101638002E4920690A6822F0F80242EAC0020A60CC
:101648001A077FF569AF51E7284A136843F48033D6
:101658001360FFF7A1F9254D064604E0FFF79CF952
:10166800801B642813D82B689A03F7D510E72A68DB
:1016780042F480722A60FFF78FF907462B68DA0573
:101688003FF557AFFFF788F9C01B0228F6D90320AA
:1016980002B0BDE8F081154A136F43F001031367E8
:1016A800FFF77AF9114D804641F2883705E0FFF7D8
:1016B80073F9A0EB0800B842E9D82B6F9B07F6D561
:1016C800002E3FF45CAF25E0094A084D1360FFF790
:1016D80063F9064604E0FFF75FF9801B0228D6D8B5
:1016E8002B689907F7D42368FEE600BF003802404C
:1016F80000004742800E47420070004060004742A9
:10170800244B1A6842F480221A601A6842F4803224
:101718001A609EE71F4A136C23F0805313642EE768
:101728001C4B1A6F42F004021A671A6F42F001024A
:101738001A67B5E7FFF730F9064604E0FFF72CF91A
:10174800801B0228A3D82B689901F7D4D4E9073263
:10175800666AE06A216B1343A26A0E4C43EA861359
:1017680043EA0063520843EA0173013A0A4943EA2B
:10177800024301226B600A60FFF70EF9054604E098
:10178800FFF70AF9401B022881D823689A01F7D588
:1017980011E700BF00380240600047422DE9F04FD2
:1017A800DFF814C2DFF81482D1F800E083B0002516
:1017B80003E00135102D00F094800123AB400EEAC0
:1017C8000304A342F5D14E6826F0100ABAF1020FBD
:1017D80000F08A804FEA45090322D0F800B002FAE7
:1017E80009F2D24306F0030702EA0B0B07FA09F7DE
:1017F8000AF1FF3A47EA0B07BAF1010F076040F216
:101808009980C7688B683A4003FA09F31343C360A9
:10181800F300CED500230193D8F8443043F4804335
:10182800C8F84430D8F8443025F0030202F1804269
:1018380003F4804302F59C32019305F00307019BF2
:10184800D2F80890BF000F23BB4029EA030A544B83
:1018580098421ED003F5806398427ED0514B98423F
:1018680000F08280504B984200F085804F4B9842A0
:1018780000F088804E4B984200F08B804D4B984288
:101888000CBF4FF006094FF0070909FA07F74AEAB3
:10189800070AC2F808A0DCF80030E243F70354BF97
:1018A80013402343CCF80030DCF80430B70354BFAE
:1018B80013402343CCF80430DCF80830F70254BF57
:1018C80013402343CCF80830DCF80C30B60205F19D
:1018D800010554BF13402343102DCCF80C307FF47E
:1018E8006CAF03B0BDE8F08F4FEAD50900EB89096A
:1018F80005F00707D9F82020BF004FF00F0B0BFAAF
:1019080007FB22EA0B0A0A69BA4042EA0A02C9F846
:1019180020204FEA45090322D0F800A002FA09F274
:10192800D24306F0030702EA0A0A07FA09F747EA68
:101938000A070760876807EA020ACF6807FA09F703
:1019480047EA0A078760D0F804A0C6F300172AEA16
:101958000303AF401F43476053E74FF0010909FAFB
:1019680007F74AEA070A94E74FF0020909FA07F766
:101978004AEA070A8DE74FF0030909FA07F74AEA26
:10198800070A86E74FF0040909FA07F74AEA070A3F
:101998007FE74FF0050909FA07F74AEA070A78E7E7
:1019A8000000024000080240000C02400010024003
:1019B8000014024000180240003C01400038024078
:1019C80002B909048161704730B5002395B0CDE9AB
:1019D8000A33CDE90833CDE90333CDE905331E4990
:1019E80000930C930293086C1C4A40F080500864E2
:1019F800096C01F08051009100990193116841F43C
:101A08004041116012680E9302F440420120022402
:101A180001920A9010210822642307A8019D0794C7
:101A28000D94CDE9114413940B91CDE90F23FFF7E1
:101A3800F9FC00B1FEE703460F254FF4805202A8D7
:101A48000321CDE90343069302950592FEF7D6FDDF
:101A580000B1FEE715B030BD00380240007000400C
:101A680008B5FEF773FFFFF7AFFF00F01FFB00F0AC
:101A780001FD00F0CDF900F0C1FA00F0A7FB00F07D
:101A88002BFC00F065FA294D294C2A4E28460022E5
:101A98004FF48041FFF794FF204600224FF4005195
:101AA800FFF78EFF012211463046FFF789FF01221A
:101AB8004FF400412046FFF783FF6420FEF772FFD2
:101AC800284600224FF40041FFF77AFF2046002203
:101AD8004FF48041FFF774FF284601224FF48041FC
:101AE800FFF76EFF01224FF400512046FFF768FF11
:101AF8006420FEF757FF304600220121FFF760FF00
:101B0800204600224FF40041FFF75AFF28460122E1
:101B18004FF40041FFF754FF204601224FF4804163
:101B2800FFF74EFF6420FEF73DFFAFE700080240D5
:101B380000040240001C0240FEE700BF002800F03D
:101B48009180F8B5056C0446002D00F08180236C67
:101B5800DB0604D50023012084F83C30F8BD226C54
:101B68004D4923684D4D22F4885222F0020242F07A
:101B7800020222644A6822F440324A604A68606875
:101B880002434A6058682169A768E66820F48070B3
:101B980058605A6842EA01225A60586820F040703A
:101BA80058605968A06A39435960996821F40061FE
:101BB80099609A68A84242EA06029A6054D09968E5
:101BC800E56A21F0706199609A6810439860996895
:101BD80021F0405199609A682A439A609968257E55
:101BE80094F8200021F0020199609A6842EA4502BF
:101BF8009A605A68002840D122F400625A60DA6A72
:101C0800E56994F83070666922F47002DA62D86A7D
:101C1800013D40EA0550D862986820F40070986049
:101C2800996841EA47219960996821F4806199602F
:101C38009A68002042EA86229A606064236C23F046
:101C4800030343F001032364002384F83C30F8BD08
:101C580000F016F96564236C84F83C50DB063FF508
:101C680079AF7CE7012070479A6822F070629A6029
:101C78009A6822F040529A60B0E742F40062616AC2
:101C88005A605A6822F460425A605A68013942EA36
:101C980041325A60B3E700BF002301400100000F42
:101CA800F0B490F83C3082B00022012B019200F091
:101CB80094800D688A6803680124092DAFB280F802
:101CC8003C4029D81C6905EB45064FF0070C0CFA77
:101CD80006FC24EA0C041C611C6902FA06F6264379
:101CE8001E614E68062E06EB86022AD8596B053A05
:101CF8001F24944021EA04015963596B07FA02F240
:101D08000A435A633D4A93422DD0002380F83C3061
:101D1800184602B0F0BC704707EB4706DC681E3E69
:101D28004FF0070C0CFA06FC24EA0C04DC60DC68B3
:101D380002FA06F62643DE604E68062E06EB860299
:101D4800D4D90C2E31D8A2F123041F211A6BA1403B
:101D580022EA01021A63196B07FA04F20A431A63AA
:101D6800264A9342D1D1122D2DD0254B9D4238D1F0
:101D7800244A254B5168254C21F480015160516853
:101D880041F4000151601B68A4FB03239B0C03EB87
:101D980083035B000193019B002BB6D0019B013BA1
:101DA8000193019B002BF9D1AFE7A2F141011F2458
:101DB800DA6A8C4022EA0402DA62DC6A07FA01F283
:101DC8002243DA629EE70F4B5A6822F400025A60F7
:101DD8005A6842F480025A6097E7022002B0F0BCC9
:101DE8007047112D91D1074B5A6822F480025A602E
:101DF8005A6842F400025A6087E700BF0020014099
:101E080012000010002301400800002083DE1B435D
:101E180010B5184B184A194C1A6084B04FF4803129
:101E280000225960184601219C629A6000921A614A
:101E38001A7683F82020DA62DA6083F83020CDE958
:101E480001220392D9615961FFF778FE70B909241C
:101E580001220023694607480293CDE90042FFF7B3
:101E68001FFF08B1FFF768FE04B010BDFFF764FE5E
:101E7800EDE700BF2C000020002001400100000F0A
:101E8800F0B502682D4B89B000249A42CDE903448D
:101E9800CDE90544079401D009B0F0BD03F58C33B2
:101EA80000945A6C264D42F480725A645A6C02F4BB
:101EB80080720092009A01941A6B42F001021A6330
:101EC8001A6B02F001020192019A02941A6B42F015
:101ED80002021A631B6B03F0020302930327C02359
:101EE80003A906461748029A03930497FFF756FC7E
:101EF80003A915480594CDE90377FFF74FFC13486C
:101F080028604FF480674FF400614FF400524FF49B
:101F1800003328466C60C5E90244EC616C62C5E98F
:101F28000471AA612B62FEF783FF18B9B563AE632B
:101F380009B0F0BDFFF700FEF8E700BF0020014040
:101F480074000020000002400004024010640240B7
:101F58000B4B0C4A10B50C211A604FF4E1340022E7
:101F680018465C605961C3E902221A61C3E9062276
:101F7800FFF7CEF800B910BDBDE81040FFF7DCBD93
:101F8800D40000200010014070B50168194A88B0DB
:101F980000239142CDE90333CDE90533079301D0FE
:101FA80008B070BD02F594320193516C124841F0AB
:101FB80010015164516C01F01001019101990293D3
:101FC800136B43F001031363136B03F001030293D4
:101FD8004FF4C0630322039303A9072302250124B6
:101FE800029ECDE90454CDE90623FFF7D7FB08B0DC
:101FF80070BD00BF001001400000024038B50E4B14
:102008000E4A1A604FF4827500224FF400740A21B8
:1020180018465D609C61D962C3E90222C3E90422C3
:10202800C3E90722C3E90922FEF772FA00B938BDED
:10203800BDE83840FFF780BD1401002000300140A2
:1020480070B50168174A88B000239142CDE903337F
:10205800CDE90533079301D008B070BD02F584328D
:102068000193516C104841F480515164516C01F452
:102078008051019101990293136B43F0020313639A
:10208800136B03F0020302930322052303A93825E7
:102098000224029ECDE90354CDE90623FFF77EFB17
:1020A80008B070BD00300140000402402DE9F04343
:1020B80000248BB0CDE90544CDE907443E4B01949B
:1020C80009941A6B3D4FDFF8FC90DFF8FC803C4E1A
:1020D80042F004021A631A6B02F004020192019A98
:1020E80002941A6B42F080021A631A6B02F08002A3
:1020F8000292029A03941A6B42F001021A631A6B55
:1021080002F001020392039A04941A6B42F002024D
:102118001A631B6B03F002030493224638464FF4FC
:102128000051049BFFF74CFC384601224FF4404114
:10213800FFF746FC012248461146FFF741FC2246BC
:1021480040464EF20401FFF73BFC224630464FF46E
:102158008851FFF735FC012230464FF46041FFF704
:102168002FFC01254FF46043384605A9CDE9053514
:10217800CDE90744FFF712FB484605A9CDE9055507
:10218800CDE90744FFF70AFB404605A94EF20403D0
:102198000593CDE906540894FFF700FB4FF471430B
:1021A80005A93046CDE9065408940593FFF7F6FAD9
:1021B8000BB0BDE8F08300BF0038024000080240C1
:1021C80000040240001C02400000024030B53D4CB3
:1021D8003D4B236091B00023632220466260C4E92E
:1021E8000232029309932361A3610393CDE90A3371
:1021F800CDE90C33CDE90E33FEF76AFC80BB002332
:1022080002A93048CDE90233FEF7F0FD28BB0023D0
:1022180060251A4609A92B480D93CDE90A3309957B
:10222800FEF7DAFCB0B909A904222648FEF7D4FC67
:1022380008B1FFF781FC2268234900238A42CDE9CF
:102248000433CDE90633089325D020498A420AD0C1
:1022580011B030BDFFF770FCE5E7FFF76DFCD6E77E
:10226800FFF76AFCCBE71A4A0193136B194843F04E
:1022780002031363136B03F0020301930222032387
:1022880004A94FF40074019D0893CDE90442FFF7B7
:1022980085FA11B030BD0E4A0093136B0D4843F018
:1022A80002031363136B03F002030093C02202239B
:1022B80004A9009C0893CDE90423FFF76FFA11B035
:1022C80030BD00BF6C0100200008004000480140FC
:1022D800003802400004024030B5354C354B2360CD
:1022E8008FB00023204663600793C4E9023323615B
:1022F800A361CDE90833CDE90A33CDE90C33FEF704
:1023080063FB18BB2A48FEF7E3FBE0B9002360250E
:1023180007A91A4626480B93CDE908330795FEF717
:102328005BFC08B1FFF708FC2268234900238A42B6
:10233800CDE90233CDE90433069322D01D498A4200
:1023480007D00FB030BDFFF7F7FBDFE7FFF7F4FB6F
:10235800D8E71A4A0193136B194843F00203136331
:10236800136B03F0020301930222032302A94FF423
:102378000074019D0693CDE90242FFF70FFA0FB0F2
:1023880030BD0E4A0093136B0D4843F002031363EC
:10239800136B03F002030093C022022302A9009CDE
:1023A8000693CDE90223FFF7F9F90FB030BD00BF5E
:1023B800AC010020004801400008004000380240FD
:1023C8000004024002680A4B9A4200D0704782B06B
:1023D80003F50C33002201921A6C42F004021A64CD
:1023E8001B6C03F004030193019B02B0704700BF0C
:1023F8000008004002680A4B9A4200D0704782B039
:1024080003F57043002201925A6C42F480225A6408
:102418005B6C03F480230193019B02B0704700BFFB
:10242800004801401049114BD1F8882042F470024D
:1024380010B4C1F888201A680D4C002042F001023F
:102448001A6098601A6822F0847222F480321A6046
:102458005C601A684FF0006422F480221A60D86029
:102468008C605DF8044B704700ED00E000380240D6
:102478001030002400B583B000220A4B0192196B7A
:1024880041F4800119631B6B03F48003019302215B
:102498003820019BFEF77EF9382003B05DF804EB85
:1024A800FEF7AEB900380240DFF834D0002103E06F
:1024B8000C4B5B58435004310B480C4B42189A4262
:1024C800F6D30B4A02E0002342F8043B094B9A4238
:1024D800F9D3FFF7A7FF00F011F8FFF7C1FA70472B
:1024E8000000052094250008000000200C000020B2
:1024F8000C000020EC010020FEE7000070B50D4E36
:102508000D4CA41BA4100025A54209D10B4E0C4C60
:1025180000F018F8A41BA4100025A54205D170BD31
:1025280056F8253098470135EEE756F82530984794
:102538000135F2E78C2500088C2500088C25000859
:1025480090250008F8B500BFF8BC08BC9E46704747
:0C255800F8B500BFF8BC08BC9E467047F8
:10256400000610160006101600000000000000000F
:102574000102030406070809000000000102030425
:08258400C4DCFF7F0100000030
:04258C00FD01000845
:04259000D901000865
:0C25940001000000100000000024F40012
:04000005080024B11A
:00000001FF
